{
  "contractName": "GlobalTransactionManager",
  "abi": [
    {
      "inputs": [
        {
          "internalType": "address",
          "name": "_registery",
          "type": "address"
        },
        {
          "internalType": "address",
          "name": "_verifier",
          "type": "address"
        },
        {
          "internalType": "address",
          "name": "_lockManager",
          "type": "address"
        }
      ],
      "stateMutability": "nonpayable",
      "type": "constructor"
    },
    {
      "anonymous": false,
      "inputs": [
        {
          "components": [
            {
              "components": [
                {
                  "internalType": "string",
                  "name": "network",
                  "type": "string"
                },
                {
                  "internalType": "uint256",
                  "name": "chain",
                  "type": "uint256"
                }
              ],
              "internalType": "struct Structs.URI",
              "name": "uri",
              "type": "tuple"
            },
            {
              "internalType": "address",
              "name": "sender",
              "type": "address"
            }
          ],
          "indexed": false,
          "internalType": "struct Structs.TransactionID",
          "name": "PrimaryPrepareTxId",
          "type": "tuple"
        },
        {
          "components": [
            {
              "internalType": "address",
              "name": "contractC",
              "type": "address"
            },
            {
              "internalType": "string",
              "name": "functionC",
              "type": "string"
            },
            {
              "internalType": "string[]",
              "name": "args",
              "type": "string[]"
            }
          ],
          "indexed": false,
          "internalType": "struct Structs.Invocation",
          "name": "GlobalTxStatusQuery",
          "type": "tuple"
        },
        {
          "components": [
            {
              "components": [
                {
                  "components": [
                    {
                      "internalType": "string",
                      "name": "network",
                      "type": "string"
                    },
                    {
                      "internalType": "uint256",
                      "name": "chain",
                      "type": "uint256"
                    }
                  ],
                  "internalType": "struct Structs.URI",
                  "name": "uri",
                  "type": "tuple"
                },
                {
                  "internalType": "address",
                  "name": "sender",
                  "type": "address"
                }
              ],
              "internalType": "struct Structs.TransactionID",
              "name": "txId",
              "type": "tuple"
            },
            {
              "components": [
                {
                  "internalType": "address",
                  "name": "contractC",
                  "type": "address"
                },
                {
                  "internalType": "string",
                  "name": "functionC",
                  "type": "string"
                },
                {
                  "internalType": "string[]",
                  "name": "args",
                  "type": "string[]"
                }
              ],
              "internalType": "struct Structs.Invocation",
              "name": "invocation",
              "type": "tuple"
            },
            {
              "internalType": "string",
              "name": "proof",
              "type": "string"
            }
          ],
          "indexed": false,
          "internalType": "struct Structs.NetworkTransaction",
          "name": "ConfirmTx",
          "type": "tuple"
        }
      ],
      "name": "NetworkTransactionPreparedEvent",
      "type": "event"
    },
    {
      "anonymous": false,
      "inputs": [
        {
          "components": [
            {
              "components": [
                {
                  "internalType": "string",
                  "name": "network",
                  "type": "string"
                },
                {
                  "internalType": "uint256",
                  "name": "chain",
                  "type": "uint256"
                }
              ],
              "internalType": "struct Structs.URI",
              "name": "uri",
              "type": "tuple"
            },
            {
              "internalType": "address",
              "name": "sender",
              "type": "address"
            }
          ],
          "indexed": false,
          "internalType": "struct Structs.TransactionID",
          "name": "PrimaryConfirmedTxId",
          "type": "tuple"
        },
        {
          "components": [
            {
              "components": [
                {
                  "components": [
                    {
                      "internalType": "string",
                      "name": "network",
                      "type": "string"
                    },
                    {
                      "internalType": "uint256",
                      "name": "chain",
                      "type": "uint256"
                    }
                  ],
                  "internalType": "struct Structs.URI",
                  "name": "uri",
                  "type": "tuple"
                },
                {
                  "internalType": "address",
                  "name": "sender",
                  "type": "address"
                }
              ],
              "internalType": "struct Structs.TransactionID",
              "name": "txId",
              "type": "tuple"
            },
            {
              "components": [
                {
                  "internalType": "address",
                  "name": "contractC",
                  "type": "address"
                },
                {
                  "internalType": "string",
                  "name": "functionC",
                  "type": "string"
                },
                {
                  "internalType": "string[]",
                  "name": "args",
                  "type": "string[]"
                }
              ],
              "internalType": "struct Structs.Invocation",
              "name": "invocation",
              "type": "tuple"
            },
            {
              "internalType": "string",
              "name": "proof",
              "type": "string"
            }
          ],
          "indexed": false,
          "internalType": "struct Structs.NetworkTransaction[]",
          "name": "NetworkConfirmTxs",
          "type": "tuple[]"
        }
      ],
      "name": "PrimaryTransactionConfirmedEvent",
      "type": "event"
    },
    {
      "anonymous": false,
      "inputs": [
        {
          "components": [
            {
              "components": [
                {
                  "internalType": "string",
                  "name": "network",
                  "type": "string"
                },
                {
                  "internalType": "uint256",
                  "name": "chain",
                  "type": "uint256"
                }
              ],
              "internalType": "struct Structs.URI",
              "name": "uri",
              "type": "tuple"
            },
            {
              "internalType": "address",
              "name": "sender",
              "type": "address"
            }
          ],
          "indexed": false,
          "internalType": "struct Structs.TransactionID",
          "name": "PrimaryPrepareTxId",
          "type": "tuple"
        },
        {
          "components": [
            {
              "components": [
                {
                  "components": [
                    {
                      "internalType": "string",
                      "name": "network",
                      "type": "string"
                    },
                    {
                      "internalType": "uint256",
                      "name": "chain",
                      "type": "uint256"
                    }
                  ],
                  "internalType": "struct Structs.URI",
                  "name": "uri",
                  "type": "tuple"
                },
                {
                  "internalType": "address",
                  "name": "sender",
                  "type": "address"
                }
              ],
              "internalType": "struct Structs.TransactionID",
              "name": "txId",
              "type": "tuple"
            },
            {
              "components": [
                {
                  "internalType": "address",
                  "name": "contractC",
                  "type": "address"
                },
                {
                  "internalType": "string",
                  "name": "functionC",
                  "type": "string"
                },
                {
                  "internalType": "string[]",
                  "name": "args",
                  "type": "string[]"
                }
              ],
              "internalType": "struct Structs.Invocation",
              "name": "invocation",
              "type": "tuple"
            },
            {
              "internalType": "string",
              "name": "proof",
              "type": "string"
            }
          ],
          "indexed": false,
          "internalType": "struct Structs.NetworkTransaction",
          "name": "PrimaryConfirmTx",
          "type": "tuple"
        },
        {
          "components": [
            {
              "internalType": "address",
              "name": "contractC",
              "type": "address"
            },
            {
              "internalType": "string",
              "name": "functionC",
              "type": "string"
            },
            {
              "internalType": "string[]",
              "name": "args",
              "type": "string[]"
            }
          ],
          "indexed": false,
          "internalType": "struct Structs.Invocation",
          "name": "GlobalTxStatusQuery",
          "type": "tuple"
        },
        {
          "components": [
            {
              "components": [
                {
                  "components": [
                    {
                      "internalType": "string",
                      "name": "network",
                      "type": "string"
                    },
                    {
                      "internalType": "uint256",
                      "name": "chain",
                      "type": "uint256"
                    }
                  ],
                  "internalType": "struct Structs.URI",
                  "name": "uri",
                  "type": "tuple"
                },
                {
                  "internalType": "address",
                  "name": "sender",
                  "type": "address"
                }
              ],
              "internalType": "struct Structs.TransactionID",
              "name": "txId",
              "type": "tuple"
            },
            {
              "components": [
                {
                  "internalType": "address",
                  "name": "contractC",
                  "type": "address"
                },
                {
                  "internalType": "string",
                  "name": "functionC",
                  "type": "string"
                },
                {
                  "internalType": "string[]",
                  "name": "args",
                  "type": "string[]"
                }
              ],
              "internalType": "struct Structs.Invocation",
              "name": "invocation",
              "type": "tuple"
            },
            {
              "internalType": "string",
              "name": "proof",
              "type": "string"
            }
          ],
          "indexed": false,
          "internalType": "struct Structs.NetworkTransaction[]",
          "name": "NetworkPrepareTxs",
          "type": "tuple[]"
        },
        {
          "components": [
            {
              "components": [
                {
                  "components": [
                    {
                      "internalType": "string",
                      "name": "network",
                      "type": "string"
                    },
                    {
                      "internalType": "uint256",
                      "name": "chain",
                      "type": "uint256"
                    }
                  ],
                  "internalType": "struct Structs.URI",
                  "name": "uri",
                  "type": "tuple"
                },
                {
                  "internalType": "address",
                  "name": "sender",
                  "type": "address"
                }
              ],
              "internalType": "struct Structs.TransactionID",
              "name": "txId",
              "type": "tuple"
            },
            {
              "components": [
                {
                  "internalType": "address",
                  "name": "contractC",
                  "type": "address"
                },
                {
                  "internalType": "string",
                  "name": "functionC",
                  "type": "string"
                },
                {
                  "internalType": "string[]",
                  "name": "args",
                  "type": "string[]"
                }
              ],
              "internalType": "struct Structs.Invocation",
              "name": "invocation",
              "type": "tuple"
            },
            {
              "internalType": "string",
              "name": "proof",
              "type": "string"
            }
          ],
          "indexed": false,
          "internalType": "struct Structs.NetworkTransaction[]",
          "name": "NetworkConfirmTxs",
          "type": "tuple[]"
        }
      ],
      "name": "PrimaryTransactionPreparedEvent",
      "type": "event"
    },
    {
      "anonymous": false,
      "inputs": [
        {
          "indexed": false,
          "internalType": "string",
          "name": "network",
          "type": "string"
        },
        {
          "indexed": false,
          "internalType": "uint256",
          "name": "chain",
          "type": "uint256"
        },
        {
          "indexed": false,
          "internalType": "bytes",
          "name": "connection",
          "type": "bytes"
        }
      ],
      "name": "SIDE_MESH_RESOURCE_REGISTERED_EVENT",
      "type": "event"
    },
    {
      "inputs": [
        {
          "internalType": "string",
          "name": "networkC",
          "type": "string"
        }
      ],
      "name": "setNetwork",
      "outputs": [],
      "stateMutability": "nonpayable",
      "type": "function"
    },
    {
      "inputs": [
        {
          "internalType": "string",
          "name": "network",
          "type": "string"
        },
        {
          "internalType": "uint256",
          "name": "chain",
          "type": "uint256"
        },
        {
          "internalType": "address",
          "name": "sender",
          "type": "address"
        }
      ],
      "name": "getDataForCheckTimeout",
      "outputs": [
        {
          "internalType": "bool",
          "name": "",
          "type": "bool"
        },
        {
          "internalType": "uint256",
          "name": "",
          "type": "uint256"
        },
        {
          "internalType": "uint256",
          "name": "",
          "type": "uint256"
        }
      ],
      "stateMutability": "view",
      "type": "function"
    },
    {
      "inputs": [
        {
          "internalType": "uint256",
          "name": "ttlHeight",
          "type": "uint256"
        },
        {
          "internalType": "uint256",
          "name": "ttlTime",
          "type": "uint256"
        }
      ],
      "name": "startGlobalTransaction",
      "outputs": [],
      "stateMutability": "nonpayable",
      "type": "function"
    },
    {
      "inputs": [
        {
          "internalType": "string",
          "name": "network",
          "type": "string"
        },
        {
          "internalType": "uint256",
          "name": "chain",
          "type": "uint256"
        },
        {
          "internalType": "address",
          "name": "contractC",
          "type": "address"
        },
        {
          "internalType": "string",
          "name": "functionC",
          "type": "string"
        },
        {
          "internalType": "string[]",
          "name": "args",
          "type": "string[]"
        }
      ],
      "name": "registerNetworkTransaction",
      "outputs": [],
      "stateMutability": "nonpayable",
      "type": "function"
    },
    {
      "inputs": [
        {
          "internalType": "string",
          "name": "functionC",
          "type": "string"
        }
      ],
      "name": "preparePrimaryTransaction",
      "outputs": [],
      "stateMutability": "nonpayable",
      "type": "function"
    },
    {
      "inputs": [
        {
          "internalType": "address",
          "name": "primaryPrepareTxSender",
          "type": "address"
        },
        {
          "internalType": "string[][]",
          "name": "networkTxRes",
          "type": "string[][]"
        }
      ],
      "name": "confirmPrimaryTransaction",
      "outputs": [],
      "stateMutability": "nonpayable",
      "type": "function"
    },
    {
      "inputs": [
        {
          "internalType": "string",
          "name": "primaryNetwork",
          "type": "string"
        },
        {
          "internalType": "uint256",
          "name": "primaryChain",
          "type": "uint256"
        },
        {
          "internalType": "string",
          "name": "primaryTxID",
          "type": "string"
        },
        {
          "internalType": "string",
          "name": "primaryTxProof",
          "type": "string"
        }
      ],
      "name": "startNetworkTransaction",
      "outputs": [],
      "stateMutability": "nonpayable",
      "type": "function"
    },
    {
      "inputs": [
        {
          "internalType": "string",
          "name": "primaryNetwork",
          "type": "string"
        },
        {
          "internalType": "uint256",
          "name": "primaryChain",
          "type": "uint256"
        },
        {
          "internalType": "address",
          "name": "primaryTxSender",
          "type": "address"
        },
        {
          "internalType": "address",
          "name": "globalTxQueryContract",
          "type": "address"
        },
        {
          "internalType": "string",
          "name": "globalTxQueryFunc",
          "type": "string"
        },
        {
          "internalType": "string",
          "name": "functionC",
          "type": "string"
        }
      ],
      "name": "prepareNetworkTransaction",
      "outputs": [],
      "stateMutability": "nonpayable",
      "type": "function"
    },
    {
      "inputs": [
        {
          "internalType": "address",
          "name": "networkPrepareTxSender",
          "type": "address"
        },
        {
          "internalType": "uint256",
          "name": "globalTxStatus",
          "type": "uint256"
        },
        {
          "internalType": "string",
          "name": "primaryNetwork",
          "type": "string"
        },
        {
          "internalType": "uint256",
          "name": "primaryChain",
          "type": "uint256"
        },
        {
          "internalType": "address",
          "name": "primaryConfirmTxSender",
          "type": "address"
        },
        {
          "internalType": "string",
          "name": "primaryConfirmTxProof",
          "type": "string"
        }
      ],
      "name": "confirmNetworkTransaction",
      "outputs": [],
      "stateMutability": "nonpayable",
      "type": "function"
    }
  ],
  "bytecode": "0x60806040523480156200001157600080fd5b50604051620072203803806200722083398181016040528101906200003791906200016d565b82600360006101000a81548173ffffffffffffffffffffffffffffffffffffffff021916908373ffffffffffffffffffffffffffffffffffffffff16021790555081600260006101000a81548173ffffffffffffffffffffffffffffffffffffffff021916908373ffffffffffffffffffffffffffffffffffffffff16021790555080600460006101000a81548173ffffffffffffffffffffffffffffffffffffffff021916908373ffffffffffffffffffffffffffffffffffffffff160217905550505050620001c9565b600080fd5b600073ffffffffffffffffffffffffffffffffffffffff82169050919050565b6000620001358262000108565b9050919050565b620001478162000128565b81146200015357600080fd5b50565b60008151905062000167816200013c565b92915050565b60008060006060848603121562000189576200018862000103565b5b6000620001998682870162000156565b9350506020620001ac8682870162000156565b9250506040620001bf8682870162000156565b9150509250925092565b61704780620001d96000396000f3fe608060405234801561001057600080fd5b50600436106100935760003560e01c80638cbaefda116100665780638cbaefda146101085780639ce2754214610124578063aa1a340514610140578063aaba5b4b14610172578063ea71adfd1461018e57610093565b806316b41747146100985780634eff7c46146100b45780635d5974ca146100d0578063818edaec146100ec575b600080fd5b6100b260048036038101906100ad91906153c1565b6101aa565b005b6100ce60048036038101906100c99190615453565b6116f7565b005b6100ea60048036038101906100e59190615534565b611c84565b005b610106600480360381019061010191906155f9565b61258e565b005b610122600480360381019061011d9190615642565b6125a8565b005b61013e600480360381019061013991906155f9565b612847565b005b61015a60048036038101906101559190615711565b61319d565b604051610169939291906157aa565b60405180910390f35b61018c600480360381019061018791906157e1565b613308565b005b6101a860048036038101906101a3919061589c565b6136cf565b005b60006101b461392a565b9050600061021b6040518060400160405280600a81526020017f534944455f4d4553485f0000000000000000000000000000000000000000000081525083468760405160200161020794939291906159bf565b604051602081830303815290604052613adc565b90506007600082815260200190815260200160002060060160019054906101000a900460ff16604051806060016040528060238152602001616f58602391399061029b576040517f08c379a00000000000000000000000000000000000000000000000000000000081526004016102929190615a4f565b60405180910390fd5b50600060028111156102b0576102af615a71565b5b6007600083815260200190815260200160002060060160009054906101000a900460ff1660028111156102e6576102e5615a71565b5b146040518060600160405280602c8152602001616fc4602c913990610341576040517f08c379a00000000000000000000000000000000000000000000000000000000081526004016103389190615a4f565b60405180910390fd5b506008600082815260200190815260200160002060100160009054906101000a900460ff166040518060400160405280601381526020017f4e6f7420666f756e6420676c6f62616c20747800000000000000000000000000815250906103dd576040517f08c379a00000000000000000000000000000000000000000000000000000000081526004016103d49190615a4f565b60405180910390fd5b50825160086000838152602001908152602001600020600b0154146040518060800160405280604d8152602001616f0b604d913990610452576040517f08c379a00000000000000000000000000000000000000000000000000000000081526004016104499190615a4f565b60405180910390fd5b506000805b84518110156109e85761049e85828151811061047657610475615aa0565b5b602002602001015160028151811061049157610490615aa0565b5b6020026020010151613aed565b60086000858152602001908152602001600020600a01600083815260200190815260200160002060000160020160006101000a81548173ffffffffffffffffffffffffffffffffffffffff021916908373ffffffffffffffffffffffffffffffffffffffff16021790555084818151811061051c5761051b615aa0565b5b602002602001015160038151811061053757610536615aa0565b5b602002602001015160086000858152602001908152602001600020600a016000838152602001908152602001600020600601908051906020019061057c929190614b2d565b50600080600260009054906101000a900473ffffffffffffffffffffffffffffffffffffffff1673ffffffffffffffffffffffffffffffffffffffff1663f9c2af868885815181106105d1576105d0615aa0565b5b60200260200101516000815181106105ec576105eb615aa0565b5b60200260200101516106328a878151811061060a57610609615aa0565b5b602002602001015160018151811061062557610624615aa0565b5b6020026020010151613dbb565b6040518363ffffffff1660e01b815260040161064f929190615acf565b60006040518083038186803b15801561066757600080fd5b505afa15801561067b573d6000803e3d6000fd5b505050506040513d6000823e3d601f19601f820116820180604052508101906106a49190615b84565b915091506106b182613fb9565b156040518060400160405280601181526020017f436f6e747261637420697320656d70747900000000000000000000000000000081525090610729576040517f08c379a00000000000000000000000000000000000000000000000000000000081526004016107209190615a4f565b60405180910390fd5b5061073381613ff1565b156040518060400160405280601181526020017f46756e6374696f6e20697320656d707479000000000000000000000000000000815250906107ab576040517f08c379a00000000000000000000000000000000000000000000000000000000081526004016107a29190615a4f565b60405180910390fd5b506107ea8784815181106107c2576107c1615aa0565b5b60200260200101516003815181106107dd576107dc615aa0565b5b6020026020010151613ff1565b6109d35760008273ffffffffffffffffffffffffffffffffffffffff168289868151811061081b5761081a615aa0565b5b602002602001015160028151811061083657610835615aa0565b5b60200260200101518a878151811061085157610850615aa0565b5b602002602001015160038151811061086c5761086b615aa0565b5b6020026020010151604051602401610885929190615be0565b604051602081830303815290604052906040516108a29190615c17565b60405180910390207bffffffffffffffffffffffffffffffffffffffffffffffffffffffff19166020820180517bffffffffffffffffffffffffffffffffffffffffffffffffffffffff83818316178352505050506040516109049190615c75565b6000604051808303816000865af19150503d8060008114610941576040519150601f19603f3d011682016040523d82523d6000602084013e610946565b606091505b50509050806040518060400160405280601881526020017f5072696d61727920747820766572696679206661696c65640000000000000000815250906109c2576040517f08c379a00000000000000000000000000000000000000000000000000000000081526004016109b99190615a4f565b60405180910390fd5b5084806109ce90615cbb565b955050505b505080806109e090615cbb565b915050610457565b5060086000838152602001908152602001600020600b0154811415610a4b5760016007600084815260200190815260200160002060060160006101000a81548160ff02191690836002811115610a4157610a40615a71565b5b0217905550610a8b565b60026007600084815260200190815260200160002060060160006101000a81548160ff02191690836002811115610a8557610a84615a71565b5b02179055505b6000600460009054906101000a900473ffffffffffffffffffffffffffffffffffffffff1673ffffffffffffffffffffffffffffffffffffffff1663b5081f2d846040518263ffffffff1660e01b8152600401610ae89190615d1d565b60206040518083038186803b158015610b0057600080fd5b505afa158015610b14573d6000803e3d6000fd5b505050506040513d601f19601f82011682018060405250810190610b389190615d4d565b1115610ff25760005b600460009054906101000a900473ffffffffffffffffffffffffffffffffffffffff1673ffffffffffffffffffffffffffffffffffffffff1663b5081f2d846040518263ffffffff1660e01b8152600401610b9c9190615d1d565b60206040518083038186803b158015610bb457600080fd5b505afa158015610bc8573d6000803e3d6000fd5b505050506040513d601f19601f82011682018060405250810190610bec9190615d4d565b811015610ff0576000610cce600460009054906101000a900473ffffffffffffffffffffffffffffffffffffffff1673ffffffffffffffffffffffffffffffffffffffff1663179d9f6d86856040518363ffffffff1660e01b8152600401610c55929190615d7a565b60006040518083038186803b158015610c6d57600080fd5b505afa158015610c81573d6000803e3d6000fd5b505050506040513d6000823e3d601f19601f82011682018060405250810190610caa9190615da3565b604051602001610cba9190615c17565b604051602081830303815290604052613adc565b90506000806000600460009054906101000a900473ffffffffffffffffffffffffffffffffffffffff1673ffffffffffffffffffffffffffffffffffffffff1663ed5e8437856040518263ffffffff1660e01b8152600401610d309190615d1d565b60006040518083038186803b158015610d4857600080fd5b505afa158015610d5c573d6000803e3d6000fd5b505050506040513d6000823e3d601f19601f82011682018060405250810190610d859190615f9b565b93509350935050806040518060400160405280600781526020017f4e6f204c6f636b0000000000000000000000000000000000000000000000000081525090610e04576040517f08c379a0000000000000000000000000000000000000000000000000000000008152600401610dfb9190615a4f565b60405180910390fd5b5060016002811115610e1957610e18615a71565b5b6007600089815260200190815260200160002060060160009054906101000a900460ff166002811115610e4f57610e4e615a71565b5b1415610ef157600460009054906101000a900473ffffffffffffffffffffffffffffffffffffffff1673ffffffffffffffffffffffffffffffffffffffff16635732a36185610e9d85614047565b6040518363ffffffff1660e01b8152600401610eba929190616202565b600060405180830381600087803b158015610ed457600080fd5b505af1158015610ee8573d6000803e3d6000fd5b50505050610fd9565b600280811115610f0457610f03615a71565b5b6007600089815260200190815260200160002060060160009054906101000a900460ff166002811115610f3a57610f39615a71565b5b1415610fd857600460009054906101000a900473ffffffffffffffffffffffffffffffffffffffff1673ffffffffffffffffffffffffffffffffffffffff16635732a36185610f8886614047565b6040518363ffffffff1660e01b8152600401610fa5929190616202565b600060405180830381600087803b158015610fbf57600080fd5b505af1158015610fd3573d6000803e3d6000fd5b505050505b5b505050508080610fe890615cbb565b915050610b41565b505b60005b60086000848152602001908152602001600020600b015481101561165e5761101b614bb3565b611023614be0565b604051806040016040528060086000888152602001908152602001600020600a016000868152602001908152602001600020600001600001600001805461106990616261565b80601f016020809104026020016040519081016040528092919081815260200182805461109590616261565b80156110e25780601f106110b7576101008083540402835291602001916110e2565b820191906000526020600020905b8154815290600101906020018083116110c557829003601f168201915b5050505050815260200160086000888152602001908152602001600020600a016000868152602001908152602001600020600001600001600101548152508160000181905250808260000181905250611139614c16565b60086000878152602001908152602001600020600a01600085815260200190815260200160002060030160000160009054906101000a900473ffffffffffffffffffffffffffffffffffffffff16816000019073ffffffffffffffffffffffffffffffffffffffff16908173ffffffffffffffffffffffffffffffffffffffff168152505060086000878152602001908152602001600020600a01600085815260200190815260200160002060030160010180546111f690616261565b80601f016020809104026020016040519081016040528092919081815260200182805461122290616261565b801561126f5780601f106112445761010080835404028352916020019161126f565b820191906000526020600020905b81548152906001019060200180831161125257829003601f168201915b50505050508160200181905250600567ffffffffffffffff811115611297576112966150ca565b5b6040519080825280602002602001820160405280156112ca57816020015b60608152602001906001900390816112b55790505b50816040018190525061134860086000888152602001908152602001600020600a01600086815260200190815260200160002060000160020160009054906101000a900473ffffffffffffffffffffffffffffffffffffffff166040516020016113349190616293565b604051602081830303815290604052614667565b81604001516000815181106113605761135f615aa0565b5b60200260200101819052506113c86007600088815260200190815260200160002060060160009054906101000a900460ff1660028111156113a4576113a3615a71565b5b6040516020016113b491906162ae565b604051602081830303815290604052614667565b81604001516001815181106113e0576113df615aa0565b5b602002602001018190525086816040015160028151811061140457611403615aa0565b5b60200260200101819052506114374660405160200161142391906162ae565b604051602081830303815290604052614667565b816040015160038151811061144f5761144e615aa0565b5b60200260200101819052506114823360405160200161146e9190616293565b604051602081830303815290604052614667565b816040015160048151811061149a57611499615aa0565b5b60200260200101819052508083602001819052508260086000888152602001908152602001600020600c016000600860008a8152602001908152602001600020600d01548152602001908152602001600020600082015181600001600082015181600001600082015181600001908051906020019061151a929190614b2d565b5060208201518160010155505060208201518160020160006101000a81548173ffffffffffffffffffffffffffffffffffffffff021916908373ffffffffffffffffffffffffffffffffffffffff160217905550505060208201518160030160008201518160000160006101000a81548173ffffffffffffffffffffffffffffffffffffffff021916908373ffffffffffffffffffffffffffffffffffffffff16021790555060208201518160010190805190602001906115dc929190614b2d565b5060408201518160020190805190602001906115f9929190614c4d565b5050506040820151816006019080519060200190611618929190614b2d565b5090505060086000878152602001908152602001600020600d01600081548092919061164390615cbb565b9190505550505050808061165690615cbb565b915050610ff5565b5061166a826000614671565b7f171c9332e85593b9115f9eecd2bf8a7317c4d2950df4cfc988aa60fb5ca77749604051806040016040528060405180604001604052808781526020014681525081526020013373ffffffffffffffffffffffffffffffffffffffff1681525060066040516116da9291906166e3565b60405180910390a1600660006116f09190614cad565b5050505050565b600061170161392a565b90506000604051806040016040528060405180604001604052808b81526020018a81525081526020018773ffffffffffffffffffffffffffffffffffffffff168152509050600060405180606001604052808773ffffffffffffffffffffffffffffffffffffffff168152602001868152602001600167ffffffffffffffff8111156117905761178f6150ca565b5b6040519080825280602002602001820160405280156117c357816020015b60608152602001906001900390816117ae5790505b508152509050866040516020016117da9190616293565b604051602081830303815290604052816040015160008151811061180157611800615aa0565b5b602002602001018190525060006118716040518060400160405280600a81526020017f534944455f4d4553485f0000000000000000000000000000000000000000000081525085463360405160200161185d94939291906159bf565b604051602081830303815290604052613adc565b90506000600460009054906101000a900473ffffffffffffffffffffffffffffffffffffffff1673ffffffffffffffffffffffffffffffffffffffff1663e817aaa5836040518263ffffffff1660e01b81526004016118d09190615d1d565b60206040518083038186803b1580156118e857600080fd5b505afa1580156118fc573d6000803e3d6000fd5b505050506040513d601f19601f820116820180604052508101906119209190615d4d565b1115611b305760005b600460009054906101000a900473ffffffffffffffffffffffffffffffffffffffff1673ffffffffffffffffffffffffffffffffffffffff1663e817aaa5836040518263ffffffff1660e01b81526004016119849190615d1d565b60206040518083038186803b15801561199c57600080fd5b505afa1580156119b0573d6000803e3d6000fd5b505050506040513d601f19601f820116820180604052508101906119d49190615d4d565b811015611b2e57600460009054906101000a900473ffffffffffffffffffffffffffffffffffffffff1673ffffffffffffffffffffffffffffffffffffffff1663ba70311e83600460009054906101000a900473ffffffffffffffffffffffffffffffffffffffff1673ffffffffffffffffffffffffffffffffffffffff1663b8e73e0a86866040518363ffffffff1660e01b8152600401611a77929190615d7a565b60006040518083038186803b158015611a8f57600080fd5b505afa158015611aa3573d6000803e3d6000fd5b505050506040513d6000823e3d601f19601f82011682018060405250810190611acc9190615da3565b6040518363ffffffff1660e01b8152600401611ae992919061671a565b600060405180830381600087803b158015611b0357600080fd5b505af1158015611b17573d6000803e3d6000fd5b505050508080611b2690615cbb565b915050611929565b505b611b38614c16565b858160200181905250600167ffffffffffffffff811115611b5c57611b5b6150ca565b5b604051908082528060200260200182016040528015611b8f57816020015b6060815260200190600190039081611b7a5790505b508160400181905250611bc033604051602001611bac9190616293565b604051602081830303815290604052614667565b8160400151600081518110611bd857611bd7615aa0565b5b6020026020010181905250611beb614bb3565b604051806040016040528060405180604001604052808981526020014681525081526020013373ffffffffffffffffffffffffffffffffffffffff1681525081600001819052508181602001819052507fbca3655a364f084c5bf278eace9ff0700996e453132a72b1bf93003a7ede0d36858583604051611c6e93929190616907565b60405180910390a1505050505050505050505050565b600080600260009054906101000a900473ffffffffffffffffffffffffffffffffffffffff1673ffffffffffffffffffffffffffffffffffffffff1663f9c2af8687876040518363ffffffff1660e01b8152600401611ce4929190615acf565b60006040518083038186803b158015611cfc57600080fd5b505afa158015611d10573d6000803e3d6000fd5b505050506040513d6000823e3d601f19601f82011682018060405250810190611d399190615b84565b91509150611d4682613fb9565b156040518060400160405280601181526020017f436f6e747261637420697320656d70747900000000000000000000000000000081525090611dbe576040517f08c379a0000000000000000000000000000000000000000000000000000000008152600401611db59190615a4f565b60405180910390fd5b50611dc881613ff1565b156040518060400160405280601181526020017f46756e6374696f6e20697320656d70747900000000000000000000000000000081525090611e40576040517f08c379a0000000000000000000000000000000000000000000000000000000008152600401611e379190615a4f565b60405180910390fd5b50611e4a83613ff1565b15604051806060016040528060258152602001616f9f6025913990611ea5576040517f08c379a0000000000000000000000000000000000000000000000000000000008152600401611e9c9190615a4f565b60405180910390fd5b5060008273ffffffffffffffffffffffffffffffffffffffff16828686604051602401611ed3929190616962565b60405160208183030381529060405290604051611ef09190615c17565b60405180910390207bffffffffffffffffffffffffffffffffffffffffffffffffffffffff19166020820180517bffffffffffffffffffffffffffffffffffffffffffffffffffffffff8381831617835250505050604051611f529190615c75565b6000604051808303816000865af19150503d8060008114611f8f576040519150601f19603f3d011682016040523d82523d6000602084013e611f94565b606091505b50509050806040518060400160405280602081526020017f5072696d61727920636f6e6669726d20747820766572696679206661696c656481525090612010576040517f08c379a00000000000000000000000000000000000000000000000000000000081526004016120079190615a4f565b60405180910390fd5b50600061201b61392a565b905060006120826040518060400160405280600a81526020017f534944455f4d4553485f0000000000000000000000000000000000000000000081525083468e60405160200161206e94939291906159bf565b604051602081830303815290604052613adc565b90506000600460009054906101000a900473ffffffffffffffffffffffffffffffffffffffff1673ffffffffffffffffffffffffffffffffffffffff1663b5081f2d836040518263ffffffff1660e01b81526004016120e19190615d1d565b60206040518083038186803b1580156120f957600080fd5b505afa15801561210d573d6000803e3d6000fd5b505050506040513d601f19601f820116820180604052508101906121319190615d4d565b11156125815760005b600460009054906101000a900473ffffffffffffffffffffffffffffffffffffffff1673ffffffffffffffffffffffffffffffffffffffff1663b5081f2d836040518263ffffffff1660e01b81526004016121959190615d1d565b60206040518083038186803b1580156121ad57600080fd5b505afa1580156121c1573d6000803e3d6000fd5b505050506040513d601f19601f820116820180604052508101906121e59190615d4d565b81101561257f5760006122c7600460009054906101000a900473ffffffffffffffffffffffffffffffffffffffff1673ffffffffffffffffffffffffffffffffffffffff1663179d9f6d85856040518363ffffffff1660e01b815260040161224e929190615d7a565b60006040518083038186803b15801561226657600080fd5b505afa15801561227a573d6000803e3d6000fd5b505050506040513d6000823e3d601f19601f820116820180604052508101906122a39190615da3565b6040516020016122b39190615c17565b604051602081830303815290604052613adc565b90506000806000600460009054906101000a900473ffffffffffffffffffffffffffffffffffffffff1673ffffffffffffffffffffffffffffffffffffffff1663ed5e8437856040518263ffffffff1660e01b81526004016123299190615d1d565b60006040518083038186803b15801561234157600080fd5b505afa158015612355573d6000803e3d6000fd5b505050506040513d6000823e3d601f19601f8201168201806040525081019061237e9190615f9b565b93509350935050806040518060400160405280600781526020017f4e6f204c6f636b00000000000000000000000000000000000000000000000000815250906123fd576040517f08c379a00000000000000000000000000000000000000000000000000000000081526004016123f49190615a4f565b60405180910390fd5b506001600281111561241257612411615a71565b5b8f14156124b557600460009054906101000a900473ffffffffffffffffffffffffffffffffffffffff1673ffffffffffffffffffffffffffffffffffffffff16635732a3618561246185614047565b6040518363ffffffff1660e01b815260040161247e929190616202565b600060405180830381600087803b15801561249857600080fd5b505af11580156124ac573d6000803e3d6000fd5b50505050612568565b6002808111156124c8576124c7615a71565b5b8f141561256757600460009054906101000a900473ffffffffffffffffffffffffffffffffffffffff1673ffffffffffffffffffffffffffffffffffffffff16635732a3618561251786614047565b6040518363ffffffff1660e01b8152600401612534929190616202565b600060405180830381600087803b15801561254e57600080fd5b505af1158015612562573d6000803e3d6000fd5b505050505b5b50505050808061257790615cbb565b91505061213a565b505b5050505050505050505050565b80600190805190602001906125a4929190614b2d565b5050565b60006125b261392a565b905060006126196040518060400160405280600a81526020017f534944455f4d4553485f0000000000000000000000000000000000000000000081525083463360405160200161260594939291906159bf565b604051602081830303815290604052613adc565b9050612623614bb3565b604051806040016040528060405180604001604052808b81526020018a81525081526020013373ffffffffffffffffffffffffffffffffffffffff16815250816000018190525060405180606001604052808773ffffffffffffffffffffffffffffffffffffffff1681526020018681526020018581525081602001819052508060086000848152602001908152602001600020600a01600060086000868152602001908152602001600020600b01548152602001908152602001600020600082015181600001600082015181600001600082015181600001908051906020019061270f929190614b2d565b5060208201518160010155505060208201518160020160006101000a81548173ffffffffffffffffffffffffffffffffffffffff021916908373ffffffffffffffffffffffffffffffffffffffff160217905550505060208201518160030160008201518160000160006101000a81548173ffffffffffffffffffffffffffffffffffffffff021916908373ffffffffffffffffffffffffffffffffffffffff16021790555060208201518160010190805190602001906127d1929190614b2d565b5060408201518160020190805190602001906127ee929190614c4d565b505050604082015181600601908051906020019061280d929190614b2d565b5090505060086000838152602001908152602001600020600b01600081548092919061283890615cbb565b91905055505050505050505050565b600061285161392a565b905060006128b86040518060400160405280600a81526020017f534944455f4d4553485f000000000000000000000000000000000000000000008152508346336040516020016128a494939291906159bf565b604051602081830303815290604052613adc565b90506128c2614c16565b838160200181905250600167ffffffffffffffff8111156128e6576128e56150ca565b5b60405190808252806020026020018201604052801561291957816020015b60608152602001906001900390816129045790505b50816040018190525061294a336040516020016129369190616293565b604051602081830303815290604052614667565b816040015160008151811061296257612961615aa0565b5b6020026020010181905250612975614bb3565b604051806040016040528060405180604001604052808781526020014681525081526020013373ffffffffffffffffffffffffffffffffffffffff16815250816000018190525081816020018190525080600860008581526020019081526020016000206003016000820151816000016000820151816000016000820151816000019080519060200190612a0a929190614b2d565b5060208201518160010155505060208201518160020160006101000a81548173ffffffffffffffffffffffffffffffffffffffff021916908373ffffffffffffffffffffffffffffffffffffffff160217905550505060208201518160030160008201518160000160006101000a81548173ffffffffffffffffffffffffffffffffffffffff021916908373ffffffffffffffffffffffffffffffffffffffff1602179055506020820151816001019080519060200190612acc929190614b2d565b506040820151816002019080519060200190612ae9929190614c4d565b5050506040820151816006019080519060200190612b08929190614b2d565b50905050612b14614cd1565b6008600085815260200190815260200160002060000160405180604001604052908160008201604051806040016040529081600082018054612b5590616261565b80601f0160208091040260200160405190810160405280929190818152602001828054612b8190616261565b8015612bce5780601f10612ba357610100808354040283529160200191612bce565b820191906000526020600020905b815481529060010190602001808311612bb157829003601f168201915b5050505050815260200160018201548152505081526020016002820160009054906101000a900473ffffffffffffffffffffffffffffffffffffffff1673ffffffffffffffffffffffffffffffffffffffff1673ffffffffffffffffffffffffffffffffffffffff16815250508160000181905250600081604001906002811115612c5c57612c5b615a71565b5b90816002811115612c7057612c6f615a71565b5b81525050600181606001901515908115158152505080600760008681526020019081526020016000206000820151816000016000820151816000016000820151816000019080519060200190612cc7929190614b2d565b5060208201518160010155505060208201518160020160006101000a81548173ffffffffffffffffffffffffffffffffffffffff021916908373ffffffffffffffffffffffffffffffffffffffff16021790555050506020820151816003016000820151816000016000820151816000019080519060200190612d4b929190614b2d565b5060208201518160010155505060208201518160020160006101000a81548173ffffffffffffffffffffffffffffffffffffffff021916908373ffffffffffffffffffffffffffffffffffffffff160217905550505060408201518160060160006101000a81548160ff02191690836002811115612dcc57612dcb615a71565b5b021790555060608201518160060160016101000a81548160ff0219169083151502179055509050506000600460009054906101000a900473ffffffffffffffffffffffffffffffffffffffff1673ffffffffffffffffffffffffffffffffffffffff1663e817aaa5866040518263ffffffff1660e01b8152600401612e519190615d1d565b60206040518083038186803b158015612e6957600080fd5b505afa158015612e7d573d6000803e3d6000fd5b505050506040513d601f19601f82011682018060405250810190612ea19190615d4d565b11156130b15760005b600460009054906101000a900473ffffffffffffffffffffffffffffffffffffffff1673ffffffffffffffffffffffffffffffffffffffff1663e817aaa5866040518263ffffffff1660e01b8152600401612f059190615d1d565b60206040518083038186803b158015612f1d57600080fd5b505afa158015612f31573d6000803e3d6000fd5b505050506040513d601f19601f82011682018060405250810190612f559190615d4d565b8110156130af57600460009054906101000a900473ffffffffffffffffffffffffffffffffffffffff1673ffffffffffffffffffffffffffffffffffffffff1663ba70311e86600460009054906101000a900473ffffffffffffffffffffffffffffffffffffffff1673ffffffffffffffffffffffffffffffffffffffff1663b8e73e0a89866040518363ffffffff1660e01b8152600401612ff8929190615d7a565b60006040518083038186803b15801561301057600080fd5b505afa158015613024573d6000803e3d6000fd5b505050506040513d6000823e3d601f19601f8201168201806040525081019061304d9190615da3565b6040518363ffffffff1660e01b815260040161306a92919061671a565b600060405180830381600087803b15801561308457600080fd5b505af1158015613098573d6000803e3d6000fd5b5050505080806130a790615cbb565b915050612eaa565b505b6130b9614c16565b6040518060400160405280601381526020017f5175657279476c6f62616c5478537461747573000000000000000000000000008152508160200181905250613102856001614671565b61310d856000614671565b7f9d92c3de0c93746be18eab45d72a078bcdc93dfc71a5f6efdda54ee66957135f60086000878152602001908152602001600020600001600860008881526020019081526020016000206003018360056006604051613170959493929190616a38565b60405180910390a1600560006131869190614cad565b600660006131949190614cad565b50505050505050565b6000806000806132066040518060400160405280600a81526020017f534944455f4d4553485f000000000000000000000000000000000000000000008152508888886040516020016131f294939291906159bf565b604051602081830303815290604052613adc565b90506007600082815260200190815260200160002060060160019054906101000a900460ff16604051806060016040528060238152602001616f586023913990613286576040517f08c379a000000000000000000000000000000000000000000000000000000000815260040161327d9190615a4f565b60405180910390fd5b506007600082815260200190815260200160002060060160019054906101000a900460ff166007600083815260200190815260200160002060060160009054906101000a900460ff1660028111156132e1576132e0615a71565b5b60086000848152602001908152602001600020600f01549350935093505093509350939050565b806040518060400160405280601581526020017f4e656564207072696d6172792074782070726f6f6600000000000000000000008152506133588260405180602001604052806000815250614a6d565b15819061339b576040517f08c379a00000000000000000000000000000000000000000000000000000000081526004016133929190615a4f565b60405180910390fd5b50600080600260009054906101000a900473ffffffffffffffffffffffffffffffffffffffff1673ffffffffffffffffffffffffffffffffffffffff1663f9c2af8689896040518363ffffffff1660e01b81526004016133fc929190615acf565b60006040518083038186803b15801561341457600080fd5b505afa158015613428573d6000803e3d6000fd5b505050506040513d6000823e3d601f19601f820116820180604052508101906134519190615b84565b9150915061345e82613fb9565b156040518060400160405280601181526020017f436f6e747261637420697320656d707479000000000000000000000000000000815250906134d6576040517f08c379a00000000000000000000000000000000000000000000000000000000081526004016134cd9190615a4f565b60405180910390fd5b506134e081613ff1565b156040518060400160405280601181526020017f46756e6374696f6e20697320656d70747900000000000000000000000000000081525090613558576040517f08c379a000000000000000000000000000000000000000000000000000000000815260040161354f9190615a4f565b60405180910390fd5b5060008273ffffffffffffffffffffffffffffffffffffffff16828888604051602401613586929190615be0565b604051602081830303815290604052906040516135a39190615c17565b60405180910390207bffffffffffffffffffffffffffffffffffffffffffffffffffffffff19166020820180517bffffffffffffffffffffffffffffffffffffffffffffffffffffffff83818316178352505050506040516136059190615c75565b6000604051808303816000865af19150503d8060008114613642576040519150601f19603f3d011682016040523d82523d6000602084013e613647565b606091505b50509050806040518060400160405280601881526020017f5072696d61727920747820766572696679206661696c65640000000000000000815250906136c3576040517f08c379a00000000000000000000000000000000000000000000000000000000081526004016136ba9190615a4f565b60405180910390fd5b50505050505050505050565b81604051806060016040528060248152602001616f7b6024913960008210158190613730576040517f08c379a00000000000000000000000000000000000000000000000000000000081526004016137279190615a4f565b60405180910390fd5b5082604051806060016040528060228152602001616ff06022913960008214158190613792576040517f08c379a00000000000000000000000000000000000000000000000000000000081526004016137899190615a4f565b60405180910390fd5b50600061379d61392a565b905060006138046040518060400160405280600a81526020017f534944455f4d4553485f000000000000000000000000000000000000000000008152508346336040516020016137f094939291906159bf565b604051602081830303815290604052613adc565b90506000600860008381526020019081526020016000209050604051806040016040528060405180604001604052808681526020014681525081526020013373ffffffffffffffffffffffffffffffffffffffff16815250816000016000820151816000016000820151816000019080519060200190613885929190614b2d565b5060208201518160010155505060208201518160020160006101000a81548173ffffffffffffffffffffffffffffffffffffffff021916908373ffffffffffffffffffffffffffffffffffffffff160217905550905050600081600b0181905550600081600d01819055508881600e01819055508781600f018190555060018160100160006101000a81548160ff021916908315150217905550505050505050505050565b60606001805461393990616261565b80601f016020809104026020016040519081016040528092919081815260200182805461396590616261565b80156139b25780601f10613987576101008083540402835291602001916139b2565b820191906000526020600020905b81548152906001019060200180831161399557829003601f168201915b50505050506040518060400160405280601081526020017f4e6574776f726b20697320656d70747900000000000000000000000000000000815250613a068260405180602001604052806000815250614a6d565b158190613a49576040517f08c379a0000000000000000000000000000000000000000000000000000000008152600401613a409190615a4f565b60405180910390fd5b5060018054613a5790616261565b80601f0160208091040260200160405190810160405280929190818152602001828054613a8390616261565b8015613ad05780601f10613aa557610100808354040283529160200191613ad0565b820191906000526020600020905b815481529060010190602001808311613ab357829003601f168201915b50505050509250505090565b600081805190602001209050919050565b600080829050600080806000600290505b602a811015613dae5761010084613b159190616aae565b9350848181518110613b2a57613b29615aa0565b5b602001015160f81c60f81b60f81c60ff16925084600182613b4b9190616afc565b81518110613b5c57613b5b615aa0565b5b602001015160f81c60f81b60f81c60ff16915060618373ffffffffffffffffffffffffffffffffffffffff1610158015613bad575060668373ffffffffffffffffffffffffffffffffffffffff1611155b15613bc657605783613bbf9190616b52565b9250613c72565b60418373ffffffffffffffffffffffffffffffffffffffff1610158015613c04575060468373ffffffffffffffffffffffffffffffffffffffff1611155b15613c1d57603783613c169190616b52565b9250613c71565b60308373ffffffffffffffffffffffffffffffffffffffff1610158015613c5b575060398373ffffffffffffffffffffffffffffffffffffffff1611155b15613c7057603083613c6d9190616b52565b92505b5b5b60618273ffffffffffffffffffffffffffffffffffffffff1610158015613cb0575060668273ffffffffffffffffffffffffffffffffffffffff1611155b15613cc957605782613cc29190616b52565b9150613d75565b60418273ffffffffffffffffffffffffffffffffffffffff1610158015613d07575060468273ffffffffffffffffffffffffffffffffffffffff1611155b15613d2057603782613d199190616b52565b9150613d74565b60308273ffffffffffffffffffffffffffffffffffffffff1610158015613d5e575060398273ffffffffffffffffffffffffffffffffffffffff1611155b15613d7357603082613d709190616b52565b91505b5b5b81601084613d839190616aae565b613d8d9190616b86565b84613d989190616b86565b9350600281613da79190616afc565b9050613afe565b5082945050505050919050565b600080829050600080600080600090506000855190508080613ddc90616bd0565b91505060008095505b8651861015613e97576000878781518110613e0357613e02615aa0565b5b602001015160f81c60f81b60f81c60ff16905060308110158015613e28575060398111155b15613e7057603081613e3a9190616bfa565b600a85613e479190616c2e565b613e519190616afc565b93508580613e5e90615cbb565b9650508280613e6c90616bd0565b9350505b602e811415613e83576001915050613e97565b508580613e8f90615cbb565b965050613de5565b8015613f5f576000600186613eac9190616afc565b90505b6012811015613f5d576000888281518110613ecd57613ecc615aa0565b5b602001015160f81c60f81b60f81c60ff16905060308110158015613ef2575060398111155b15613f3a57603081613f049190616bfa565b600a86613f119190616c2e565b613f1b9190616afc565b94508580613f2890615cbb565b9650508380613f3690616bd0565b9450505b6000841415613f495750613f5d565b508080613f5590615cbb565b915050613eaf565b505b6012841015613fa9576000846012613f779190616bfa565b9050600081600a613f889190616dbb565b90508085613f969190616c2e565b9450849950505050505050505050613fb4565b829750505050505050505b919050565b60008173ffffffffffffffffffffffffffffffffffffffff168273ffffffffffffffffffffffffffffffffffffffff16149050919050565b600060405160200161400290616e2c565b60405160208183030381529060405280519060200120826040516020016140299190615c17565b60405160208183030381529060405280519060200120149050919050565b61404f614d19565b614057614d19565b61405f614be0565b614067614d49565b6000805b865181101561465a576140d16040518060400160405280600181526020017f3a000000000000000000000000000000000000000000000000000000000000008152506040516020016140bd9190615c17565b604051602081830303815290604052613adc565b6141168883815181106140e7576140e6615aa0565b5b602001015160f81c60f81b6040516020016141029190616e8e565b604051602081830303815290604052613adc565b14156145845760008214156141c1576141b86000805461413590616261565b80601f016020809104026020016040519081016040528092919081815260200182805461416190616261565b80156141ae5780601f10614183576101008083540402835291602001916141ae565b820191906000526020600020905b81548152906001019060200180831161419157829003601f168201915b5050505050614667565b83600001819052505b600182141561427857614265614260600080546141dd90616261565b80601f016020809104026020016040519081016040528092919081815260200182805461420990616261565b80156142565780601f1061422b57610100808354040283529160200191614256565b820191906000526020600020905b81548152906001019060200180831161423957829003601f168201915b5050505050614667565b613dbb565b8360200181815250508284600001819052505b600282141561435d5761431c6143176000805461429490616261565b80601f01602080910402602001604051908101604052809291908181526020018280546142c090616261565b801561430d5780601f106142e25761010080835404028352916020019161430d565b820191906000526020600020905b8154815290600101906020018083116142f057829003601f168201915b5050505050614667565b613aed565b846020019073ffffffffffffffffffffffffffffffffffffffff16908173ffffffffffffffffffffffffffffffffffffffff16815250508385600001819052505b60038214156143fa576000805461437390616261565b80601f016020809104026020016040519081016040528092919081815260200182805461439f90616261565b80156143ec5780601f106143c1576101008083540402835291602001916143ec565b820191906000526020600020905b8154815290600101906020018083116143cf57829003601f168201915b505050505085602001819052505b6004821415614497576000805461441090616261565b80601f016020809104026020016040519081016040528092919081815260200182805461443c90616261565b80156144895780601f1061445e57610100808354040283529160200191614489565b820191906000526020600020905b81548152906001019060200180831161446c57829003601f168201915b505050505085604001819052505b600582141561454b5761453b614536600080546144b390616261565b80601f01602080910402602001604051908101604052809291908181526020018280546144df90616261565b801561452c5780601f106145015761010080835404028352916020019161452c565b820191906000526020600020905b81548152906001019060200180831161450f57829003601f168201915b5050505050614667565b614ac6565b8560600190151590811515815250505b6040518060200160405280600081525060009080519060200190614570929190614d63565b50818061457c90615cbb565b925050614647565b600087828151811061459957614598615aa0565b5b602001015160f81c60f81b90808054806145b290616261565b80601f81146145c0576145d6565b83600052602060002060ff1984168155603f9350505b506002820183556001810192505050600190038154600116156146085790600052602060002090602091828204019190065b909190919091601f036101000a81548160ff021916907f0100000000000000000000000000000000000000000000000000000000000000840402179055505b808061465290615cbb565b91505061406b565b5083945050505050919050565b6060819050919050565b80156148725760005b60086000848152602001908152602001600020600b015481101561486c57600560086000858152602001908152602001600020600a016000838152602001908152602001600020908060018154018082558091505060019003906000526020600020906007020160009091909190915060008201816000016000820181600001600082018160000190805461470e90616261565b614719929190614de9565b506001820154816001015550506002820160009054906101000a900473ffffffffffffffffffffffffffffffffffffffff168160020160006101000a81548173ffffffffffffffffffffffffffffffffffffffff021916908373ffffffffffffffffffffffffffffffffffffffff160217905550505060038201816003016000820160009054906101000a900473ffffffffffffffffffffffffffffffffffffffff168160000160006101000a81548173ffffffffffffffffffffffffffffffffffffffff021916908373ffffffffffffffffffffffffffffffffffffffff160217905550600182018160010190805461481290616261565b61481d929190614de9565b506002820181600201908054614834929190614e76565b505050600682018160060190805461484b90616261565b614856929190614de9565b505050808061486490615cbb565b91505061467a565b50614a69565b60005b60086000848152602001908152602001600020600d0154811015614a6757600660086000858152602001908152602001600020600c016000838152602001908152602001600020908060018154018082558091505060019003906000526020600020906007020160009091909190915060008201816000016000820181600001600082018160000190805461490990616261565b614914929190614de9565b506001820154816001015550506002820160009054906101000a900473ffffffffffffffffffffffffffffffffffffffff168160020160006101000a81548173ffffffffffffffffffffffffffffffffffffffff021916908373ffffffffffffffffffffffffffffffffffffffff160217905550505060038201816003016000820160009054906101000a900473ffffffffffffffffffffffffffffffffffffffff168160000160006101000a81548173ffffffffffffffffffffffffffffffffffffffff021916908373ffffffffffffffffffffffffffffffffffffffff1602179055506001820181600101908054614a0d90616261565b614a18929190614de9565b506002820181600201908054614a2f929190614e76565b5050506006820181600601908054614a4690616261565b614a51929190614de9565b5050508080614a5f90615cbb565b915050614875565b505b5050565b600081604051602001614a809190615c17565b6040516020818303038152906040528051906020012083604051602001614aa79190615c17565b6040516020818303038152906040528051906020012014905092915050565b6000604051602001614ad790616ef5565b6040516020818303038152906040528051906020012082604051602001614afe9190615c17565b604051602081830303815290604052805190602001201415614b235760019050614b28565b600090505b919050565b828054614b3990616261565b90600052602060002090601f016020900481019282614b5b5760008555614ba2565b82601f10614b7457805160ff1916838001178555614ba2565b82800160010185558215614ba2579182015b82811115614ba1578251825591602001919060010190614b86565b5b509050614baf9190614ede565b5090565b6040518060600160405280614bc6614be0565b8152602001614bd3614c16565b8152602001606081525090565b6040518060400160405280614bf3614d49565b8152602001600073ffffffffffffffffffffffffffffffffffffffff1681525090565b6040518060600160405280600073ffffffffffffffffffffffffffffffffffffffff16815260200160608152602001606081525090565b828054828255906000526020600020908101928215614c9c579160200282015b82811115614c9b578251829080519060200190614c8b929190614b2d565b5091602001919060010190614c6d565b5b509050614ca99190614efb565b5090565b5080546000825560070290600052602060002090810190614cce9190614f1f565b50565b6040518060800160405280614ce4614be0565b8152602001614cf1614be0565b815260200160006002811115614d0a57614d09615a71565b5b81526020016000151581525090565b6040518060800160405280614d2c614be0565b815260200160608152602001606081526020016000151581525090565b604051806040016040528060608152602001600081525090565b828054614d6f90616261565b90600052602060002090601f016020900481019282614d915760008555614dd8565b82601f10614daa57805160ff1916838001178555614dd8565b82800160010185558215614dd8579182015b82811115614dd7578251825591602001919060010190614dbc565b5b509050614de59190614ede565b5090565b828054614df590616261565b90600052602060002090601f016020900481019282614e175760008555614e65565b82601f10614e285780548555614e65565b82800160010185558215614e6557600052602060002091601f016020900482015b82811115614e64578254825591600101919060010190614e49565b5b509050614e729190614ede565b5090565b828054828255906000526020600020908101928215614ecd5760005260206000209182015b82811115614ecc578282908054614eb190616261565b614ebc929190614de9565b5091600101919060010190614e9b565b5b509050614eda9190614efb565b5090565b5b80821115614ef7576000816000905550600101614edf565b5090565b5b80821115614f1b5760008181614f129190614fe1565b50600101614efc565b5090565b5b80821115614fdd576000808201600080820160008082016000614f439190614fe1565b600182016000905550506002820160006101000a81549073ffffffffffffffffffffffffffffffffffffffff0219169055505060038201600080820160006101000a81549073ffffffffffffffffffffffffffffffffffffffff0219169055600182016000614fb29190614fe1565b600282016000614fc29190615021565b5050600682016000614fd49190614fe1565b50600701614f20565b5090565b508054614fed90616261565b6000825580601f10614fff575061501e565b601f01602090049060005260206000209081019061501d9190614ede565b5b50565b508054600082559060005260206000209081019061503f9190614efb565b50565b6000604051905090565b600080fd5b600080fd5b600073ffffffffffffffffffffffffffffffffffffffff82169050919050565b600061508182615056565b9050919050565b61509181615076565b811461509c57600080fd5b50565b6000813590506150ae81615088565b92915050565b600080fd5b6000601f19601f8301169050919050565b7f4e487b7100000000000000000000000000000000000000000000000000000000600052604160045260246000fd5b615102826150b9565b810181811067ffffffffffffffff82111715615121576151206150ca565b5b80604052505050565b6000615134615042565b905061514082826150f9565b919050565b600067ffffffffffffffff8211156151605761515f6150ca565b5b602082029050602081019050919050565b600080fd5b600067ffffffffffffffff821115615191576151906150ca565b5b602082029050602081019050919050565b600080fd5b600067ffffffffffffffff8211156151c2576151c16150ca565b5b6151cb826150b9565b9050602081019050919050565b82818337600083830152505050565b60006151fa6151f5846151a7565b61512a565b905082815260208101848484011115615216576152156151a2565b5b6152218482856151d8565b509392505050565b600082601f83011261523e5761523d6150b4565b5b813561524e8482602086016151e7565b91505092915050565b600061526a61526584615176565b61512a565b9050808382526020820190506020840283018581111561528d5761528c615171565b5b835b818110156152d457803567ffffffffffffffff8111156152b2576152b16150b4565b5b8086016152bf8982615229565b8552602085019450505060208101905061528f565b5050509392505050565b600082601f8301126152f3576152f26150b4565b5b8135615303848260208601615257565b91505092915050565b600061531f61531a84615145565b61512a565b9050808382526020820190506020840283018581111561534257615341615171565b5b835b8181101561538957803567ffffffffffffffff811115615367576153666150b4565b5b80860161537489826152de565b85526020850194505050602081019050615344565b5050509392505050565b600082601f8301126153a8576153a76150b4565b5b81356153b884826020860161530c565b91505092915050565b600080604083850312156153d8576153d761504c565b5b60006153e68582860161509f565b925050602083013567ffffffffffffffff81111561540757615406615051565b5b61541385828601615393565b9150509250929050565b6000819050919050565b6154308161541d565b811461543b57600080fd5b50565b60008135905061544d81615427565b92915050565b60008060008060008060c087890312156154705761546f61504c565b5b600087013567ffffffffffffffff81111561548e5761548d615051565b5b61549a89828a01615229565b96505060206154ab89828a0161543e565b95505060406154bc89828a0161509f565b94505060606154cd89828a0161509f565b935050608087013567ffffffffffffffff8111156154ee576154ed615051565b5b6154fa89828a01615229565b92505060a087013567ffffffffffffffff81111561551b5761551a615051565b5b61552789828a01615229565b9150509295509295509295565b60008060008060008060c087890312156155515761555061504c565b5b600061555f89828a0161509f565b965050602061557089828a0161543e565b955050604087013567ffffffffffffffff81111561559157615590615051565b5b61559d89828a01615229565b94505060606155ae89828a0161543e565b93505060806155bf89828a0161509f565b92505060a087013567ffffffffffffffff8111156155e0576155df615051565b5b6155ec89828a01615229565b9150509295509295509295565b60006020828403121561560f5761560e61504c565b5b600082013567ffffffffffffffff81111561562d5761562c615051565b5b61563984828501615229565b91505092915050565b600080600080600060a0868803121561565e5761565d61504c565b5b600086013567ffffffffffffffff81111561567c5761567b615051565b5b61568888828901615229565b95505060206156998882890161543e565b94505060406156aa8882890161509f565b935050606086013567ffffffffffffffff8111156156cb576156ca615051565b5b6156d788828901615229565b925050608086013567ffffffffffffffff8111156156f8576156f7615051565b5b615704888289016152de565b9150509295509295909350565b60008060006060848603121561572a5761572961504c565b5b600084013567ffffffffffffffff81111561574857615747615051565b5b61575486828701615229565b93505060206157658682870161543e565b92505060406157768682870161509f565b9150509250925092565b60008115159050919050565b61579581615780565b82525050565b6157a48161541d565b82525050565b60006060820190506157bf600083018661578c565b6157cc602083018561579b565b6157d9604083018461579b565b949350505050565b600080600080608085870312156157fb576157fa61504c565b5b600085013567ffffffffffffffff81111561581957615818615051565b5b61582587828801615229565b94505060206158368782880161543e565b935050604085013567ffffffffffffffff81111561585757615856615051565b5b61586387828801615229565b925050606085013567ffffffffffffffff81111561588457615883615051565b5b61589087828801615229565b91505092959194509250565b600080604083850312156158b3576158b261504c565b5b60006158c18582860161543e565b92505060206158d28582860161543e565b9150509250929050565b600081519050919050565b600081905092915050565b60005b838110156159105780820151818401526020810190506158f5565b8381111561591f576000848401525b50505050565b6000615930826158dc565b61593a81856158e7565b935061594a8185602086016158f2565b80840191505092915050565b6000819050919050565b61597161596c8261541d565b615956565b82525050565b60008160601b9050919050565b600061598f82615977565b9050919050565b60006159a182615984565b9050919050565b6159b96159b482615076565b615996565b82525050565b60006159cb8287615925565b91506159d78286615925565b91506159e38285615960565b6020820191506159f382846159a8565b60148201915081905095945050505050565b600082825260208201905092915050565b6000615a21826158dc565b615a2b8185615a05565b9350615a3b8185602086016158f2565b615a44816150b9565b840191505092915050565b60006020820190508181036000830152615a698184615a16565b905092915050565b7f4e487b7100000000000000000000000000000000000000000000000000000000600052602160045260246000fd5b7f4e487b7100000000000000000000000000000000000000000000000000000000600052603260045260246000fd5b60006040820190508181036000830152615ae98185615a16565b9050615af8602083018461579b565b9392505050565b600081519050615b0e81615088565b92915050565b6000615b27615b22846151a7565b61512a565b905082815260208101848484011115615b4357615b426151a2565b5b615b4e8482856158f2565b509392505050565b600082601f830112615b6b57615b6a6150b4565b5b8151615b7b848260208601615b14565b91505092915050565b60008060408385031215615b9b57615b9a61504c565b5b6000615ba985828601615aff565b925050602083015167ffffffffffffffff811115615bca57615bc9615051565b5b615bd685828601615b56565b9150509250929050565b60006040820190508181036000830152615bfa8185615a16565b90508181036020830152615c0e8184615a16565b90509392505050565b6000615c238284615925565b915081905092915050565b600081519050919050565b600081905092915050565b6000615c4f82615c2e565b615c598185615c39565b9350615c698185602086016158f2565b80840191505092915050565b6000615c818284615c44565b915081905092915050565b7f4e487b7100000000000000000000000000000000000000000000000000000000600052601160045260246000fd5b6000615cc68261541d565b91507fffffffffffffffffffffffffffffffffffffffffffffffffffffffffffffffff821415615cf957615cf8615c8c565b5b600182019050919050565b6000819050919050565b615d1781615d04565b82525050565b6000602082019050615d326000830184615d0e565b92915050565b600081519050615d4781615427565b92915050565b600060208284031215615d6357615d6261504c565b5b6000615d7184828501615d38565b91505092915050565b6000604082019050615d8f6000830185615d0e565b615d9c602083018461579b565b9392505050565b600060208284031215615db957615db861504c565b5b600082015167ffffffffffffffff811115615dd757615dd6615051565b5b615de384828501615b56565b91505092915050565b600080fd5b600080fd5b600060408284031215615e0c57615e0b615dec565b5b615e16604061512a565b9050600082015167ffffffffffffffff811115615e3657615e35615df1565b5b615e4284828501615b56565b6000830152506020615e5684828501615d38565b60208301525092915050565b600060408284031215615e7857615e77615dec565b5b615e82604061512a565b9050600082015167ffffffffffffffff811115615ea257615ea1615df1565b5b615eae84828501615df6565b6000830152506020615ec284828501615aff565b60208301525092915050565b600067ffffffffffffffff821115615ee957615ee86150ca565b5b615ef2826150b9565b9050602081019050919050565b6000615f12615f0d84615ece565b61512a565b905082815260208101848484011115615f2e57615f2d6151a2565b5b615f398482856158f2565b509392505050565b600082601f830112615f5657615f556150b4565b5b8151615f66848260208601615eff565b91505092915050565b615f7881615780565b8114615f8357600080fd5b50565b600081519050615f9581615f6f565b92915050565b60008060008060808587031215615fb557615fb461504c565b5b600085015167ffffffffffffffff811115615fd357615fd2615051565b5b615fdf87828801615e62565b945050602085015167ffffffffffffffff81111561600057615fff615051565b5b61600c87828801615f41565b935050604085015167ffffffffffffffff81111561602d5761602c615051565b5b61603987828801615f41565b925050606061604a87828801615f86565b91505092959194509250565b600082825260208201905092915050565b6000616072826158dc565b61607c8185616056565b935061608c8185602086016158f2565b616095816150b9565b840191505092915050565b6160a98161541d565b82525050565b600060408301600083015184820360008601526160cc8282616067565b91505060208301516160e160208601826160a0565b508091505092915050565b6160f581615076565b82525050565b6000604083016000830151848203600086015261611882826160af565b915050602083015161612d60208601826160ec565b508091505092915050565b600082825260208201905092915050565b600061615482615c2e565b61615e8185616138565b935061616e8185602086016158f2565b616177816150b9565b840191505092915050565b61618b81615780565b82525050565b600060808301600083015184820360008601526161ae82826160fb565b915050602083015184820360208601526161c88282616149565b915050604083015184820360408601526161e28282616149565b91505060608301516161f76060860182616182565b508091505092915050565b60006040820190506162176000830185615d0e565b81810360208301526162298184616191565b90509392505050565b7f4e487b7100000000000000000000000000000000000000000000000000000000600052602260045260246000fd5b6000600282049050600182168061627957607f821691505b6020821081141561628d5761628c616232565b5b50919050565b600061629f82846159a8565b60148201915081905092915050565b60006162ba8284615960565b60208201915081905092915050565b600060408301600083015184820360008601526162e682826160af565b91505060208301516162fb60208601826160ec565b508091505092915050565b600081549050919050565b600082825260208201905092915050565b60008190508160005260206000209050919050565b60008190508160005260206000209050919050565b6000815461635981616261565b6163638186616056565b9450600182166000811461637e5760018114616390576163c3565b60ff19831686526020860193506163c3565b61639985616337565b60005b838110156163bb5781548189015260018201915060208101905061639c565b808801955050505b50505092915050565b60008160001c9050919050565b6000819050919050565b60006163f66163f1836163cc565b6163d9565b9050919050565b6000604083016000808401858303600087015261641a838261634c565b9250506001840154905061642d816163e3565b61643a60208701826160a0565b50819250505092915050565b600073ffffffffffffffffffffffffffffffffffffffff82169050919050565b6000616479616474836163cc565b616446565b9050919050565b6000604083016000808401858303600087015261649d83826163fd565b925050600284015490506164b081616466565b6164bd60208701826160ec565b50819250505092915050565b600081549050919050565b600082825260208201905092915050565b60008190508160005260206000209050919050565b6000616506838361634c565b905092915050565b6000600182019050919050565b6000616526826164c9565b61653081856164d4565b935083602082028501616542856164e5565b8060005b8581101561657d5784840389528161655e85826164fa565b94506165698361650e565b925060208a01995050600181019050616546565b50829750879550505050505092915050565b60006060830160008084015490506165a681616466565b6165b360008701826160ec565b506001840185830360208701526165ca838261634c565b9250506002840185830360408701526165e3838261651b565b925050819250505092915050565b6000606083016000808401858303600087015261660e8382616480565b925050600384018583036020870152616627838261658f565b925050600684018583036040870152616640838261634c565b925050819250505092915050565b600061665a83836165f1565b905092915050565b6000600782019050919050565b600061667a82616306565b6166848185616311565b93508360208202850161669685616322565b8060005b858110156166d1578484038952816166b2858261664e565b94506166bd83616662565b925060208a0199505060018101905061669a565b50829750879550505050505092915050565b600060408201905081810360008301526166fd81856162c9565b90508181036020830152616711818461666f565b90509392505050565b600060408201905061672f6000830185615d0e565b81810360208301526167418184615a16565b90509392505050565b600081519050919050565b6000819050602082019050919050565b60006167718383616067565b905092915050565b6000602082019050919050565b60006167918261674a565b61679b81856164d4565b9350836020820285016167ad85616755565b8060005b858110156167e957848403895281516167ca8582616765565b94506167d583616779565b925060208a019950506001810190506167b1565b50829750879550505050505092915050565b600060608301600083015161681360008601826160ec565b506020830151848203602086015261682b8282616067565b915050604083015184820360408601526168458282616786565b9150508091505092915050565b600060608301600083015161686a60008601826160ec565b50602083015184820360208601526168828282616067565b9150506040830151848203604086015261689c8282616786565b9150508091505092915050565b600060608301600083015184820360008601526168c682826160fb565b915050602083015184820360208601526168e08282616852565b915050604083015184820360408601526168fa8282616067565b9150508091505092915050565b6000606082019050818103600083015261692181866162c9565b9050818103602083015261693581856167fb565b9050818103604083015261694981846168a9565b9050949350505050565b61695c81615076565b82525050565b60006040820190506169776000830185616953565b81810360208301526169898184615a16565b90509392505050565b600060408301600080840185830360008701526169af83826163fd565b925050600284015490506169c281616466565b6169cf60208701826160ec565b50819250505092915050565b600060608301600080840185830360008701526169f88382616480565b925050600384018583036020870152616a11838261658f565b925050600684018583036040870152616a2a838261634c565b925050819250505092915050565b600060a0820190508181036000830152616a528188616992565b90508181036020830152616a6681876169db565b90508181036040830152616a7a81866167fb565b90508181036060830152616a8e818561666f565b90508181036080830152616aa2818461666f565b90509695505050505050565b6000616ab982615056565b9150616ac483615056565b92508173ffffffffffffffffffffffffffffffffffffffff0483118215151615616af157616af0615c8c565b5b828202905092915050565b6000616b078261541d565b9150616b128361541d565b9250827fffffffffffffffffffffffffffffffffffffffffffffffffffffffffffffffff03821115616b4757616b46615c8c565b5b828201905092915050565b6000616b5d82615056565b9150616b6883615056565b925082821015616b7b57616b7a615c8c565b5b828203905092915050565b6000616b9182615056565b9150616b9c83615056565b92508273ffffffffffffffffffffffffffffffffffffffff03821115616bc557616bc4615c8c565b5b828201905092915050565b6000616bdb8261541d565b91506000821415616bef57616bee615c8c565b5b600182039050919050565b6000616c058261541d565b9150616c108361541d565b925082821015616c2357616c22615c8c565b5b828203905092915050565b6000616c398261541d565b9150616c448361541d565b9250817fffffffffffffffffffffffffffffffffffffffffffffffffffffffffffffffff0483118215151615616c7d57616c7c615c8c565b5b828202905092915050565b60008160011c9050919050565b6000808291508390505b6001851115616cdf57808604811115616cbb57616cba615c8c565b5b6001851615616cca5780820291505b8081029050616cd885616c88565b9450616c9f565b94509492505050565b600082616cf85760019050616db4565b81616d065760009050616db4565b8160018114616d1c5760028114616d2657616d55565b6001915050616db4565b60ff841115616d3857616d37615c8c565b5b8360020a915084821115616d4f57616d4e615c8c565b5b50616db4565b5060208310610133831016604e8410600b8410161715616d8a5782820a905083811115616d8557616d84615c8c565b5b616db4565b616d978484846001616c95565b92509050818404811115616dae57616dad615c8c565b5b81810290505b9392505050565b6000616dc68261541d565b9150616dd18361541d565b9250616dfe7fffffffffffffffffffffffffffffffffffffffffffffffffffffffffffffffff8484616ce8565b905092915050565b50565b6000616e166000836158e7565b9150616e2182616e06565b600082019050919050565b6000616e3782616e09565b9150819050919050565b60007fff0000000000000000000000000000000000000000000000000000000000000082169050919050565b6000819050919050565b616e88616e8382616e41565b616e6d565b82525050565b6000616e9a8284616e77565b60018201915081905092915050565b7f7472756500000000000000000000000000000000000000000000000000000000600082015250565b6000616edf6004836158e7565b9150616eea82616ea9565b600482019050919050565b6000616f0082616ed2565b915081905091905056fe446570656e64656e74207472616e73616374696f6e20726573756c7420636f756e74206e6f74206d61746368206272616e63682070726570617265207472616e73616374696f6e20636f756e744e6f7420666f756e64207072696d61727920707265706172652074782073746174757374746c486569676874206174206c65617374206f6e652073686f756c64206265207365745072696d61727920636f6e6669726d2074782070726f6f662063616e6e6f7420656d7074794475706c696361746520636f6e6669726d20676c6f62616c207472616e73616374696f6e207265717565737474746c54696d65206174206c65617374206f6e652073686f756c6420626520736574a26469706673582212208aa955455bd7d72442d305ee5897e9ea071972087a8f64deb9caa5792567c60364736f6c63430008090033",
  "immutableReferences": {},
  "source": "// SPDX-License-Identifier: GPL-3.0\npragma solidity >=0.7.0 <0.9.0;\n\nimport \"../sidemesh/Sidemesh.sol\";\n\nimport \"../resource/Verifier.sol\";\nimport \"../resource/Register.sol\";\nimport \"../lock/LockManager.sol\";\n\ncontract GlobalTransactionManager is Sidemesh {\n    \n    Verifier verifier;\n    Register registry;\n    LockManager lockManager;\n\n    NetworkTransaction[] networkPrepareTxs;\n    NetworkTransaction[] networkConfirmTxs;\n\n    mapping(bytes32 => GlobalTransactionStatus) globalTransactionStatuses;\n    mapping(bytes32 => GlobalTransaction) globalTransactions;\n\n    constructor (\n        address _registery,\n        address _verifier,\n        address _lockManager){\n            registry = Register(_registery);\n            verifier = Verifier(_verifier);\n            lockManager = LockManager(_lockManager);\n        }\n\n    function getDataForCheckTimeout(\n        string memory network,\n        uint chain,\n        address sender)\n        external view returns(bool, uint, uint){\n            bytes32 xidKey = Lib.hash(abi.encodePacked(PREFIX, network, chain, sender));\n            \n            require(globalTransactionStatuses[xidKey].isValid, ERROR_NO_PRIMARY_TX);\n            \n            return(\n                globalTransactionStatuses[xidKey].isValid,\n                uint(globalTransactionStatuses[xidKey].status),\n                globalTransactions[xidKey].ttlTime\n                );\n        }\n    \n    function getNetworkTxs(bytes32 xidKey, bool porc)internal{\n        if(porc){\n            for(uint i=0; i<globalTransactions[xidKey].networkPrepareTxsLength;i++){\n                networkPrepareTxs.push(globalTransactions[xidKey].networkPrepareTxs[i]);\n            }\n        }else{\n            for(uint i=0; i<globalTransactions[xidKey].networkConfirmTxsLength;i++){\n                networkConfirmTxs.push(globalTransactions[xidKey].networkConfirmTxs[i]);\n            }\n        }\n    }\n\n    function startGlobalTransaction(\n        uint ttlHeight,\n        uint ttlTime)\n        external \n        checkPositive(ttlHeight, ERROR_TTLHEIGHT)\n        checkNonZero(ttlTime, ERROR_TTLTIME){\n            string memory network = getNetwork();\n            bytes32 xid = Lib.hash(abi.encodePacked(PREFIX, network, block.chainid, msg.sender));\n\n            GlobalTransaction storage globalTx = globalTransactions[xid];\n            globalTx.primaryPrepareTxId = TransactionID(URI(network, block.chainid), msg.sender);\n            globalTx.networkPrepareTxsLength = 0;\n            globalTx.networkConfirmTxsLength = 0;\n            globalTx.ttlHeight = ttlHeight;\n            globalTx.ttlTime = ttlTime;\n            globalTx.isValid = true;\n        }\n\n    function registerNetworkTransaction(\n        string memory network,\n        uint chain,\n        address contractC, \n        string memory functionC, \n        string[] memory args)\n        external{\n            string memory primaryNetwork = getNetwork();\n            bytes32 xid = Lib.hash(abi.encodePacked(PREFIX, primaryNetwork, block.chainid, msg.sender));\n\n            NetworkTransaction memory txId;\n            txId.txId = TransactionID(URI(network, chain), msg.sender);\n            txId.invocation = Invocation(contractC, functionC, args);\n\n            globalTransactions[xid].networkPrepareTxs[globalTransactions[xid].networkPrepareTxsLength] = txId;\n            globalTransactions[xid].networkPrepareTxsLength++;\n        }\n    \n    function preparePrimaryTransaction(\n        string memory functionC) \n        external{\n            string memory network = getNetwork();\n            bytes32 xidKey = Lib.hash(abi.encodePacked(PREFIX, network, block.chainid, msg.sender));\n            \n            Invocation memory invocation;\n            invocation.functionC = functionC;\n            invocation.args = new string[](1);\n            invocation.args[0] = Lib.toString(abi.encodePacked(msg.sender));\n            \n            NetworkTransaction memory txId;\n            txId.txId = TransactionID(URI(network, block.chainid), msg.sender);\n            txId.invocation = invocation;\n\n            globalTransactions[xidKey].primaryConfirmTx = txId;\n\n            GlobalTransactionStatus memory globalTxStatus;\n            globalTxStatus.primaryPrepareTxId = globalTransactions[xidKey].primaryPrepareTxId;\n            globalTxStatus.status = GlobalTransactionStatusType.PRIMARY_TRANSACTION_PREPARED;\n            globalTxStatus.isValid = true;\n            \n            globalTransactionStatuses[xidKey] = globalTxStatus;\n\n            if(lockManager.getWriteKeySetLength(xidKey) > 0){\n                for(uint i=0; i<lockManager.getWriteKeySetLength(xidKey); i++){\n                    lockManager.putWSet(xidKey, lockManager.writeKeySet(xidKey, i));\n                }\n            }\n\n            Invocation memory queryGlobalTxInvocation;\n            queryGlobalTxInvocation.functionC = QUERYGLOBALTXSTATUS;\n            \n            getNetworkTxs(xidKey, true);\n            getNetworkTxs(xidKey, false);\n\n            emit PrimaryTransactionPreparedEvent(\n                globalTransactions[xidKey].primaryPrepareTxId,\n                globalTransactions[xidKey].primaryConfirmTx,\n                queryGlobalTxInvocation,\n                networkPrepareTxs,\n                networkConfirmTxs\n                );\n            \n            delete networkPrepareTxs;\n            delete networkConfirmTxs;\n        }\n\n    function confirmPrimaryTransaction(\n            address primaryPrepareTxSender,\n            string[][] memory networkTxRes\n        )external{\n            string memory network = getNetwork();\n            bytes32 xidKey = Lib.hash(abi.encodePacked(PREFIX, network, block.chainid, primaryPrepareTxSender));\n\n            require(globalTransactionStatuses[xidKey].isValid, ERROR_NO_PRIMARY_TX);\n\n            require(\n                globalTransactionStatuses[xidKey].status == GlobalTransactionStatusType.PRIMARY_TRANSACTION_PREPARED,\n                ERROR_DUPLICATE_TX_STATUS);\n\n            require(globalTransactions[xidKey].isValid, ERROR_NO_GLOBAL_TX);\n\n            require(\n                globalTransactions[xidKey].networkPrepareTxsLength == networkTxRes.length,\n                ERROR_DEPENDENT_TX\n            );\n\n            uint numVerified = 0;\n            for(uint i=0;i<networkTxRes.length;i++){\n                globalTransactions[xidKey].networkPrepareTxs[i].txId.sender = Lib.toAddress(networkTxRes[i][2]);\n                globalTransactions[xidKey].networkPrepareTxs[i].proof = networkTxRes[i][3];\n\n                (address contractC, string memory functionC) = verifier.resolve(networkTxRes[i][0], Lib.toUint(networkTxRes[i][1]));\n                require(!Lib.checkAddress(contractC), ERROR_CONTRACT);\n                require(!Lib.isEmpty(functionC), ERROR_FUNCTION);\n\n                if(!Lib.isEmpty(networkTxRes[i][3])){\n                    (bool success,) = contractC.call(abi.encodeWithSignature(functionC, networkTxRes[i][2], networkTxRes[i][3]));\n                    require(success, ERROR_FAILED);\n                    numVerified++;\n                }\n            }\n            if (numVerified == globalTransactions[xidKey].networkPrepareTxsLength) {\n                globalTransactionStatuses[xidKey].status = GlobalTransactionStatusType.PRIMARY_TRANSACTION_COMMITTED;\n            } else {\n                globalTransactionStatuses[xidKey].status = GlobalTransactionStatusType.PRIMARY_TRANSACTION_CANCELED;\n            }\n            \n            \n            if(lockManager.getWSetLength(xidKey) > 0){\n                for(uint i=0; i<lockManager.getWSetLength(xidKey); i++){\n                    bytes32 hash = Lib.hash(abi.encodePacked(lockManager.wSet(xidKey, i)));\n                    \n                    (,bytes memory prevState,\n                    bytes memory updatingState,\n                    bool isValid) = lockManager.locks(hash);\n                    \n                    require(isValid, ERROR_NO_LOCK);\n                    \n                    if(globalTransactionStatuses[xidKey].status == GlobalTransactionStatusType.PRIMARY_TRANSACTION_COMMITTED){\n                        lockManager.putLock(hash, lockDeserializer(updatingState));    \n                    }else if(globalTransactionStatuses[xidKey].status == GlobalTransactionStatusType.PRIMARY_TRANSACTION_CANCELED){\n                        lockManager.putLock(hash, lockDeserializer(prevState)); \n                    }\n                }\n            }\n            \n            for(uint i=0; i<globalTransactions[xidKey].networkPrepareTxsLength;i++){\n                NetworkTransaction memory networkConfirmTx;\n                TransactionID memory txId;\n                txId.uri = URI(\n                            globalTransactions[xidKey].networkPrepareTxs[i].txId.uri.network,\n                            globalTransactions[xidKey].networkPrepareTxs[i].txId.uri.chain);\n                networkConfirmTx.txId = txId;\n\n                Invocation memory invocation;\n                invocation.contractC = globalTransactions[xidKey].networkPrepareTxs[i].invocation.contractC;\n                invocation.functionC = globalTransactions[xidKey].networkPrepareTxs[i].invocation.functionC;\n                invocation.args = new string[](5);\n                invocation.args[0] = Lib.toString(abi.encodePacked(globalTransactions[xidKey].networkPrepareTxs[i].txId.sender));\n                invocation.args[1] = Lib.toString(abi.encodePacked(uint(globalTransactionStatuses[xidKey].status)));\n                invocation.args[2] = network;\n                invocation.args[3] = Lib.toString(abi.encodePacked(block.chainid));\n                invocation.args[4] = Lib.toString(abi.encodePacked(msg.sender));\n\n                networkConfirmTx.invocation = invocation;\n\n                globalTransactions[xidKey].networkConfirmTxs[globalTransactions[xidKey].networkConfirmTxsLength] = networkConfirmTx;\n                globalTransactions[xidKey].networkConfirmTxsLength++;\n            }\n\n            getNetworkTxs(xidKey, false);\n\n            emit PrimaryTransactionConfirmedEvent(\n                TransactionID(URI(network, block.chainid), msg.sender),\n                networkConfirmTxs\n            );\n            delete networkConfirmTxs;\n        }\n\n    function startNetworkTransaction(\n        string memory primaryNetwork,\n        uint primaryChain,\n        string memory primaryTxID,\n        string memory primaryTxProof)\n        external\n        checkEmpty(primaryTxProof, ERROR_PRIMARYTXPROOF){\n            (address contractC, string memory functionC) = verifier.resolve(primaryNetwork, primaryChain);\n            require(!Lib.checkAddress(contractC), ERROR_CONTRACT);\n            require(!Lib.isEmpty(functionC), ERROR_FUNCTION);\n\n            (bool success,) = contractC.call(abi.encodeWithSignature(functionC, primaryTxID, primaryTxProof));\n            require(success, ERROR_FAILED);\n        }\n    \n    function prepareNetworkTransaction(\n        string memory primaryNetwork,\n        uint primaryChain,\n        address primaryTxSender,\n        address globalTxQueryContract,\n        string memory globalTxQueryFunc,\n        string memory functionC)\n        external{\n            string memory network = getNetwork();\n            \n            TransactionID memory globalTxId = TransactionID(URI(primaryNetwork, primaryChain), primaryTxSender);\n            Invocation memory globalTxQuery = Invocation(globalTxQueryContract, globalTxQueryFunc, new string[](1));\n            globalTxQuery.args[0] = string(abi.encodePacked(primaryTxSender));\n\n            bytes32 bidKey = Lib.hash(abi.encodePacked(PREFIX, network, block.chainid, msg.sender));\n            if(lockManager.getWriteKeySetLength(bidKey) > 0){\n                for(uint i=0; i<lockManager.getWriteKeySetLength(bidKey); i++){\n                    lockManager.putWSet(bidKey, lockManager.writeKeySet(bidKey, i));\n                }\n            }\n            \n            Invocation memory invocation;\n            invocation.functionC = functionC;\n            invocation.args = new string[](1);\n            invocation.args[0] = Lib.toString(abi.encodePacked(msg.sender));\n            \n            NetworkTransaction memory networkConfirmTx;\n            networkConfirmTx.txId = TransactionID(URI(network, block.chainid), msg.sender);\n            networkConfirmTx.invocation = invocation;\n\n            emit NetworkTransactionPreparedEvent(\n                globalTxId,\n                globalTxQuery,\n                networkConfirmTx\n                );\n        }\n\n    function confirmNetworkTransaction(\n        address networkPrepareTxSender,\n        uint globalTxStatus,\n        string memory primaryNetwork,\n        uint primaryChain,\n        address primaryConfirmTxSender,\n        string memory primaryConfirmTxProof)\n        external{\n            (address contractC, string memory functionC) = verifier.resolve(primaryNetwork, primaryChain);\n            require(!Lib.checkAddress(contractC), ERROR_CONTRACT);\n            require(!Lib.isEmpty(functionC), ERROR_FUNCTION);\n\n            require(!Lib.isEmpty(primaryConfirmTxProof), ERROR_NO_PRIMARY_CONFIRM_TX_PROOF);\n\n            (bool success,) = contractC.call(abi.encodeWithSignature(functionC, primaryConfirmTxSender, primaryConfirmTxProof));\n            require(success, ERROR_NO_PRIMARY_CONFIRM_TX);\n\n            string memory network = getNetwork();\n            bytes32 bidKey = Lib.hash(abi.encodePacked(PREFIX, network, block.chainid, networkPrepareTxSender));\n\n            if(lockManager.getWSetLength(bidKey) > 0){\n                for(uint i=0; i<lockManager.getWSetLength(bidKey); i++){\n                    bytes32 hash = Lib.hash(abi.encodePacked(lockManager.wSet(bidKey, i)));\n\n                    (,bytes memory prevState,\n                    bytes memory updatingState,\n                    bool isValid) = lockManager.locks(hash);\n\n                    require(isValid, ERROR_NO_LOCK);\n                    \n                    if(globalTxStatus == uint(GlobalTransactionStatusType.PRIMARY_TRANSACTION_COMMITTED)){\n                        lockManager.putLock(hash, lockDeserializer(updatingState));    \n                    }else if(globalTxStatus == uint(GlobalTransactionStatusType.PRIMARY_TRANSACTION_CANCELED)){\n                        lockManager.putLock(hash, lockDeserializer(prevState)); \n                    }\n                }\n            }\n    }\n}",
  "sourcePath": "/Users/shri99/WebProjects/sidemesh-solidity/contracts/transaction/GlobalTransactionManager.sol",
  "compiler": {
    "name": "solc",
    "version": "0.8.9+commit.e5eed63a.Emscripten.clang"
  },
  "schemaVersion": "3.3.3",
  "updatedAt": "2021-11-06T19:47:30.856Z",
  "networkType": "ethereum",
  "devdoc": {
    "kind": "dev",
    "methods": {},
    "version": 1
  },
  "userdoc": {
    "kind": "user",
    "methods": {},
    "version": 1
  }
}