{
  "contractName": "GlobalTransactionManager",
  "abi": [
    {
      "inputs": [
        {
          "internalType": "address",
          "name": "_sidemesh",
          "type": "address"
        },
        {
          "internalType": "address",
          "name": "_registery",
          "type": "address"
        },
        {
          "internalType": "address",
          "name": "_verifier",
          "type": "address"
        },
        {
          "internalType": "address",
          "name": "_lockManager",
          "type": "address"
        }
      ],
      "stateMutability": "nonpayable",
      "type": "constructor"
    },
    {
      "inputs": [
        {
          "internalType": "string",
          "name": "network",
          "type": "string"
        },
        {
          "internalType": "uint256",
          "name": "chain",
          "type": "uint256"
        },
        {
          "internalType": "address",
          "name": "sender",
          "type": "address"
        }
      ],
      "name": "getDataForCheckTimeout",
      "outputs": [
        {
          "internalType": "bool",
          "name": "",
          "type": "bool"
        },
        {
          "internalType": "uint256",
          "name": "",
          "type": "uint256"
        },
        {
          "internalType": "uint256",
          "name": "",
          "type": "uint256"
        }
      ],
      "stateMutability": "view",
      "type": "function"
    },
    {
      "inputs": [
        {
          "internalType": "uint256",
          "name": "ttlHeight",
          "type": "uint256"
        },
        {
          "internalType": "uint256",
          "name": "ttlTime",
          "type": "uint256"
        }
      ],
      "name": "startGlobalTransaction",
      "outputs": [],
      "stateMutability": "nonpayable",
      "type": "function"
    },
    {
      "inputs": [
        {
          "internalType": "string",
          "name": "network",
          "type": "string"
        },
        {
          "internalType": "uint256",
          "name": "chain",
          "type": "uint256"
        },
        {
          "internalType": "address",
          "name": "contractC",
          "type": "address"
        },
        {
          "internalType": "string",
          "name": "functionC",
          "type": "string"
        },
        {
          "internalType": "string[]",
          "name": "args",
          "type": "string[]"
        }
      ],
      "name": "registerNetworkTransaction",
      "outputs": [],
      "stateMutability": "nonpayable",
      "type": "function"
    },
    {
      "inputs": [
        {
          "internalType": "string",
          "name": "functionC",
          "type": "string"
        }
      ],
      "name": "preparePrimaryTransaction",
      "outputs": [],
      "stateMutability": "nonpayable",
      "type": "function"
    },
    {
      "inputs": [
        {
          "internalType": "address",
          "name": "primaryPrepareTxSender",
          "type": "address"
        },
        {
          "internalType": "string[][]",
          "name": "networkTxRes",
          "type": "string[][]"
        }
      ],
      "name": "confirmPrimaryTransaction",
      "outputs": [],
      "stateMutability": "nonpayable",
      "type": "function"
    },
    {
      "inputs": [
        {
          "internalType": "string",
          "name": "primaryNetwork",
          "type": "string"
        },
        {
          "internalType": "uint256",
          "name": "primaryChain",
          "type": "uint256"
        },
        {
          "internalType": "string",
          "name": "primaryTxID",
          "type": "string"
        },
        {
          "internalType": "string",
          "name": "primaryTxProof",
          "type": "string"
        }
      ],
      "name": "startNetworkTransaction",
      "outputs": [],
      "stateMutability": "nonpayable",
      "type": "function"
    },
    {
      "inputs": [
        {
          "internalType": "string",
          "name": "primaryNetwork",
          "type": "string"
        },
        {
          "internalType": "uint256",
          "name": "primaryChain",
          "type": "uint256"
        },
        {
          "internalType": "address",
          "name": "primaryTxSender",
          "type": "address"
        },
        {
          "internalType": "address",
          "name": "globalTxQueryContract",
          "type": "address"
        },
        {
          "internalType": "string",
          "name": "globalTxQueryFunc",
          "type": "string"
        },
        {
          "internalType": "string",
          "name": "functionC",
          "type": "string"
        }
      ],
      "name": "prepareNetworkTransaction",
      "outputs": [],
      "stateMutability": "nonpayable",
      "type": "function"
    },
    {
      "inputs": [
        {
          "internalType": "address",
          "name": "networkPrepareTxSender",
          "type": "address"
        },
        {
          "internalType": "uint256",
          "name": "globalTxStatus",
          "type": "uint256"
        },
        {
          "internalType": "string",
          "name": "primaryNetwork",
          "type": "string"
        },
        {
          "internalType": "uint256",
          "name": "primaryChain",
          "type": "uint256"
        },
        {
          "internalType": "address",
          "name": "primaryConfirmTxSender",
          "type": "address"
        },
        {
          "internalType": "string",
          "name": "primaryConfirmTxProof",
          "type": "string"
        }
      ],
      "name": "confirmNetworkTransaction",
      "outputs": [],
      "stateMutability": "nonpayable",
      "type": "function"
    }
  ],
  "bytecode": "0x60806040523480156200001157600080fd5b5060405162004a3138038062004a318339810160408190526200003491620000a5565b600080546001600160a01b039586166001600160a01b031991821617909155600280549486169482169490941790935560018054928516928416929092179091556003805491909316911617905562000102565b80516001600160a01b0381168114620000a057600080fd5b919050565b60008060008060808587031215620000bc57600080fd5b620000c78562000088565b9350620000d76020860162000088565b9250620000e76040860162000088565b9150620000f76060860162000088565b905092959194509250565b61491f80620001126000396000f3fe608060405234801561001057600080fd5b50600436106100885760003560e01c80639ce275421161005b5780639ce27542146100db578063aa1a3405146100ee578063aaba5b4b14610122578063ea71adfd1461013557600080fd5b806316b417471461008d5780634eff7c46146100a25780635d5974ca146100b55780638cbaefda146100c8575b600080fd5b6100a061009b366004613993565b610148565b005b6100a06100b0366004613a59565b611255565b6100a06100c3366004613b13565b611712565b6100a06100d6366004613b96565b611e94565b6100a06100e9366004613c3d565b6120ba565b6101016100fc366004613c7a565b61281e565b60408051931515845260208401929092529082015260600160405180910390f35b6100a0610130366004613cd5565b61290e565b6100a0610143366004613d67565b612bd0565b60008060009054906101000a90046001600160a01b03166001600160a01b03166307e4b7e96040518163ffffffff1660e01b815260040160006040518083038186803b15801561019757600080fd5b505afa1580156101ab573d6000803e3d6000fd5b505050506040513d6000823e601f3d908101601f191682016040526101d39190810190613dfe565b9050600061022d6040518060400160405280600a815260200169534944455f4d4553485f60b01b8152508346876040516020016102139493929190613e33565b604051602081830303815290604052805160209091012090565b90506006600082815260200190815260200160002060060160019054906101000a900460ff1660405180606001604052806023815260200161483060239139906102935760405162461bcd60e51b815260040161028a9190613eab565b60405180910390fd5b5060008181526006602081905260408220015460ff1660028111156102ba576102ba613ec5565b146040518060600160405280602c815260200161489c602c9139906102f25760405162461bcd60e51b815260040161028a9190613eab565b50600081815260076020908152604091829020601001548251808401909352601383527f4e6f7420666f756e6420676c6f62616c207478000000000000000000000000009183019190915260ff1661035d5760405162461bcd60e51b815260040161028a9190613eab565b50825160076000838152602001908152602001600020600b0154146040518060800160405280604d81526020016147e3604d9139906103af5760405162461bcd60e51b815260040161028a9190613eab565b506000805b8451811015610834576103f98582815181106103d2576103d2613edb565b60200260200101516002815181106103ec576103ec613edb565b6020026020010151612dc0565b6000848152600760209081526040808320858452600a01909152902060020180546001600160a01b0319166001600160a01b0392909216919091179055845185908290811061044a5761044a613edb565b602002602001015160038151811061046457610464613edb565b6020908102919091018101516000858152600783526040808220858352600a0184529020815161049d936006909201929091019061343b565b50600154855160009182916001600160a01b039091169063f9c2af86908990869081106104cc576104cc613edb565b60200260200101516000815181106104e6576104e6613edb565b602002602001015161052a8a878151811061050357610503613edb565b602002602001015160018151811061051d5761051d613edb565b6020026020010151612fad565b6040518363ffffffff1660e01b8152600401610547929190613ef1565b60006040518083038186803b15801561055f57600080fd5b505afa158015610573573d6000803e3d6000fd5b505050506040513d6000823e601f3d908101601f1916820160405261059b9190810190613f13565b915091506105a7600190565b1560405180604001604052806011815260200170436f6e747261637420697320656d70747960781b815250906105f05760405162461bcd60e51b815260040161028a9190613eab565b506105fa81613170565b156040518060400160405280601181526020017046756e6374696f6e20697320656d70747960781b815250906106435760405162461bcd60e51b815260040161028a9190613eab565b5061068087848151811061065957610659613edb565b602002602001015160038151811061067357610673613edb565b6020026020010151613170565b61081f576000826001600160a01b0316828986815181106106a3576106a3613edb565b60200260200101516002815181106106bd576106bd613edb565b60200260200101518a87815181106106d7576106d7613edb565b60200260200101516003815181106106f1576106f1613edb565b602002602001015160405160240161070a929190613f64565b60408051601f19818403018152908290529161072591613f92565b60408051918290039091206020830180516001600160e01b03167fffffffff00000000000000000000000000000000000000000000000000000000909216919091179052516107749190613f92565b6000604051808303816000865af19150503d80600081146107b1576040519150601f19603f3d011682016040523d82523d6000602084013e6107b6565b606091505b50509050806040518060400160405280601881526020017f5072696d61727920747820766572696679206661696c656400000000000000008152509061080f5760405162461bcd60e51b815260040161028a9190613eab565b508461081a81613fc4565b955050505b5050808061082c90613fc4565b9150506103b4565b506000828152600760205260409020600b015481141561087057600082815260066020819052604090912001805460ff1916600117905561088e565b600082815260066020819052604090912001805460ff191660021790555b60035460405163b5081f2d60e01b8152600481018490526000916001600160a01b03169063b5081f2d9060240160206040518083038186803b1580156108d357600080fd5b505afa1580156108e7573d6000803e3d6000fd5b505050506040513d601f19601f8201168201806040525081019061090b9190613fdf565b1115610d435760005b60035460405163b5081f2d60e01b8152600481018590526001600160a01b039091169063b5081f2d9060240160206040518083038186803b15801561095857600080fd5b505afa15801561096c573d6000803e3d6000fd5b505050506040513d601f19601f820116820180604052508101906109909190613fdf565b811015610d41576003546040516330c3beb560e11b81526004810185905260248101839052600091610a36916001600160a01b03909116906361877d6a906044015b60006040518083038186803b1580156109ea57600080fd5b505afa1580156109fe573d6000803e3d6000fd5b505050506040513d6000823e601f3d908101601f19168201604052610a269190810190613dfe565b6040516020016102139190613f92565b600354604051631ade4f6b60e31b8152600481018390529192506000916001600160a01b039091169063d6f27b589060240160006040518083038186803b158015610a8057600080fd5b505afa158015610a94573d6000803e3d6000fd5b505050506040513d6000823e601f3d908101601f19168201604052610abc919081019061400d565b90508060600151604051806040016040528060078152602001664e6f204c6f636b60c81b81525090610b015760405162461bcd60e51b815260040161028a9190613eab565b5060016000868152600660208190526040909120015460ff166002811115610b2b57610b2b613ec5565b1415610c19576003546040808301519051633ec93d5b60e21b81526001600160a01b0390921691635732a361918591849163fb24f56c91610b6f9190600401613eab565b600060405180830381600087803b158015610b8957600080fd5b505af1158015610b9d573d6000803e3d6000fd5b505050506040513d6000823e601f3d908101601f19168201604052610bc5919081019061400d565b6040518363ffffffff1660e01b8152600401610be292919061418a565b600060405180830381600087803b158015610bfc57600080fd5b505af1158015610c10573d6000803e3d6000fd5b50505050610d2c565b60026000868152600660208190526040909120015460ff166002811115610c4257610c42613ec5565b1415610d2c576003546020820151604051633ec93d5b60e21b81526001600160a01b0390921691635732a361918591849163fb24f56c91610c869190600401613eab565b600060405180830381600087803b158015610ca057600080fd5b505af1158015610cb4573d6000803e3d6000fd5b505050506040513d6000823e601f3d908101601f19168201604052610cdc919081019061400d565b6040518363ffffffff1660e01b8152600401610cf992919061418a565b600060405180830381600087803b158015610d1357600080fd5b505af1158015610d27573d6000803e3d6000fd5b505050505b50508080610d3990613fc4565b915050610914565b505b60005b6000838152600760205260409020600b01548110156111e057610d676134bf565b610d6f6134ff565b604080518082018252600087815260076020908152838220878352600a019052919091208054829190610da190614202565b80601f0160208091040260200160405190810160405280929190818152602001828054610dcd90614202565b8015610e1a5780601f10610def57610100808354040283529160200191610e1a565b820191906000526020600020905b815481529060010190602001808311610dfd57829003601f168201915b50505091835250506000878152600760209081526040808320888452600a018083528184206001810154958401959095529486528587528051606080820183528184018190529181019190915260038401546001600160a01b0316815291879052929092526004018054610e8d90614202565b80601f0160208091040260200160405190810160405280929190818152602001828054610eb990614202565b8015610f065780601f10610edb57610100808354040283529160200191610f06565b820191906000526020600020905b815481529060010190602001808311610ee957829003601f168201915b5050505050602082015260408051600580825260c0820190925290816020015b6060815260200190600190039081610f2657905050604082810191909152600087815260076020908152828220878352600a0181529082902060020154915160609290921b6bffffffffffffffffffffffff191690820152610f98906034015b60405160208183030381529060405290565b8160400151600081518110610faf57610faf613edb565b6020908102919091018101919091526000878152600691829052604090200154610ff99060ff166002811115610fe757610fe7613ec5565b604051602001610f8691815260200190565b816040015160018151811061101057611010613edb565b602002602001018190525086816040015160028151811061103357611033613edb565b602002602001018190525061105446604051602001610f8691815260200190565b816040015160038151811061106b5761106b613edb565b60200260200101819052506110a233604051602001610f86919060609190911b6bffffffffffffffffffffffff1916815260140190565b81604001516004815181106110b9576110b9613edb565b6020908102919091018101919091528381018290526000878152600782526040808220600d8101548352600c0183529020845180518051805188958593928492611106928492019061343b565b5060209182015160019091015591820151600290910180546001600160a01b039283166001600160a01b031991821617909155848301518051600386018054919094169216919091178255808301518051919361116b9260048701929091019061343b565b5060408201518051611187916002840191602090910190613534565b505050604082015180516111a591600684019160209091019061343b565b5050506000868152600760205260408120600d018054916111c583613fc4565b919050555050505080806111d890613fc4565b915050610d46565b506111ec8260006131b2565b60408051608081018252808201858152466060830152815233602082015290517f171c9332e85593b9115f9eecd2bf8a7317c4d2950df4cfc988aa60fb5ca777499161123a9160059061443a565b60405180910390a161124e6005600061358d565b5050505050565b60008060009054906101000a90046001600160a01b03166001600160a01b03166307e4b7e96040518163ffffffff1660e01b815260040160006040518083038186803b1580156112a457600080fd5b505afa1580156112b8573d6000803e3d6000fd5b505050506040513d6000823e601f3d908101601f191682016040526112e09190810190613dfe565b604080516080810182528082018a815260608083018b90529082526001600160a01b038981166020808501919091528451928301855290891682528101879052825160018082528185018552949550919360009391929183019190816020015b60608152602001906001900390816113405790505090526040516bffffffffffffffffffffffff1960608a901b166020820152909150603401604051602081830303815290604052816040015160008151811061139f5761139f613edb565b602002602001018190525060006113e86040518060400160405280600a815260200169534944455f4d4553485f60b01b8152508546336040516020016102139493929190613e33565b60035460405163e817aaa560e01b8152600481018390529192506000916001600160a01b039091169063e817aaa59060240160206040518083038186803b15801561143257600080fd5b505afa158015611446573d6000803e3d6000fd5b505050506040513d601f19601f8201168201806040525081019061146a9190613fdf565b11156115eb5760005b60035460405163e817aaa560e01b8152600481018490526001600160a01b039091169063e817aaa59060240160206040518083038186803b1580156114b757600080fd5b505afa1580156114cb573d6000803e3d6000fd5b505050506040513d601f19601f820116820180604052508101906114ef9190613fdf565b8110156115e95760035460405163929c216160e01b815260048101849052602481018390526001600160a01b039091169063ba70311e908490839063929c21619060440160006040518083038186803b15801561154b57600080fd5b505afa15801561155f573d6000803e3d6000fd5b505050506040513d6000823e601f3d908101601f191682016040526115879190810190613dfe565b6040518363ffffffff1660e01b81526004016115a492919061445f565b600060405180830381600087803b1580156115be57600080fd5b505af11580156115d2573d6000803e3d6000fd5b5050505080806115e190613fc4565b915050611473565b505b611618604051806060016040528060006001600160a01b0316815260200160608152602001606081525090565b6020810186905260408051600180825281830190925290816020015b6060815260200190600190039081611634575050604082810191909152513360601b6bffffffffffffffffffffffff1916602082015261167690603401610f86565b816040015160008151811061168d5761168d613edb565b60200260200101819052506116a06134bf565b604080516080810182528082018881524660608301528152336020808301919091529083528201839052517fbca3655a364f084c5bf278eace9ff0700996e453132a72b1bf93003a7ede0d36906116fc90879087908590614505565b60405180910390a1505050505050505050505050565b600154604051637ce157c360e11b815260009182916001600160a01b039091169063f9c2af86906117499089908990600401613ef1565b60006040518083038186803b15801561176157600080fd5b505afa158015611775573d6000803e3d6000fd5b505050506040513d6000823e601f3d908101601f1916820160405261179d9190810190613f13565b915091506117a9600190565b1560405180604001604052806011815260200170436f6e747261637420697320656d70747960781b815250906117f25760405162461bcd60e51b815260040161028a9190613eab565b506117fc81613170565b156040518060400160405280601181526020017046756e6374696f6e20697320656d70747960781b815250906118455760405162461bcd60e51b815260040161028a9190613eab565b5061184f83613170565b1560405180606001604052806025815260200161487760259139906118875760405162461bcd60e51b815260040161028a9190613eab565b506000826001600160a01b03168286866040516024016118a8929190614586565b60408051601f1981840301815290829052916118c391613f92565b60408051918290039091206020830180516001600160e01b03167fffffffff00000000000000000000000000000000000000000000000000000000909216919091179052516119129190613f92565b6000604051808303816000865af19150503d806000811461194f576040519150601f19603f3d011682016040523d82523d6000602084013e611954565b606091505b50509050806040518060400160405280602081526020017f5072696d61727920636f6e6669726d20747820766572696679206661696c6564815250906119ad5760405162461bcd60e51b815260040161028a9190613eab565b5060008060009054906101000a90046001600160a01b03166001600160a01b03166307e4b7e96040518163ffffffff1660e01b815260040160006040518083038186803b1580156119fd57600080fd5b505afa158015611a11573d6000803e3d6000fd5b505050506040513d6000823e601f3d908101601f19168201604052611a399190810190613dfe565b90506000611a796040518060400160405280600a815260200169534944455f4d4553485f60b01b81525083468e6040516020016102139493929190613e33565b60035460405163b5081f2d60e01b8152600481018390529192506000916001600160a01b039091169063b5081f2d9060240160206040518083038186803b158015611ac357600080fd5b505afa158015611ad7573d6000803e3d6000fd5b505050506040513d601f19601f82011682018060405250810190611afb9190613fdf565b1115611e875760005b60035460405163b5081f2d60e01b8152600481018490526001600160a01b039091169063b5081f2d9060240160206040518083038186803b158015611b4857600080fd5b505afa158015611b5c573d6000803e3d6000fd5b505050506040513d601f19601f82011682018060405250810190611b809190613fdf565b811015611e85576003546040516330c3beb560e11b81526004810184905260248101839052600091611bc6916001600160a01b03909116906361877d6a906044016109d2565b600354604051631ade4f6b60e31b8152600481018390529192506000916001600160a01b039091169063d6f27b589060240160006040518083038186803b158015611c1057600080fd5b505afa158015611c24573d6000803e3d6000fd5b505050506040513d6000823e601f3d908101601f19168201604052611c4c919081019061400d565b90508060600151604051806040016040528060078152602001664e6f204c6f636b60c81b81525090611c915760405162461bcd60e51b815260040161028a9190613eab565b5060018d1415611d83576003546040808301519051633ec93d5b60e21b81526001600160a01b0390921691635732a361918591849163fb24f56c91611cd99190600401613eab565b600060405180830381600087803b158015611cf357600080fd5b505af1158015611d07573d6000803e3d6000fd5b505050506040513d6000823e601f3d908101601f19168201604052611d2f919081019061400d565b6040518363ffffffff1660e01b8152600401611d4c92919061418a565b600060405180830381600087803b158015611d6657600080fd5b505af1158015611d7a573d6000803e3d6000fd5b50505050611e70565b60028d1415611e70576003546020820151604051633ec93d5b60e21b81526001600160a01b0390921691635732a361918591849163fb24f56c91611dca9190600401613eab565b600060405180830381600087803b158015611de457600080fd5b505af1158015611df8573d6000803e3d6000fd5b505050506040513d6000823e601f3d908101601f19168201604052611e20919081019061400d565b6040518363ffffffff1660e01b8152600401611e3d92919061418a565b600060405180830381600087803b158015611e5757600080fd5b505af1158015611e6b573d6000803e3d6000fd5b505050505b50508080611e7d90613fc4565b915050611b04565b505b5050505050505050505050565b60008060009054906101000a90046001600160a01b03166001600160a01b03166307e4b7e96040518163ffffffff1660e01b815260040160006040518083038186803b158015611ee357600080fd5b505afa158015611ef7573d6000803e3d6000fd5b505050506040513d6000823e601f3d908101601f19168201604052611f1f9190810190613dfe565b90506000611f5f6040518060400160405280600a815260200169534944455f4d4553485f60b01b8152508346336040516020016102139493929190613e33565b9050611f696134bf565b604080516080810182528082018a815260608083018b905290825233602080840191909152918452825190810183526001600160a01b038916815280820188905280830187905283820152600084815260078252828120600b8101548252600a01825291909120825180518051805186958593928492611fec928492019061343b565b5060209182015160019091015591820151600290910180546001600160a01b039283166001600160a01b03199182161790915584830151805160038601805491909416921691909117825580830151805191936120519260048701929091019061343b565b506040820151805161206d916002840191602090910190613534565b5050506040820151805161208b91600684019160209091019061343b565b5050506000828152600760205260408120600b018054916120ab83613fc4565b91905055505050505050505050565b60008060009054906101000a90046001600160a01b03166001600160a01b03166307e4b7e96040518163ffffffff1660e01b815260040160006040518083038186803b15801561210957600080fd5b505afa15801561211d573d6000803e3d6000fd5b505050506040513d6000823e601f3d908101601f191682016040526121459190810190613dfe565b905060006121856040518060400160405280600a815260200169534944455f4d4553485f60b01b8152508346336040516020016102139493929190613e33565b90506121b4604051806060016040528060006001600160a01b0316815260200160608152602001606081525090565b6020810184905260408051600180825281830190925290816020015b60608152602001906001900390816121d0575050604082810191909152513360601b6bffffffffffffffffffffffff1916602082015261221290603401610f86565b816040015160008151811061222957612229613edb565b602002602001018190525061223c6134bf565b6040805160808101825280820186815246606083015281523360208083019190915290835282810184905260008581526007825291909120825180518051805186956003909501948593928492612296928492019061343b565b5060209182015160019091015591820151600290910180546001600160a01b039283166001600160a01b03199182161790915584830151805160038601805491909416921691909117825580830151805191936122fb9260048701929091019061343b565b5060408201518051612317916002840191602090910190613534565b5050506040820151805161233591600684019160209091019061343b565b509050506123416135b1565b6000848152600760205260409081902081516080810183528154909283919082019083908290829061237290614202565b80601f016020809104026020016040519081016040528092919081815260200182805461239e90614202565b80156123eb5780601f106123c0576101008083540402835291602001916123eb565b820191906000526020600020905b8154815290600101906020018083116123ce57829003601f168201915b505050918352505060019190910154602091820152908252600292909201546001600160a01b0316910152815260006040820181905250600160608201526000848152600660209081526040909120825180518051805186958593928492612456928492019061343b565b5060209182015160019091015591820151600290910180546001600160a01b039092166001600160a01b0319909216919091179055828101518051805180519293600386019384926124ac92849291019061343b565b50602091820151600191820155920151600291820180546001600160a01b0319166001600160a01b0390921691909117905560408401516006840180549193909260ff1990921691849081111561250557612505613ec5565b021790555060609190910151600690910180549115156101000261ff001990921691909117905560035460405163e817aaa560e01b8152600481018690526000916001600160a01b03169063e817aaa59060240160206040518083038186803b15801561257157600080fd5b505afa158015612585573d6000803e3d6000fd5b505050506040513d601f19601f820116820180604052508101906125a99190613fdf565b111561272a5760005b60035460405163e817aaa560e01b8152600481018790526001600160a01b039091169063e817aaa59060240160206040518083038186803b1580156125f657600080fd5b505afa15801561260a573d6000803e3d6000fd5b505050506040513d601f19601f8201168201806040525081019061262e9190613fdf565b8110156127285760035460405163929c216160e01b815260048101879052602481018390526001600160a01b039091169063ba70311e908790839063929c21619060440160006040518083038186803b15801561268a57600080fd5b505afa15801561269e573d6000803e3d6000fd5b505050506040513d6000823e601f3d908101601f191682016040526126c69190810190613dfe565b6040518363ffffffff1660e01b81526004016126e392919061445f565b600060405180830381600087803b1580156126fd57600080fd5b505af1158015612711573d6000803e3d6000fd5b50505050808061272090613fc4565b9150506125b2565b505b612757604051806060016040528060006001600160a01b0316815260200160608152602001606081525090565b6040518060400160405280601381526020017f5175657279476c6f62616c54785374617475730000000000000000000000000081525081602001819052506127a08560016131b2565b6127ab8560006131b2565b6000858152600760205260409081902090517f9d92c3de0c93746be18eab45d72a078bcdc93dfc71a5f6efdda54ee66957135f916127f591600382019085906004906005906145a8565b60405180910390a16128096004600061358d565b6128156005600061358d565b50505050505050565b6000806000806128606040518060400160405280600a815260200169534944455f4d4553485f60b01b8152508888886040516020016102139493929190613e33565b90506006600082815260200190815260200160002060060160019054906101000a900460ff1660405180606001604052806023815260200161483060239139906128bd5760405162461bcd60e51b815260040161028a9190613eab565b506000818152600660208190526040909120015460ff61010082048116911660028111156128ed576128ed613ec5565b600092835260076020526040909220600f0154909891975095509350505050565b61291781613170565b156040518060400160405280601581526020017f4e656564207072696d6172792074782070726f6f6600000000000000000000008152509061296c5760405162461bcd60e51b815260040161028a9190613eab565b50600154604051637ce157c360e11b815260009182916001600160a01b039091169063f9c2af86906129a49089908990600401613ef1565b60006040518083038186803b1580156129bc57600080fd5b505afa1580156129d0573d6000803e3d6000fd5b505050506040513d6000823e601f3d908101601f191682016040526129f89190810190613f13565b91509150612a04600190565b1560405180604001604052806011815260200170436f6e747261637420697320656d70747960781b81525090612a4d5760405162461bcd60e51b815260040161028a9190613eab565b50612a5781613170565b156040518060400160405280601181526020017046756e6374696f6e20697320656d70747960781b81525090612aa05760405162461bcd60e51b815260040161028a9190613eab565b506000826001600160a01b0316828686604051602401612ac1929190613f64565b60408051601f198184030181529082905291612adc91613f92565b60408051918290039091206020830180516001600160e01b03167fffffffff0000000000000000000000000000000000000000000000000000000090921691909117905251612b2b9190613f92565b6000604051808303816000865af19150503d8060008114612b68576040519150601f19603f3d011682016040523d82523d6000602084013e612b6d565b606091505b50509050806040518060400160405280601881526020017f5072696d61727920747820766572696679206661696c6564000000000000000081525090612bc65760405162461bcd60e51b815260040161028a9190613eab565b5050505050505050565b60008210156040518060600160405280602481526020016148536024913990612c0c5760405162461bcd60e51b815260040161028a9190613eab565b5080600014156040518060600160405280602281526020016148c86022913990612c495760405162461bcd60e51b815260040161028a9190613eab565b5060008060009054906101000a90046001600160a01b03166001600160a01b03166307e4b7e96040518163ffffffff1660e01b815260040160006040518083038186803b158015612c9957600080fd5b505afa158015612cad573d6000803e3d6000fd5b505050506040513d6000823e601f3d908101601f19168201604052612cd59190810190613dfe565b90506000612d156040518060400160405280600a815260200169534944455f4d4553485f60b01b8152508346336040516020016102139493929190613e33565b600081815260076020908152604091829020825160808101845292830186815246606085015280845233848401528651949550909384928391612d5d918391908a019061343b565b5060209182015160019182015592015160029190910180546001600160a01b0319166001600160a01b039092169190911790556000600b8301819055600d830155600e820195909555600f8101939093555050601001805460ff19169091179055565b60008181808060025b602a811015612fa257612dde61010085614609565b9350848181518110612df257612df2613edb565b016020015160f81c925084612e08826001614638565b81518110612e1857612e18613edb565b016020015160f81c915060616001600160a01b03841610801590612e4657506066836001600160a01b031611155b15612e5d57612e56605784614650565b9250612ec8565b6041836001600160a01b031610158015612e8157506046836001600160a01b031611155b15612e9157612e56603784614650565b6030836001600160a01b031610158015612eb557506039836001600160a01b031611155b15612ec857612ec5603084614650565b92505b6061826001600160a01b031610158015612eec57506066826001600160a01b031611155b15612f0357612efc605783614650565b9150612f6e565b6041826001600160a01b031610158015612f2757506046826001600160a01b031611155b15612f3757612efc603783614650565b6030826001600160a01b031610158015612f5b57506039826001600160a01b031611155b15612f6e57612f6b603083614650565b91505b81612f7a846010614609565b612f849190614678565b612f8e9085614678565b9350612f9b600282614638565b9050612dc9565b509195945050505050565b80516000908290829081908190819080612fc6816146a3565b91505060008095505b8651861015613071576000878781518110612fec57612fec613edb565b016020015160f81c905060308110801590613008575060398111155b1561304b576130186030826146ba565b61302385600a6146d1565b61302d9190614638565b93508561303981613fc4565b9650508280613047906146a3565b9350505b80602e141561305e576001915050613071565b508561306981613fc4565b965050612fcf565b8015613123576000613084866001614638565b90505b60128110156131215760008882815181106130a4576130a4613edb565b016020015160f81c9050603081108015906130c0575060398111155b15613103576130d06030826146ba565b6130db86600a6146d1565b6130e59190614638565b9450856130f181613fc4565b96505083806130ff906146a3565b9450505b8361310e5750613121565b508061311981613fc4565b915050613087565b505b60128410156131635760006131398560126146ba565b9050600061314882600a6147d6565b905061315481866146d1565b9b9a5050505050505050505050565b5090979650505050505050565b60408051600080825260208201808452825190209092909161319491859101613f92565b60405160208183030381529060405280519060200120149050919050565b80156132fc5760005b6000838152600760205260409020600b01548110156132f7576000838152600760208181526040808420858552600a019091528220600480546001810182559352805490929091027f8a35acfbc15ff81a39ae7d344fd709f28e8600b4aa8c65c6b64bfe7fe36bd19b019082908290829082908190839061323b90614202565b6132469291906135e5565b50600191820154910155600291820154910180546001600160a01b03199081166001600160a01b039384161790915560038481018054918501805490931691909316178155600480850180549185019161329f90614202565b6132aa9291906135e5565b50600282810180546132bf9284019190613660565b50505060068201816006019080546132d690614202565b6132e19291906135e5565b50505080806132ef90613fc4565b9150506131bb565b505050565b60005b6000838152600760205260409020600d01548110156132f7576000838152600760208181526040808420858552600c019091528220600580546001810182559352805490929091027f036b6384b5eca791c62761152d0c79bb0604c104a5fb6f4eb0703f3154bb3db0019082908290829082908190839061337f90614202565b61338a9291906135e5565b50600191820154910155600291820154910180546001600160a01b03199081166001600160a01b03938416179091556003848101805491850180549093169190931617815560048085018054918501916133e390614202565b6133ee9291906135e5565b50600282810180546134039284019190613660565b505050600682018160060190805461341a90614202565b6134259291906135e5565b505050808061343390613fc4565b9150506132ff565b82805461344790614202565b90600052602060002090601f01602090048101928261346957600085556134af565b82601f1061348257805160ff19168380011785556134af565b828001600101855582156134af579182015b828111156134af578251825591602001919060010190613494565b506134bb9291506136b6565b5090565b60405180606001604052806134d26134ff565b81526040805160608082018352600082526020828101829052928201529101908152602001606081525090565b6040518060400160405280613527604051806040016040528060608152602001600081525090565b8152600060209091015290565b828054828255906000526020600020908101928215613581579160200282015b82811115613581578251805161357191849160209091019061343b565b5091602001919060010190613554565b506134bb9291506136cb565b50805460008255600702906000526020600020908101906135ae91906136e8565b50565b60405180608001604052806135c46134ff565b81526020016135d16134ff565b815260200160008152600060209091015290565b8280546135f190614202565b90600052602060002090601f01602090048101928261361357600085556134af565b82601f1061362457805485556134af565b828001600101855582156134af57600052602060002091601f016020900482015b828111156134af578254825591600101919060010190613645565b8280548282559060005260206000209081019282156135815760005260206000209182015b8281111561358157828290805461369b90614202565b6136a69291906135e5565b5091600101919060010190613685565b5b808211156134bb57600081556001016136b7565b808211156134bb5760006136df8282613766565b506001016136cb565b808211156134bb576000818181816137008282613766565b50600060019190910181905560029290920180546001600160a01b0319908116909155600385018054909116815591905061373e6004850182613766565b61374c6002830160006137a0565b5061375d9050600683016000613766565b506007016136e8565b50805461377290614202565b6000825580601f10613782575050565b601f0160209004906000526020600020908101906135ae91906136b6565b50805460008255906000526020600020908101906135ae91906136cb565b6001600160a01b03811681146135ae57600080fd5b634e487b7160e01b600052604160045260246000fd5b6040516080810167ffffffffffffffff8111828210171561380c5761380c6137d3565b60405290565b6040805190810167ffffffffffffffff8111828210171561380c5761380c6137d3565b604051601f8201601f1916810167ffffffffffffffff8111828210171561385e5761385e6137d3565b604052919050565b600067ffffffffffffffff821115613880576138806137d3565b5060051b60200190565b600067ffffffffffffffff8211156138a4576138a46137d3565b50601f01601f191660200190565b600082601f8301126138c357600080fd5b81356138d66138d18261388a565b613835565b8181528460208386010111156138eb57600080fd5b816020850160208301376000918101602001919091529392505050565b600082601f83011261391957600080fd5b813560206139296138d183613866565b82815260059290921b8401810191818101908684111561394857600080fd5b8286015b8481101561398857803567ffffffffffffffff81111561396c5760008081fd5b61397a8986838b01016138b2565b84525091830191830161394c565b509695505050505050565b600080604083850312156139a657600080fd5b82356139b1816137be565b915060208381013567ffffffffffffffff808211156139cf57600080fd5b818601915086601f8301126139e357600080fd5b81356139f16138d182613866565b81815260059190911b83018401908481019089831115613a1057600080fd5b8585015b83811015613a4857803585811115613a2c5760008081fd5b613a3a8c89838a0101613908565b845250918601918601613a14565b508096505050505050509250929050565b60008060008060008060c08789031215613a7257600080fd5b863567ffffffffffffffff80821115613a8a57600080fd5b613a968a838b016138b2565b97506020890135965060408901359150613aaf826137be565b909450606088013590613ac1826137be565b90935060808801359080821115613ad757600080fd5b613ae38a838b016138b2565b935060a0890135915080821115613af957600080fd5b50613b0689828a016138b2565b9150509295509295509295565b60008060008060008060c08789031215613b2c57600080fd5b8635613b37816137be565b955060208701359450604087013567ffffffffffffffff80821115613b5b57600080fd5b613b678a838b016138b2565b95506060890135945060808901359150613b80826137be565b90925060a08801359080821115613af957600080fd5b600080600080600060a08688031215613bae57600080fd5b853567ffffffffffffffff80821115613bc657600080fd5b613bd289838a016138b2565b96506020880135955060408801359150613beb826137be565b90935060608701359080821115613c0157600080fd5b613c0d89838a016138b2565b93506080880135915080821115613c2357600080fd5b50613c3088828901613908565b9150509295509295909350565b600060208284031215613c4f57600080fd5b813567ffffffffffffffff811115613c6657600080fd5b613c72848285016138b2565b949350505050565b600080600060608486031215613c8f57600080fd5b833567ffffffffffffffff811115613ca657600080fd5b613cb2868287016138b2565b935050602084013591506040840135613cca816137be565b809150509250925092565b60008060008060808587031215613ceb57600080fd5b843567ffffffffffffffff80821115613d0357600080fd5b613d0f888389016138b2565b9550602087013594506040870135915080821115613d2c57600080fd5b613d38888389016138b2565b93506060870135915080821115613d4e57600080fd5b50613d5b878288016138b2565b91505092959194509250565b60008060408385031215613d7a57600080fd5b50508035926020909101359150565b60005b83811015613da4578181015183820152602001613d8c565b83811115613db3576000848401525b50505050565b600082601f830112613dca57600080fd5b8151613dd86138d18261388a565b818152846020838601011115613ded57600080fd5b613c72826020830160208701613d89565b600060208284031215613e1057600080fd5b815167ffffffffffffffff811115613e2757600080fd5b613c7284828501613db9565b60008551613e45818460208a01613d89565b855190830190613e59818360208a01613d89565b01938452505060601b6bffffffffffffffffffffffff1916602082015260340192915050565b60008151808452613e97816020860160208601613d89565b601f01601f19169290920160200192915050565b602081526000613ebe6020830184613e7f565b9392505050565b634e487b7160e01b600052602160045260246000fd5b634e487b7160e01b600052603260045260246000fd5b604081526000613f046040830185613e7f565b90508260208301529392505050565b60008060408385031215613f2657600080fd5b8251613f31816137be565b602084015190925067ffffffffffffffff811115613f4e57600080fd5b613f5a85828601613db9565b9150509250929050565b604081526000613f776040830185613e7f565b8281036020840152613f898185613e7f565b95945050505050565b60008251613fa4818460208701613d89565b9190910192915050565b634e487b7160e01b600052601160045260246000fd5b6000600019821415613fd857613fd8613fae565b5060010190565b600060208284031215613ff157600080fd5b5051919050565b8051801515811461400857600080fd5b919050565b6000602080838503121561402057600080fd5b825167ffffffffffffffff8082111561403857600080fd5b908401906080828703121561404c57600080fd5b6140546137e9565b82518281111561406357600080fd5b83016040818903121561407557600080fd5b61407d613812565b81518481111561408c57600080fd5b82016040818b03121561409e57600080fd5b6140a6613812565b8151868111156140b557600080fd5b6140c18c828501613db9565b8252509087015187820152815290850151906140dc826137be565b80860191909152815282840151828111156140f657600080fd5b61410288828601613db9565b8583015250604083015193508184111561411b57600080fd5b61412787858501613db9565b604082015261413860608401613ff8565b60608201529695505050505050565b600081516040845280516040808601526141646080860182613e7f565b6020928301516060870152938201516001600160a01b0316949091019390935250919050565b8281526040602082015260008251608060408401526141ac60c0840182614147565b90506020840151603f19808584030160608601526141ca8383613e7f565b92506040860151915080858403016080860152506141e88282613e7f565b9150506060840151151560a0840152809150509392505050565b600181811c9082168061421657607f821691505b6020821081141561423757634e487b7160e01b600052602260045260246000fd5b50919050565b8054600090600181811c908083168061425757607f831692505b602080841082141561427957634e487b7160e01b600052602260045260246000fd5b8388526020880182801561429457600181146142a5576142d0565b60ff198716825282820197506142d0565b60008981526020902060005b878110156142ca578154848201529086019084016142b1565b83019850505b5050505050505092915050565b6040825260408083015260006142f6608084018361423d565b600183015460608501526001600160a01b0360028401541660208501528091505092915050565b60608252600061433060608401836142dd565b6020848203818601526001600160a01b03600385015416825260608183015261435f606083016004860161423d565b60058501838203604085015281935080548083528383019450838160051b8401018260005284600020925060005b828110156143bb57848203601f190187526143a8828561423d565b968601966001948501949092500161438d565b5088810360408a01526143d18160068a0161423d565b9998505050505050505050565b600081548084526020808501808196508360051b81019150856000528260002060005b8581101561442d578284038952614418848361431d565b98850198935060079190910190600101614401565b5091979650505050505050565b60408152600061444d6040830185614147565b8281036020840152613f8981856143de565b828152604060208201526000613c726040830184613e7f565b6001600160a01b03815116825260006020808301516060828601526144a06060860182613e7f565b9050604084015185820360408701528181518084528484019150848160051b850101858401935060005b828110156144f857601f198683030184526144e6828651613e7f565b948701949387019391506001016144ca565b5098975050505050505050565b6060815260006145186060830186614147565b828103602084015261452a8186614478565b905082810360408401528351606082526145476060830182614147565b9050602085015182820360208401526145608282614478565b9150506040850151828203604084015261457a8282613e7f565b98975050505050505050565b6001600160a01b0383168152604060208201526000613c726040830184613e7f565b60a0815260006145bb60a08301886142dd565b82810360208401526145cd818861431d565b905082810360408401526145e18187614478565b905082810360608401526145f581866143de565b9050828103608084015261457a81856143de565b60006001600160a01b038083168185168183048111821515161561462f5761462f613fae565b02949350505050565b6000821982111561464b5761464b613fae565b500190565b60006001600160a01b038381169083168181101561467057614670613fae565b039392505050565b60006001600160a01b0380831681851680830382111561469a5761469a613fae565b01949350505050565b6000816146b2576146b2613fae565b506000190190565b6000828210156146cc576146cc613fae565b500390565b60008160001904831182151516156146eb576146eb613fae565b500290565b600181815b8085111561472b57816000190482111561471157614711613fae565b8085161561471e57918102915b93841c93908002906146f5565b509250929050565b600082614742575060016147d0565b8161474f575060006147d0565b8160018114614765576002811461476f5761478b565b60019150506147d0565b60ff84111561478057614780613fae565b50506001821b6147d0565b5060208310610133831016604e8410600b84101617156147ae575081810a6147d0565b6147b883836146f0565b80600019048211156147cc576147cc613fae565b0290505b92915050565b6000613ebe838361473356fe446570656e64656e74207472616e73616374696f6e20726573756c7420636f756e74206e6f74206d61746368206272616e63682070726570617265207472616e73616374696f6e20636f756e744e6f7420666f756e64207072696d61727920707265706172652074782073746174757374746c486569676874206174206c65617374206f6e652073686f756c64206265207365745072696d61727920636f6e6669726d2074782070726f6f662063616e6e6f7420656d7074794475706c696361746520636f6e6669726d20676c6f62616c207472616e73616374696f6e207265717565737474746c54696d65206174206c65617374206f6e652073686f756c6420626520736574a26469706673582212202794e982213b51c1e5e4dd0ada6866359c3bff8243a7ead7f79012bd812d4cf464736f6c63430008090033",
  "immutableReferences": {},
  "source": "// SPDX-License-Identifier: GPL-3.0\npragma solidity >=0.7.0 <0.9.0;\n\nimport \"../lib/Utils.sol\";\nimport \"../lib/Constants.sol\";\nimport \"../lib/Enums.sol\";\nimport \"../lib/Structs.sol\";\n\nimport \"../sidemesh/Sidemesh.sol\";\nimport \"../resource/Verifier.sol\";\nimport \"../resource/Register.sol\";\nimport \"../lock/LockManager.sol\";\n\ninterface IGlobalTransactionManager{\n    function getDataForCheckTimeout(\n        string memory network,\n        uint chain,\n        address sender)\n        external view returns(bool, uint, uint);\n        \n    function startGlobalTransaction(\n        uint ttlHeight,\n        uint ttlTime)\n        external;\n        \n    function registerNetworkTransaction(\n        string memory network,\n        uint chain,\n        address contractC, \n        string memory functionC, \n        string[] memory args)\n        external;\n\n    function preparePrimaryTransaction(\n        string memory functionC) \n        external;\n\n    function confirmPrimaryTransaction(\n            address primaryPrepareTxSender,\n            string[][] memory networkTxRes\n        )external;\n\n    function startNetworkTransaction(\n        string memory primaryNetwork,\n        uint primaryChain,\n        string memory primaryTxID,\n        string memory primaryTxProof)\n        external;\n\n    function prepareNetworkTransaction(\n        string memory primaryNetwork,\n        uint primaryChain,\n        address primaryTxSender,\n        address globalTxQueryContract,\n        string memory globalTxQueryFunc,\n        string memory functionC)\n        external;\n    \n    function confirmNetworkTransaction(\n        address networkPrepareTxSender,\n        uint globalTxStatus,\n        string memory primaryNetwork,\n        uint primaryChain,\n        address primaryConfirmTxSender,\n        string memory primaryConfirmTxProof)\n        external;\n}\n\ncontract GlobalTransactionManager is IGlobalTransactionManager{\n    \n    ISidemesh sidemesh;\n    IVerifier verifier;\n    IRegister registry;\n    ILockManagerGlobalTransaction lockManager;\n\n    Structs.NetworkTransaction[] networkPrepareTxs;\n    Structs.NetworkTransaction[] networkConfirmTxs;\n\n    mapping(bytes32 => Structs.GlobalTransactionStatus) globalTransactionStatuses;\n    mapping(bytes32 => Structs.GlobalTransaction) globalTransactions;\n\n    constructor (\n        address _sidemesh,\n        address _registery,\n        address _verifier,\n        address _lockManager){\n            sidemesh = ISidemesh(_sidemesh);\n            registry = IRegister(_registery);\n            verifier = IVerifier(_verifier);\n            lockManager = ILockManagerGlobalTransaction(_lockManager);\n        }\n    \n    function getNetworkTxs(bytes32 xidKey, bool porc)internal{\n        if(porc){\n            for(uint i=0; i<globalTransactions[xidKey].networkPrepareTxsLength;i++){\n                networkPrepareTxs.push(globalTransactions[xidKey].networkPrepareTxs[i]);\n            }\n        }else{\n            for(uint i=0; i<globalTransactions[xidKey].networkConfirmTxsLength;i++){\n                networkConfirmTxs.push(globalTransactions[xidKey].networkConfirmTxs[i]);\n            }\n        }\n    }\n\n    function getDataForCheckTimeout(\n        string memory network,\n        uint chain,\n        address sender)\n        external view returns(bool, uint, uint){\n            bytes32 xidKey = Utils.hash(abi.encodePacked(Constants.PREFIX, network, chain, sender));\n            \n            require(globalTransactionStatuses[xidKey].isValid, Constants.ERROR_NO_PRIMARY_TX);\n            \n            return(\n                globalTransactionStatuses[xidKey].isValid,\n                uint(globalTransactionStatuses[xidKey].status),\n                globalTransactions[xidKey].ttlTime\n                );\n        }\n\n    function startGlobalTransaction(\n        uint ttlHeight,\n        uint ttlTime)\n        external{\n            require(ttlHeight >= 0, Constants.ERROR_TTLHEIGHT);\n            require(ttlTime != 0, Constants.ERROR_TTLTIME);\n            string memory network = sidemesh.getNetwork();\n            bytes32 xid = Utils.hash(abi.encodePacked(Constants.PREFIX, network, block.chainid, msg.sender));\n\n            Structs.GlobalTransaction storage globalTx = globalTransactions[xid];\n            globalTx.primaryPrepareTxId = Structs.TransactionID(Structs.URI(network, block.chainid), msg.sender);\n            globalTx.networkPrepareTxsLength = 0;\n            globalTx.networkConfirmTxsLength = 0;\n            globalTx.ttlHeight = ttlHeight;\n            globalTx.ttlTime = ttlTime;\n            globalTx.isValid = true;\n        }\n\n    function registerNetworkTransaction(\n        string memory network,\n        uint chain,\n        address contractC, \n        string memory functionC, \n        string[] memory args)\n        external{\n            string memory primaryNetwork = sidemesh.getNetwork();\n            bytes32 xid = Utils.hash(abi.encodePacked(Constants.PREFIX, primaryNetwork, block.chainid, msg.sender));\n\n            Structs.NetworkTransaction memory txId;\n            txId.txId = Structs.TransactionID(Structs.URI(network, chain), msg.sender);\n            txId.invocation = Structs.Invocation(contractC, functionC, args);\n\n            globalTransactions[xid].networkPrepareTxs[globalTransactions[xid].networkPrepareTxsLength] = txId;\n            globalTransactions[xid].networkPrepareTxsLength++;\n        }\n    \n    function preparePrimaryTransaction(\n        string memory functionC) \n        external{\n            string memory network = sidemesh.getNetwork();\n            bytes32 xidKey = Utils.hash(abi.encodePacked(Constants.PREFIX, network, block.chainid, msg.sender));\n            \n            Structs.Invocation memory invocation;\n            invocation.functionC = functionC;\n            invocation.args = new string[](1);\n            invocation.args[0] = Utils.toString(abi.encodePacked(msg.sender));\n            \n            Structs.NetworkTransaction memory txId;\n            txId.txId = Structs.TransactionID(Structs.URI(network, block.chainid), msg.sender);\n            txId.invocation = invocation;\n\n            globalTransactions[xidKey].primaryConfirmTx = txId;\n\n            Structs.GlobalTransactionStatus memory globalTxStatus;\n            globalTxStatus.primaryPrepareTxId = globalTransactions[xidKey].primaryPrepareTxId;\n            globalTxStatus.status = Enums.GlobalTransactionStatusType.PRIMARY_TRANSACTION_PREPARED;\n            globalTxStatus.isValid = true;\n            \n            globalTransactionStatuses[xidKey] = globalTxStatus;\n\n            if(lockManager.getWriteKeySetLength(xidKey) > 0){\n                for(uint i=0; i<lockManager.getWriteKeySetLength(xidKey); i++){\n                    lockManager.putWSet(xidKey, lockManager.getWriteKeySet(xidKey, i));\n                }\n            }\n\n            Structs.Invocation memory queryGlobalTxInvocation;\n            queryGlobalTxInvocation.functionC = Constants.QUERYGLOBALTXSTATUS;\n            \n            getNetworkTxs(xidKey, true);\n            getNetworkTxs(xidKey, false);\n\n            emit Structs.PrimaryTransactionPreparedEvent(\n                globalTransactions[xidKey].primaryPrepareTxId,\n                globalTransactions[xidKey].primaryConfirmTx,\n                queryGlobalTxInvocation,\n                networkPrepareTxs,\n                networkConfirmTxs\n                );\n            \n            delete networkPrepareTxs;\n            delete networkConfirmTxs;\n        }\n\n    function confirmPrimaryTransaction(\n            address primaryPrepareTxSender,\n            string[][] memory networkTxRes\n        )external{\n            string memory network = sidemesh.getNetwork();\n            bytes32 xidKey = Utils.hash(abi.encodePacked(Constants.PREFIX, network, block.chainid, primaryPrepareTxSender));\n\n            require(globalTransactionStatuses[xidKey].isValid, Constants.ERROR_NO_PRIMARY_TX);\n\n            require(\n                globalTransactionStatuses[xidKey].status == Enums.GlobalTransactionStatusType.PRIMARY_TRANSACTION_PREPARED,\n                Constants.ERROR_DUPLICATE_TX_STATUS);\n\n            require(globalTransactions[xidKey].isValid, Constants.ERROR_NO_GLOBAL_TX);\n\n            require(\n                globalTransactions[xidKey].networkPrepareTxsLength == networkTxRes.length,\n                Constants.ERROR_DEPENDENT_TX\n            );\n\n            uint numVerified = 0;\n            for(uint i=0;i<networkTxRes.length;i++){\n                globalTransactions[xidKey].networkPrepareTxs[i].txId.sender = Utils.toAddress(networkTxRes[i][2]);\n                globalTransactions[xidKey].networkPrepareTxs[i].proof = networkTxRes[i][3];\n\n                (address contractC, string memory functionC) = verifier.resolve(networkTxRes[i][0], Utils.toUint(networkTxRes[i][1]));\n                require(!Utils.checkAddress(contractC), Constants.ERROR_CONTRACT);\n                require(!Utils.isEmpty(functionC), Constants.ERROR_FUNCTION);\n\n                if(!Utils.isEmpty(networkTxRes[i][3])){\n                    (bool success,) = contractC.call(abi.encodeWithSignature(functionC, networkTxRes[i][2], networkTxRes[i][3]));\n                    require(success, Constants.ERROR_FAILED);\n                    numVerified++;\n                }\n            }\n            if (numVerified == globalTransactions[xidKey].networkPrepareTxsLength) {\n                globalTransactionStatuses[xidKey].status = Enums.GlobalTransactionStatusType.PRIMARY_TRANSACTION_COMMITTED;\n            } else {\n                globalTransactionStatuses[xidKey].status = Enums.GlobalTransactionStatusType.PRIMARY_TRANSACTION_CANCELED;\n            }\n            \n            \n            if(lockManager.getWSetLength(xidKey) > 0){\n                for(uint i=0; i<lockManager.getWSetLength(xidKey); i++){\n                    bytes32 hash = Utils.hash(abi.encodePacked(lockManager.getWSet(xidKey, i)));\n                    \n                    Structs.Lock memory lock = lockManager.getLock(hash);\n                    \n                    require(lock.isValid, Constants.ERROR_NO_LOCK);\n                    \n                    if(globalTransactionStatuses[xidKey].status == Enums.GlobalTransactionStatusType.PRIMARY_TRANSACTION_COMMITTED){\n                        lockManager.putLock(hash, lockManager.lockDeserializer(lock.updatingState));    \n                    }else if(globalTransactionStatuses[xidKey].status == Enums.GlobalTransactionStatusType.PRIMARY_TRANSACTION_CANCELED){\n                        lockManager.putLock(hash, lockManager.lockDeserializer(lock.prevState)); \n                    }\n                }\n            }\n            \n            for(uint i=0; i<globalTransactions[xidKey].networkPrepareTxsLength;i++){\n                Structs.NetworkTransaction memory networkConfirmTx;\n                Structs.TransactionID memory txId;\n                txId.uri = Structs.URI(\n                            globalTransactions[xidKey].networkPrepareTxs[i].txId.uri.network,\n                            globalTransactions[xidKey].networkPrepareTxs[i].txId.uri.chain);\n                networkConfirmTx.txId = txId;\n\n                Structs.Invocation memory invocation;\n                invocation.contractC = globalTransactions[xidKey].networkPrepareTxs[i].invocation.contractC;\n                invocation.functionC = globalTransactions[xidKey].networkPrepareTxs[i].invocation.functionC;\n                invocation.args = new string[](5);\n                invocation.args[0] = Utils.toString(abi.encodePacked(globalTransactions[xidKey].networkPrepareTxs[i].txId.sender));\n                invocation.args[1] = Utils.toString(abi.encodePacked(uint(globalTransactionStatuses[xidKey].status)));\n                invocation.args[2] = network;\n                invocation.args[3] = Utils.toString(abi.encodePacked(block.chainid));\n                invocation.args[4] = Utils.toString(abi.encodePacked(msg.sender));\n\n                networkConfirmTx.invocation = invocation;\n\n                globalTransactions[xidKey].networkConfirmTxs[globalTransactions[xidKey].networkConfirmTxsLength] = networkConfirmTx;\n                globalTransactions[xidKey].networkConfirmTxsLength++;\n            }\n\n            getNetworkTxs(xidKey, false);\n\n            emit Structs.PrimaryTransactionConfirmedEvent(\n                Structs.TransactionID(Structs.URI(network, block.chainid), msg.sender),\n                networkConfirmTxs\n            );\n            delete networkConfirmTxs;\n        }\n\n    function startNetworkTransaction(\n        string memory primaryNetwork,\n        uint primaryChain,\n        string memory primaryTxID,\n        string memory primaryTxProof)\n        external{\n            require(!Utils.isEmpty(primaryTxProof), Constants.ERROR_PRIMARYTXPROOF);\n            (address contractC, string memory functionC) = verifier.resolve(primaryNetwork, primaryChain);\n            require(!Utils.checkAddress(contractC), Constants.ERROR_CONTRACT);\n            require(!Utils.isEmpty(functionC), Constants.ERROR_FUNCTION);\n\n            (bool success,) = contractC.call(abi.encodeWithSignature(functionC, primaryTxID, primaryTxProof));\n            require(success, Constants.ERROR_FAILED);\n        }\n    \n    function prepareNetworkTransaction(\n        string memory primaryNetwork,\n        uint primaryChain,\n        address primaryTxSender,\n        address globalTxQueryContract,\n        string memory globalTxQueryFunc,\n        string memory functionC)\n        external{\n            string memory network = sidemesh.getNetwork();\n            \n            Structs.TransactionID memory globalTxId = Structs.TransactionID(Structs.URI(primaryNetwork, primaryChain), primaryTxSender);\n            Structs.Invocation memory globalTxQuery = Structs.Invocation(globalTxQueryContract, globalTxQueryFunc, new string[](1));\n            globalTxQuery.args[0] = string(abi.encodePacked(primaryTxSender));\n\n            bytes32 bidKey = Utils.hash(abi.encodePacked(Constants.PREFIX, network, block.chainid, msg.sender));\n            if(lockManager.getWriteKeySetLength(bidKey) > 0){\n                for(uint i=0; i<lockManager.getWriteKeySetLength(bidKey); i++){\n                    lockManager.putWSet(bidKey, lockManager.getWriteKeySet(bidKey, i));\n                }\n            }\n            \n            Structs.Invocation memory invocation;\n            invocation.functionC = functionC;\n            invocation.args = new string[](1);\n            invocation.args[0] = Utils.toString(abi.encodePacked(msg.sender));\n            \n            Structs.NetworkTransaction memory networkConfirmTx;\n            networkConfirmTx.txId = Structs.TransactionID(Structs.URI(network, block.chainid), msg.sender);\n            networkConfirmTx.invocation = invocation;\n\n            emit Structs.NetworkTransactionPreparedEvent(\n                globalTxId,\n                globalTxQuery,\n                networkConfirmTx\n                );\n        }\n\n    function confirmNetworkTransaction(\n        address networkPrepareTxSender,\n        uint globalTxStatus,\n        string memory primaryNetwork,\n        uint primaryChain,\n        address primaryConfirmTxSender,\n        string memory primaryConfirmTxProof)\n        external{\n            (address contractC, string memory functionC) = verifier.resolve(primaryNetwork, primaryChain);\n            require(!Utils.checkAddress(contractC), Constants.ERROR_CONTRACT);\n            require(!Utils.isEmpty(functionC), Constants.ERROR_FUNCTION);\n\n            require(!Utils.isEmpty(primaryConfirmTxProof), Constants.ERROR_NO_PRIMARY_CONFIRM_TX_PROOF);\n\n            (bool success,) = contractC.call(abi.encodeWithSignature(functionC, primaryConfirmTxSender, primaryConfirmTxProof));\n            require(success, Constants.ERROR_NO_PRIMARY_CONFIRM_TX);\n\n            string memory network = sidemesh.getNetwork();\n            bytes32 bidKey = Utils.hash(abi.encodePacked(Constants.PREFIX, network, block.chainid, networkPrepareTxSender));\n\n            if(lockManager.getWSetLength(bidKey) > 0){\n                for(uint i=0; i<lockManager.getWSetLength(bidKey); i++){\n                    bytes32 hash = Utils.hash(abi.encodePacked(lockManager.getWSet(bidKey, i)));\n\n                    Structs.Lock memory lock = lockManager.getLock(hash);\n\n                    require(lock.isValid, Constants.ERROR_NO_LOCK);\n                    \n                    if(globalTxStatus == uint(Enums.GlobalTransactionStatusType.PRIMARY_TRANSACTION_COMMITTED)){\n                        lockManager.putLock(hash, lockManager.lockDeserializer(lock.updatingState));    \n                    }else if(globalTxStatus == uint(Enums.GlobalTransactionStatusType.PRIMARY_TRANSACTION_CANCELED)){\n                        lockManager.putLock(hash, lockManager.lockDeserializer(lock.prevState)); \n                    }\n                }\n            }\n    }\n}",
  "sourcePath": "/Users/shri99/WebProjects/sidemesh-solidity/contracts/transaction/GlobalTransactionManager.sol",
  "compiler": {
    "name": "solc",
    "version": "0.8.9+commit.e5eed63a.Emscripten.clang"
  },
  "schemaVersion": "3.3.3",
  "updatedAt": "2021-11-10T22:37:53.657Z",
  "devdoc": {
    "kind": "dev",
    "methods": {},
    "version": 1
  },
  "userdoc": {
    "kind": "user",
    "methods": {},
    "version": 1
  }
}