{
  "contractName": "LockManager",
  "abi": [
    {
      "anonymous": false,
      "inputs": [
        {
          "components": [
            {
              "components": [
                {
                  "internalType": "string",
                  "name": "network",
                  "type": "string"
                },
                {
                  "internalType": "uint256",
                  "name": "chain",
                  "type": "uint256"
                }
              ],
              "internalType": "struct Structs.URI",
              "name": "uri",
              "type": "tuple"
            },
            {
              "internalType": "address",
              "name": "sender",
              "type": "address"
            }
          ],
          "indexed": false,
          "internalType": "struct Structs.TransactionID",
          "name": "PrimaryPrepareTxId",
          "type": "tuple"
        },
        {
          "components": [
            {
              "internalType": "address",
              "name": "contractC",
              "type": "address"
            },
            {
              "internalType": "string",
              "name": "functionC",
              "type": "string"
            },
            {
              "internalType": "string[]",
              "name": "args",
              "type": "string[]"
            }
          ],
          "indexed": false,
          "internalType": "struct Structs.Invocation",
          "name": "GlobalTxStatusQuery",
          "type": "tuple"
        },
        {
          "components": [
            {
              "components": [
                {
                  "components": [
                    {
                      "internalType": "string",
                      "name": "network",
                      "type": "string"
                    },
                    {
                      "internalType": "uint256",
                      "name": "chain",
                      "type": "uint256"
                    }
                  ],
                  "internalType": "struct Structs.URI",
                  "name": "uri",
                  "type": "tuple"
                },
                {
                  "internalType": "address",
                  "name": "sender",
                  "type": "address"
                }
              ],
              "internalType": "struct Structs.TransactionID",
              "name": "txId",
              "type": "tuple"
            },
            {
              "components": [
                {
                  "internalType": "address",
                  "name": "contractC",
                  "type": "address"
                },
                {
                  "internalType": "string",
                  "name": "functionC",
                  "type": "string"
                },
                {
                  "internalType": "string[]",
                  "name": "args",
                  "type": "string[]"
                }
              ],
              "internalType": "struct Structs.Invocation",
              "name": "invocation",
              "type": "tuple"
            },
            {
              "internalType": "string",
              "name": "proof",
              "type": "string"
            }
          ],
          "indexed": false,
          "internalType": "struct Structs.NetworkTransaction",
          "name": "ConfirmTx",
          "type": "tuple"
        }
      ],
      "name": "NetworkTransactionPreparedEvent",
      "type": "event"
    },
    {
      "anonymous": false,
      "inputs": [
        {
          "components": [
            {
              "components": [
                {
                  "internalType": "string",
                  "name": "network",
                  "type": "string"
                },
                {
                  "internalType": "uint256",
                  "name": "chain",
                  "type": "uint256"
                }
              ],
              "internalType": "struct Structs.URI",
              "name": "uri",
              "type": "tuple"
            },
            {
              "internalType": "address",
              "name": "sender",
              "type": "address"
            }
          ],
          "indexed": false,
          "internalType": "struct Structs.TransactionID",
          "name": "PrimaryConfirmedTxId",
          "type": "tuple"
        },
        {
          "components": [
            {
              "components": [
                {
                  "components": [
                    {
                      "internalType": "string",
                      "name": "network",
                      "type": "string"
                    },
                    {
                      "internalType": "uint256",
                      "name": "chain",
                      "type": "uint256"
                    }
                  ],
                  "internalType": "struct Structs.URI",
                  "name": "uri",
                  "type": "tuple"
                },
                {
                  "internalType": "address",
                  "name": "sender",
                  "type": "address"
                }
              ],
              "internalType": "struct Structs.TransactionID",
              "name": "txId",
              "type": "tuple"
            },
            {
              "components": [
                {
                  "internalType": "address",
                  "name": "contractC",
                  "type": "address"
                },
                {
                  "internalType": "string",
                  "name": "functionC",
                  "type": "string"
                },
                {
                  "internalType": "string[]",
                  "name": "args",
                  "type": "string[]"
                }
              ],
              "internalType": "struct Structs.Invocation",
              "name": "invocation",
              "type": "tuple"
            },
            {
              "internalType": "string",
              "name": "proof",
              "type": "string"
            }
          ],
          "indexed": false,
          "internalType": "struct Structs.NetworkTransaction[]",
          "name": "NetworkConfirmTxs",
          "type": "tuple[]"
        }
      ],
      "name": "PrimaryTransactionConfirmedEvent",
      "type": "event"
    },
    {
      "anonymous": false,
      "inputs": [
        {
          "components": [
            {
              "components": [
                {
                  "internalType": "string",
                  "name": "network",
                  "type": "string"
                },
                {
                  "internalType": "uint256",
                  "name": "chain",
                  "type": "uint256"
                }
              ],
              "internalType": "struct Structs.URI",
              "name": "uri",
              "type": "tuple"
            },
            {
              "internalType": "address",
              "name": "sender",
              "type": "address"
            }
          ],
          "indexed": false,
          "internalType": "struct Structs.TransactionID",
          "name": "PrimaryPrepareTxId",
          "type": "tuple"
        },
        {
          "components": [
            {
              "components": [
                {
                  "components": [
                    {
                      "internalType": "string",
                      "name": "network",
                      "type": "string"
                    },
                    {
                      "internalType": "uint256",
                      "name": "chain",
                      "type": "uint256"
                    }
                  ],
                  "internalType": "struct Structs.URI",
                  "name": "uri",
                  "type": "tuple"
                },
                {
                  "internalType": "address",
                  "name": "sender",
                  "type": "address"
                }
              ],
              "internalType": "struct Structs.TransactionID",
              "name": "txId",
              "type": "tuple"
            },
            {
              "components": [
                {
                  "internalType": "address",
                  "name": "contractC",
                  "type": "address"
                },
                {
                  "internalType": "string",
                  "name": "functionC",
                  "type": "string"
                },
                {
                  "internalType": "string[]",
                  "name": "args",
                  "type": "string[]"
                }
              ],
              "internalType": "struct Structs.Invocation",
              "name": "invocation",
              "type": "tuple"
            },
            {
              "internalType": "string",
              "name": "proof",
              "type": "string"
            }
          ],
          "indexed": false,
          "internalType": "struct Structs.NetworkTransaction",
          "name": "PrimaryConfirmTx",
          "type": "tuple"
        },
        {
          "components": [
            {
              "internalType": "address",
              "name": "contractC",
              "type": "address"
            },
            {
              "internalType": "string",
              "name": "functionC",
              "type": "string"
            },
            {
              "internalType": "string[]",
              "name": "args",
              "type": "string[]"
            }
          ],
          "indexed": false,
          "internalType": "struct Structs.Invocation",
          "name": "GlobalTxStatusQuery",
          "type": "tuple"
        },
        {
          "components": [
            {
              "components": [
                {
                  "components": [
                    {
                      "internalType": "string",
                      "name": "network",
                      "type": "string"
                    },
                    {
                      "internalType": "uint256",
                      "name": "chain",
                      "type": "uint256"
                    }
                  ],
                  "internalType": "struct Structs.URI",
                  "name": "uri",
                  "type": "tuple"
                },
                {
                  "internalType": "address",
                  "name": "sender",
                  "type": "address"
                }
              ],
              "internalType": "struct Structs.TransactionID",
              "name": "txId",
              "type": "tuple"
            },
            {
              "components": [
                {
                  "internalType": "address",
                  "name": "contractC",
                  "type": "address"
                },
                {
                  "internalType": "string",
                  "name": "functionC",
                  "type": "string"
                },
                {
                  "internalType": "string[]",
                  "name": "args",
                  "type": "string[]"
                }
              ],
              "internalType": "struct Structs.Invocation",
              "name": "invocation",
              "type": "tuple"
            },
            {
              "internalType": "string",
              "name": "proof",
              "type": "string"
            }
          ],
          "indexed": false,
          "internalType": "struct Structs.NetworkTransaction[]",
          "name": "NetworkPrepareTxs",
          "type": "tuple[]"
        },
        {
          "components": [
            {
              "components": [
                {
                  "components": [
                    {
                      "internalType": "string",
                      "name": "network",
                      "type": "string"
                    },
                    {
                      "internalType": "uint256",
                      "name": "chain",
                      "type": "uint256"
                    }
                  ],
                  "internalType": "struct Structs.URI",
                  "name": "uri",
                  "type": "tuple"
                },
                {
                  "internalType": "address",
                  "name": "sender",
                  "type": "address"
                }
              ],
              "internalType": "struct Structs.TransactionID",
              "name": "txId",
              "type": "tuple"
            },
            {
              "components": [
                {
                  "internalType": "address",
                  "name": "contractC",
                  "type": "address"
                },
                {
                  "internalType": "string",
                  "name": "functionC",
                  "type": "string"
                },
                {
                  "internalType": "string[]",
                  "name": "args",
                  "type": "string[]"
                }
              ],
              "internalType": "struct Structs.Invocation",
              "name": "invocation",
              "type": "tuple"
            },
            {
              "internalType": "string",
              "name": "proof",
              "type": "string"
            }
          ],
          "indexed": false,
          "internalType": "struct Structs.NetworkTransaction[]",
          "name": "NetworkConfirmTxs",
          "type": "tuple[]"
        }
      ],
      "name": "PrimaryTransactionPreparedEvent",
      "type": "event"
    },
    {
      "anonymous": false,
      "inputs": [
        {
          "indexed": false,
          "internalType": "string",
          "name": "network",
          "type": "string"
        },
        {
          "indexed": false,
          "internalType": "uint256",
          "name": "chain",
          "type": "uint256"
        },
        {
          "indexed": false,
          "internalType": "bytes",
          "name": "connection",
          "type": "bytes"
        }
      ],
      "name": "SIDE_MESH_RESOURCE_REGISTERED_EVENT",
      "type": "event"
    },
    {
      "inputs": [
        {
          "internalType": "bytes32",
          "name": "",
          "type": "bytes32"
        }
      ],
      "name": "locks",
      "outputs": [
        {
          "components": [
            {
              "components": [
                {
                  "internalType": "string",
                  "name": "network",
                  "type": "string"
                },
                {
                  "internalType": "uint256",
                  "name": "chain",
                  "type": "uint256"
                }
              ],
              "internalType": "struct Structs.URI",
              "name": "uri",
              "type": "tuple"
            },
            {
              "internalType": "address",
              "name": "sender",
              "type": "address"
            }
          ],
          "internalType": "struct Structs.TransactionID",
          "name": "primaryPrepareTxId",
          "type": "tuple"
        },
        {
          "internalType": "bytes",
          "name": "prevState",
          "type": "bytes"
        },
        {
          "internalType": "bytes",
          "name": "updatingState",
          "type": "bytes"
        },
        {
          "internalType": "bool",
          "name": "isValid",
          "type": "bool"
        }
      ],
      "stateMutability": "view",
      "type": "function",
      "constant": true
    },
    {
      "inputs": [
        {
          "internalType": "string",
          "name": "networkC",
          "type": "string"
        }
      ],
      "name": "setNetwork",
      "outputs": [],
      "stateMutability": "nonpayable",
      "type": "function"
    },
    {
      "inputs": [
        {
          "internalType": "bytes32",
          "name": "",
          "type": "bytes32"
        },
        {
          "internalType": "uint256",
          "name": "",
          "type": "uint256"
        }
      ],
      "name": "wSet",
      "outputs": [
        {
          "internalType": "string",
          "name": "",
          "type": "string"
        }
      ],
      "stateMutability": "view",
      "type": "function",
      "constant": true
    },
    {
      "inputs": [
        {
          "internalType": "bytes32",
          "name": "",
          "type": "bytes32"
        },
        {
          "internalType": "uint256",
          "name": "",
          "type": "uint256"
        }
      ],
      "name": "writeKeySet",
      "outputs": [
        {
          "internalType": "string",
          "name": "",
          "type": "string"
        }
      ],
      "stateMutability": "view",
      "type": "function",
      "constant": true
    },
    {
      "inputs": [
        {
          "internalType": "bytes32",
          "name": "hash",
          "type": "bytes32"
        },
        {
          "components": [
            {
              "components": [
                {
                  "components": [
                    {
                      "internalType": "string",
                      "name": "network",
                      "type": "string"
                    },
                    {
                      "internalType": "uint256",
                      "name": "chain",
                      "type": "uint256"
                    }
                  ],
                  "internalType": "struct Structs.URI",
                  "name": "uri",
                  "type": "tuple"
                },
                {
                  "internalType": "address",
                  "name": "sender",
                  "type": "address"
                }
              ],
              "internalType": "struct Structs.TransactionID",
              "name": "primaryPrepareTxId",
              "type": "tuple"
            },
            {
              "internalType": "bytes",
              "name": "prevState",
              "type": "bytes"
            },
            {
              "internalType": "bytes",
              "name": "updatingState",
              "type": "bytes"
            },
            {
              "internalType": "bool",
              "name": "isValid",
              "type": "bool"
            }
          ],
          "internalType": "struct Structs.Lock",
          "name": "lock",
          "type": "tuple"
        }
      ],
      "name": "putLock",
      "outputs": [],
      "stateMutability": "nonpayable",
      "type": "function"
    },
    {
      "inputs": [
        {
          "internalType": "bytes32",
          "name": "hash",
          "type": "bytes32"
        }
      ],
      "name": "getWriteKeySetLength",
      "outputs": [
        {
          "internalType": "uint256",
          "name": "",
          "type": "uint256"
        }
      ],
      "stateMutability": "view",
      "type": "function",
      "constant": true
    },
    {
      "inputs": [
        {
          "internalType": "bytes32",
          "name": "hash",
          "type": "bytes32"
        }
      ],
      "name": "getWSetLength",
      "outputs": [
        {
          "internalType": "uint256",
          "name": "",
          "type": "uint256"
        }
      ],
      "stateMutability": "view",
      "type": "function",
      "constant": true
    },
    {
      "inputs": [
        {
          "internalType": "bytes32",
          "name": "hash",
          "type": "bytes32"
        },
        {
          "internalType": "string",
          "name": "value",
          "type": "string"
        }
      ],
      "name": "putWSet",
      "outputs": [],
      "stateMutability": "nonpayable",
      "type": "function"
    },
    {
      "inputs": [
        {
          "internalType": "string",
          "name": "key",
          "type": "string"
        },
        {
          "internalType": "uint256",
          "name": "cur",
          "type": "uint256"
        },
        {
          "internalType": "bool",
          "name": "isValid",
          "type": "bool"
        },
        {
          "internalType": "uint256",
          "name": "status",
          "type": "uint256"
        },
        {
          "internalType": "uint256",
          "name": "ttlTime",
          "type": "uint256"
        }
      ],
      "name": "getStateMaybeLocked",
      "outputs": [
        {
          "components": [
            {
              "components": [
                {
                  "components": [
                    {
                      "internalType": "string",
                      "name": "network",
                      "type": "string"
                    },
                    {
                      "internalType": "uint256",
                      "name": "chain",
                      "type": "uint256"
                    }
                  ],
                  "internalType": "struct Structs.URI",
                  "name": "uri",
                  "type": "tuple"
                },
                {
                  "internalType": "address",
                  "name": "sender",
                  "type": "address"
                }
              ],
              "internalType": "struct Structs.TransactionID",
              "name": "primaryPrepareTxId",
              "type": "tuple"
            },
            {
              "internalType": "bytes",
              "name": "prevState",
              "type": "bytes"
            },
            {
              "internalType": "bytes",
              "name": "updatingState",
              "type": "bytes"
            },
            {
              "internalType": "bool",
              "name": "isValid",
              "type": "bool"
            }
          ],
          "internalType": "struct Structs.Lock",
          "name": "",
          "type": "tuple"
        }
      ],
      "stateMutability": "view",
      "type": "function",
      "constant": true
    },
    {
      "inputs": [
        {
          "internalType": "string",
          "name": "key",
          "type": "string"
        },
        {
          "internalType": "bytes",
          "name": "value",
          "type": "bytes"
        },
        {
          "internalType": "uint256",
          "name": "cur",
          "type": "uint256"
        },
        {
          "internalType": "bool",
          "name": "isValid",
          "type": "bool"
        },
        {
          "internalType": "uint256",
          "name": "status",
          "type": "uint256"
        },
        {
          "internalType": "uint256",
          "name": "ttlTime",
          "type": "uint256"
        }
      ],
      "name": "putStateMaybeLocked",
      "outputs": [],
      "stateMutability": "nonpayable",
      "type": "function"
    },
    {
      "inputs": [
        {
          "internalType": "string",
          "name": "key",
          "type": "string"
        },
        {
          "internalType": "bytes",
          "name": "value",
          "type": "bytes"
        },
        {
          "internalType": "uint256",
          "name": "cur",
          "type": "uint256"
        },
        {
          "internalType": "bool",
          "name": "isValid",
          "type": "bool"
        },
        {
          "internalType": "uint256",
          "name": "status",
          "type": "uint256"
        },
        {
          "internalType": "uint256",
          "name": "ttlTime",
          "type": "uint256"
        }
      ],
      "name": "putLockedStateWithPrimaryLock",
      "outputs": [],
      "stateMutability": "nonpayable",
      "type": "function"
    },
    {
      "inputs": [
        {
          "internalType": "string",
          "name": "key",
          "type": "string"
        },
        {
          "internalType": "bytes",
          "name": "value",
          "type": "bytes"
        },
        {
          "internalType": "string",
          "name": "primaryNetwork",
          "type": "string"
        },
        {
          "internalType": "uint256",
          "name": "primaryChain",
          "type": "uint256"
        },
        {
          "internalType": "address",
          "name": "primaryTxSender",
          "type": "address"
        },
        {
          "internalType": "uint256",
          "name": "cur",
          "type": "uint256"
        },
        {
          "internalType": "bool",
          "name": "isValid",
          "type": "bool"
        },
        {
          "internalType": "uint256",
          "name": "status",
          "type": "uint256"
        },
        {
          "internalType": "uint256",
          "name": "ttlTime",
          "type": "uint256"
        }
      ],
      "name": "putLockedStateWithNetworkLock",
      "outputs": [],
      "stateMutability": "nonpayable",
      "type": "function"
    }
  ],
  "bytecode": "0x608060405234801561001057600080fd5b506141c2806100206000396000f3fe608060405234801561001057600080fd5b50600436106100b45760003560e01c8063b5081f2d11610071578063b5081f2d14610175578063b8e73e0a146101a5578063ba70311e146101d5578063e817aaa5146101f1578063ed5e843714610221578063f005912814610254576100b4565b8063179d9f6d146100b95780635732a361146100e957806365832b8d14610105578063818edaec14610121578063962ba62e1461013d5780639e1d823414610159575b600080fd5b6100d360048036038101906100ce9190612f36565b610284565b6040516100e0919061300f565b60405180910390f35b61010360048036038101906100fe919061344b565b61033d565b005b61011f600480360381019061011a91906134a7565b610436565b005b61013b6004803603810190610136919061356c565b610912565b005b610157600480360381019061015291906135b5565b61092c565b005b610173600480360381019061016e91906134a7565b610dfd565b005b61018f600480360381019061018a91906136d3565b611259565b60405161019c919061370f565b60405180910390f35b6101bf60048036038101906101ba9190612f36565b611279565b6040516101cc919061300f565b60405180910390f35b6101ef60048036038101906101ea919061372a565b611332565b005b61020b600480360381019061020691906136d3565b611383565b604051610218919061370f565b60405180910390f35b61023b600480360381019061023691906136d3565b6113a3565b60405161024b94939291906138cc565b60405180910390f35b61026e60048036038101906102699190613926565b611600565b60405161027b9190613ac4565b60405180910390f35b600460205281600052604060002081815481106102a057600080fd5b906000526020600020016000915091505080546102bc90613b15565b80601f01602080910402602001604051908101604052809291908181526020018280546102e890613b15565b80156103355780601f1061030a57610100808354040283529160200191610335565b820191906000526020600020905b81548152906001019060200180831161031857829003601f168201915b505050505081565b8060026000848152602001908152602001600020600082015181600001600082015181600001600082015181600001908051906020019061037f929190612c87565b5060208201518160010155505060208201518160020160006101000a81548173ffffffffffffffffffffffffffffffffffffffff021916908373ffffffffffffffffffffffffffffffffffffffff160217905550505060208201518160030190805190602001906103f1929190612d0d565b50604082015181600401908051906020019061040e929190612d0d565b5060608201518160050160006101000a81548160ff0219169083151502179055509050505050565b6000610440611bb2565b9050600061046c886040516020016104589190613b83565b604051602081830303815290604052611d64565b90506000604051806040016040528060405180604001604052808681526020014681525081526020013373ffffffffffffffffffffffffffffffffffffffff1681525090506002600083815260200190815260200160002060050160009054906101000a900460ff1661060b576104e1612d93565b888160400181905250818160000181905250600181606001901515908115158152505080600260008581526020019081526020016000206000820151816000016000820151816000016000820151816000019080519060200190610546929190612c87565b5060208201518160010155505060208201518160020160006101000a81548173ffffffffffffffffffffffffffffffffffffffff021916908373ffffffffffffffffffffffffffffffffffffffff160217905550505060208201518160030190805190602001906105b8929190612d0d565b5060408201518160040190805190602001906105d5929190612d0d565b5060608201518160050160006101000a81548160ff0219169083151502179055509050506106028a611d75565b5050505061090a565b61088e60026000848152602001908152602001600020604051806080016040529081600082016040518060400160405290816000820160405180604001604052908160008201805461065c90613b15565b80601f016020809104026020016040519081016040528092919081815260200182805461068890613b15565b80156106d55780601f106106aa576101008083540402835291602001916106d5565b820191906000526020600020905b8154815290600101906020018083116106b857829003601f168201915b5050505050815260200160018201548152505081526020016002820160009054906101000a900473ffffffffffffffffffffffffffffffffffffffff1673ffffffffffffffffffffffffffffffffffffffff1673ffffffffffffffffffffffffffffffffffffffff1681525050815260200160038201805461075690613b15565b80601f016020809104026020016040519081016040528092919081815260200182805461078290613b15565b80156107cf5780601f106107a4576101008083540402835291602001916107cf565b820191906000526020600020905b8154815290600101906020018083116107b257829003601f168201915b505050505081526020016004820180546107e890613b15565b80601f016020809104026020016040519081016040528092919081815260200182805461081490613b15565b80156108615780601f1061083657610100808354040283529160200191610861565b820191906000526020600020905b81548152906001019060200180831161084457829003601f168201915b505050505081526020016005820160009054906101000a900460ff16151515158152505088888888611e3a565b6040518060400160405280601f81526020017f4e6565642052656c656173652045787069726564204c6f636b204572726f720081525090610905576040517f08c379a00000000000000000000000000000000000000000000000000000000081526004016108fc919061300f565b60405180910390fd5b505050505b505050505050565b8060019080519060200190610928929190612c87565b5050565b60006109568a6040516020016109429190613b83565b604051602081830303815290604052611d64565b90506000604051806040016040528060405180604001604052808c81526020018b81525081526020018873ffffffffffffffffffffffffffffffffffffffff1681525090506002600083815260200190815260200160002060050160009054906101000a900460ff16610af4576109cb612d93565b8a8160400181905250818160000181905250600181606001901515908115158152505080600260008581526020019081526020016000206000820151816000016000820151816000016000820151816000019080519060200190610a30929190612c87565b5060208201518160010155505060208201518160020160006101000a81548173ffffffffffffffffffffffffffffffffffffffff021916908373ffffffffffffffffffffffffffffffffffffffff16021790555050506020820151816003019080519060200190610aa2929190612d0d565b506040820151816004019080519060200190610abf929190612d0d565b5060608201518160050160006101000a81548160ff021916908315150217905550905050610aec8c611d75565b505050610df2565b610d77600260008481526020019081526020016000206040518060800160405290816000820160405180604001604052908160008201604051806040016040529081600082018054610b4590613b15565b80601f0160208091040260200160405190810160405280929190818152602001828054610b7190613b15565b8015610bbe5780601f10610b9357610100808354040283529160200191610bbe565b820191906000526020600020905b815481529060010190602001808311610ba157829003601f168201915b5050505050815260200160018201548152505081526020016002820160009054906101000a900473ffffffffffffffffffffffffffffffffffffffff1673ffffffffffffffffffffffffffffffffffffffff1673ffffffffffffffffffffffffffffffffffffffff16815250508152602001600382018054610c3f90613b15565b80601f0160208091040260200160405190810160405280929190818152602001828054610c6b90613b15565b8015610cb85780601f10610c8d57610100808354040283529160200191610cb8565b820191906000526020600020905b815481529060010190602001808311610c9b57829003601f168201915b50505050508152602001600482018054610cd190613b15565b80601f0160208091040260200160405190810160405280929190818152602001828054610cfd90613b15565b8015610d4a5780601f10610d1f57610100808354040283529160200191610d4a565b820191906000526020600020905b815481529060010190602001808311610d2d57829003601f168201915b505050505081526020016005820160009054906101000a900460ff16151515158152505087878787611e3a565b6040518060400160405280601f81526020017f4e6565642052656c656173652045787069726564204c6f636b204572726f720081525090610dee576040517f08c379a0000000000000000000000000000000000000000000000000000000008152600401610de5919061300f565b60405180910390fd5b5050505b505050505050505050565b6000610e2787604051602001610e139190613b83565b604051602081830303815290604052611d64565b90506002600082815260200190815260200160002060050160009054906101000a900460ff16610f5457610e5a866120d1565b600260008381526020019081526020016000206000820151816000016000820151816000016000820151816000019080519060200190610e9b929190612c87565b5060208201518160010155505060208201518160020160006101000a81548173ffffffffffffffffffffffffffffffffffffffff021916908373ffffffffffffffffffffffffffffffffffffffff16021790555050506020820151816003019080519060200190610f0d929190612d0d565b506040820151816004019080519060200190610f2a929190612d0d565b5060608201518160050160006101000a81548160ff02191690831515021790555090505050611251565b6111d7600260008381526020019081526020016000206040518060800160405290816000820160405180604001604052908160008201604051806040016040529081600082018054610fa590613b15565b80601f0160208091040260200160405190810160405280929190818152602001828054610fd190613b15565b801561101e5780601f10610ff35761010080835404028352916020019161101e565b820191906000526020600020905b81548152906001019060200180831161100157829003601f168201915b5050505050815260200160018201548152505081526020016002820160009054906101000a900473ffffffffffffffffffffffffffffffffffffffff1673ffffffffffffffffffffffffffffffffffffffff1673ffffffffffffffffffffffffffffffffffffffff1681525050815260200160038201805461109f90613b15565b80601f01602080910402602001604051908101604052809291908181526020018280546110cb90613b15565b80156111185780601f106110ed57610100808354040283529160200191611118565b820191906000526020600020905b8154815290600101906020018083116110fb57829003601f168201915b5050505050815260200160048201805461113190613b15565b80601f016020809104026020016040519081016040528092919081815260200182805461115d90613b15565b80156111aa5780601f1061117f576101008083540402835291602001916111aa565b820191906000526020600020905b81548152906001019060200180831161118d57829003601f168201915b505050505081526020016005820160009054906101000a900460ff16151515158152505086868686611e3a565b6040518060400160405280601f81526020017f4e6565642052656c656173652045787069726564204c6f636b204572726f72008152509061124e576040517f08c379a0000000000000000000000000000000000000000000000000000000008152600401611245919061300f565b60405180910390fd5b50505b505050505050565b600060046000838152602001908152602001600020805490509050919050565b6003602052816000526040600020818154811061129557600080fd5b906000526020600020016000915091505080546112b190613b15565b80601f01602080910402602001604051908101604052809291908181526020018280546112dd90613b15565b801561132a5780601f106112ff5761010080835404028352916020019161132a565b820191906000526020600020905b81548152906001019060200180831161130d57829003601f168201915b505050505081565b600460008381526020019081526020016000208190806001815401808255809150506001900390600052602060002001600090919091909150908051906020019061137e929190612c87565b505050565b600060036000838152602001908152602001600020805490509050919050565b600260205280600052604060002060009150905080600001604051806040016040529081600082016040518060400160405290816000820180546113e690613b15565b80601f016020809104026020016040519081016040528092919081815260200182805461141290613b15565b801561145f5780601f106114345761010080835404028352916020019161145f565b820191906000526020600020905b81548152906001019060200180831161144257829003601f168201915b5050505050815260200160018201548152505081526020016002820160009054906101000a900473ffffffffffffffffffffffffffffffffffffffff1673ffffffffffffffffffffffffffffffffffffffff1673ffffffffffffffffffffffffffffffffffffffff1681525050908060030180546114dc90613b15565b80601f016020809104026020016040519081016040528092919081815260200182805461150890613b15565b80156115555780601f1061152a57610100808354040283529160200191611555565b820191906000526020600020905b81548152906001019060200180831161153857829003601f168201915b50505050509080600401805461156a90613b15565b80601f016020809104026020016040519081016040528092919081815260200182805461159690613b15565b80156115e35780601f106115b8576101008083540402835291602001916115e3565b820191906000526020600020905b8154815290600101906020018083116115c657829003601f168201915b5050505050908060050160009054906101000a900460ff16905084565b611608612d93565b60006116328760405160200161161e9190613b83565b604051602081830303815290604052611d64565b90506118b760026000838152602001908152602001600020604051806080016040529081600082016040518060400160405290816000820160405180604001604052908160008201805461168590613b15565b80601f01602080910402602001604051908101604052809291908181526020018280546116b190613b15565b80156116fe5780601f106116d3576101008083540402835291602001916116fe565b820191906000526020600020905b8154815290600101906020018083116116e157829003601f168201915b5050505050815260200160018201548152505081526020016002820160009054906101000a900473ffffffffffffffffffffffffffffffffffffffff1673ffffffffffffffffffffffffffffffffffffffff1673ffffffffffffffffffffffffffffffffffffffff1681525050815260200160038201805461177f90613b15565b80601f01602080910402602001604051908101604052809291908181526020018280546117ab90613b15565b80156117f85780601f106117cd576101008083540402835291602001916117f8565b820191906000526020600020905b8154815290600101906020018083116117db57829003601f168201915b5050505050815260200160048201805461181190613b15565b80601f016020809104026020016040519081016040528092919081815260200182805461183d90613b15565b801561188a5780601f1061185f5761010080835404028352916020019161188a565b820191906000526020600020905b81548152906001019060200180831161186d57829003601f168201915b505050505081526020016005820160009054906101000a900460ff16151515158152505087878787611e3a565b6040518060400160405280601f81526020017f4e6565642052656c656173652045787069726564204c6f636b204572726f72008152509061192e576040517f08c379a0000000000000000000000000000000000000000000000000000000008152600401611925919061300f565b60405180910390fd5b5060026000828152602001908152602001600020604051806080016040529081600082016040518060400160405290816000820160405180604001604052908160008201805461197d90613b15565b80601f01602080910402602001604051908101604052809291908181526020018280546119a990613b15565b80156119f65780601f106119cb576101008083540402835291602001916119f6565b820191906000526020600020905b8154815290600101906020018083116119d957829003601f168201915b5050505050815260200160018201548152505081526020016002820160009054906101000a900473ffffffffffffffffffffffffffffffffffffffff1673ffffffffffffffffffffffffffffffffffffffff1673ffffffffffffffffffffffffffffffffffffffff16815250508152602001600382018054611a7790613b15565b80601f0160208091040260200160405190810160405280929190818152602001828054611aa390613b15565b8015611af05780601f10611ac557610100808354040283529160200191611af0565b820191906000526020600020905b815481529060010190602001808311611ad357829003601f168201915b50505050508152602001600482018054611b0990613b15565b80601f0160208091040260200160405190810160405280929190818152602001828054611b3590613b15565b8015611b825780601f10611b5757610100808354040283529160200191611b82565b820191906000526020600020905b815481529060010190602001808311611b6557829003601f168201915b505050505081526020016005820160009054906101000a900460ff16151515158152505091505095945050505050565b606060018054611bc190613b15565b80601f0160208091040260200160405190810160405280929190818152602001828054611bed90613b15565b8015611c3a5780601f10611c0f57610100808354040283529160200191611c3a565b820191906000526020600020905b815481529060010190602001808311611c1d57829003601f168201915b50505050506040518060400160405280601081526020017f4e6574776f726b20697320656d70747900000000000000000000000000000000815250611c8e82604051806020016040528060008152506126f1565b158190611cd1576040517f08c379a0000000000000000000000000000000000000000000000000000000008152600401611cc8919061300f565b60405180910390fd5b5060018054611cdf90613b15565b80601f0160208091040260200160405190810160405280929190818152602001828054611d0b90613b15565b8015611d585780601f10611d2d57610100808354040283529160200191611d58565b820191906000526020600020905b815481529060010190602001808311611d3b57829003601f168201915b50505050509250505090565b600081805190602001209050919050565b6000611d7f611bb2565b90506000611de66040518060400160405280600a81526020017f534944455f4d4553485f00000000000000000000000000000000000000000000815250834633604051602001611dd29493929190613c03565b604051602081830303815290604052611d64565b90506003600082815260200190815260200160002083908060018154018082558091505060019003906000526020600020016000909190919091509080519060200190611e34929190612c87565b50505050565b600080611e45611bb2565b9050611e5d87600001516000015160000151826126f1565b6040518060400160405280601881526020017f546869732069732061207365636f6e64617279206c6f636b000000000000000081525090611ed4576040517f08c379a0000000000000000000000000000000000000000000000000000000008152600401611ecb919061300f565b60405180910390fd5b504687600001516000015160200151146040518060400160405280600b81526020017f57726f6e6720636861696e00000000000000000000000000000000000000000081525090611f5b576040517f08c379a0000000000000000000000000000000000000000000000000000000008152600401611f52919061300f565b60405180910390fd5b50846040518060600160405280602381526020016141416023913990611fb7576040517f08c379a0000000000000000000000000000000000000000000000000000000008152600401611fae919061300f565b60405180910390fd5b5060016002811115611fcc57611fcb613c49565b5b8414158015611fed5750600280811115611fe957611fe8613c49565b5b8414155b6040518060600160405280602981526020016141646029913990612047576040517f08c379a000000000000000000000000000000000000000000000000000000000815260040161203e919061300f565b60405180910390fd5b508583106040518060400160405280600c81526020017f496e76616c69642054696d650000000000000000000000000000000000000000815250906120c2576040517f08c379a00000000000000000000000000000000000000000000000000000000081526004016120b9919061300f565b60405180910390fd5b50600191505095945050505050565b6120d9612d93565b6120e1612d93565b6120e9612dc3565b6120f1612df9565b6000805b86518110156126e45761215b6040518060400160405280600181526020017f3a000000000000000000000000000000000000000000000000000000000000008152506040516020016121479190613b83565b604051602081830303815290604052611d64565b6121a088838151811061217157612170613c78565b5b602001015160f81c60f81b60405160200161218c9190613cf4565b604051602081830303815290604052611d64565b141561260e57600082141561224b57612242600080546121bf90613b15565b80601f01602080910402602001604051908101604052809291908181526020018280546121eb90613b15565b80156122385780601f1061220d57610100808354040283529160200191612238565b820191906000526020600020905b81548152906001019060200180831161221b57829003601f168201915b505050505061274a565b83600001819052505b6001821415612302576122ef6122ea6000805461226790613b15565b80601f016020809104026020016040519081016040528092919081815260200182805461229390613b15565b80156122e05780601f106122b5576101008083540402835291602001916122e0565b820191906000526020600020905b8154815290600101906020018083116122c357829003601f168201915b505050505061274a565b612754565b8360200181815250508284600001819052505b60028214156123e7576123a66123a16000805461231e90613b15565b80601f016020809104026020016040519081016040528092919081815260200182805461234a90613b15565b80156123975780601f1061236c57610100808354040283529160200191612397565b820191906000526020600020905b81548152906001019060200180831161237a57829003601f168201915b505050505061274a565b612952565b846020019073ffffffffffffffffffffffffffffffffffffffff16908173ffffffffffffffffffffffffffffffffffffffff16815250508385600001819052505b600382141561248457600080546123fd90613b15565b80601f016020809104026020016040519081016040528092919081815260200182805461242990613b15565b80156124765780601f1061244b57610100808354040283529160200191612476565b820191906000526020600020905b81548152906001019060200180831161245957829003601f168201915b505050505085602001819052505b6004821415612521576000805461249a90613b15565b80601f01602080910402602001604051908101604052809291908181526020018280546124c690613b15565b80156125135780601f106124e857610100808354040283529160200191612513565b820191906000526020600020905b8154815290600101906020018083116124f657829003601f168201915b505050505085604001819052505b60058214156125d5576125c56125c06000805461253d90613b15565b80601f016020809104026020016040519081016040528092919081815260200182805461256990613b15565b80156125b65780601f1061258b576101008083540402835291602001916125b6565b820191906000526020600020905b81548152906001019060200180831161259957829003601f168201915b505050505061274a565b612c20565b8560600190151590811515815250505b60405180602001604052806000815250600090805190602001906125fa929190612e13565b50818061260690613d3e565b9250506126d1565b600087828151811061262357612622613c78565b5b602001015160f81c60f81b908080548061263c90613b15565b80601f811461264a57612660565b83600052602060002060ff1984168155603f9350505b506002820183556001810192505050600190038154600116156126925790600052602060002090602091828204019190065b909190919091601f036101000a81548160ff021916907f0100000000000000000000000000000000000000000000000000000000000000840402179055505b80806126dc90613d3e565b9150506120f5565b5083945050505050919050565b6000816040516020016127049190613b83565b604051602081830303815290604052805190602001208360405160200161272b9190613b83565b6040516020818303038152906040528051906020012014905092915050565b6060819050919050565b60008082905060008060008060009050600085519050808061277590613d87565b91505060008095505b865186101561283057600087878151811061279c5761279b613c78565b5b602001015160f81c60f81b60f81c60ff169050603081101580156127c1575060398111155b15612809576030816127d39190613db1565b600a856127e09190613de5565b6127ea9190613e3f565b935085806127f790613d3e565b965050828061280590613d87565b9350505b602e81141561281c576001915050612830565b50858061282890613d3e565b96505061277e565b80156128f85760006001866128459190613e3f565b90505b60128110156128f657600088828151811061286657612865613c78565b5b602001015160f81c60f81b60f81c60ff1690506030811015801561288b575060398111155b156128d35760308161289d9190613db1565b600a866128aa9190613de5565b6128b49190613e3f565b945085806128c190613d3e565b96505083806128cf90613d87565b9450505b60008414156128e257506128f6565b5080806128ee90613d3e565b915050612848565b505b60128410156129425760008460126129109190613db1565b9050600081600a6129219190613fc8565b9050808561292f9190613de5565b945084995050505050505050505061294d565b829750505050505050505b919050565b600080829050600080806000600290505b602a811015612c13576101008461297a9190614013565b935084818151811061298f5761298e613c78565b5b602001015160f81c60f81b60f81c60ff169250846001826129b09190613e3f565b815181106129c1576129c0613c78565b5b602001015160f81c60f81b60f81c60ff16915060618373ffffffffffffffffffffffffffffffffffffffff1610158015612a12575060668373ffffffffffffffffffffffffffffffffffffffff1611155b15612a2b57605783612a249190614061565b9250612ad7565b60418373ffffffffffffffffffffffffffffffffffffffff1610158015612a69575060468373ffffffffffffffffffffffffffffffffffffffff1611155b15612a8257603783612a7b9190614061565b9250612ad6565b60308373ffffffffffffffffffffffffffffffffffffffff1610158015612ac0575060398373ffffffffffffffffffffffffffffffffffffffff1611155b15612ad557603083612ad29190614061565b92505b5b5b60618273ffffffffffffffffffffffffffffffffffffffff1610158015612b15575060668273ffffffffffffffffffffffffffffffffffffffff1611155b15612b2e57605782612b279190614061565b9150612bda565b60418273ffffffffffffffffffffffffffffffffffffffff1610158015612b6c575060468273ffffffffffffffffffffffffffffffffffffffff1611155b15612b8557603782612b7e9190614061565b9150612bd9565b60308273ffffffffffffffffffffffffffffffffffffffff1610158015612bc3575060398273ffffffffffffffffffffffffffffffffffffffff1611155b15612bd857603082612bd59190614061565b91505b5b5b81601084612be89190614013565b612bf29190614095565b84612bfd9190614095565b9350600281612c0c9190613e3f565b9050612963565b5082945050505050919050565b6000604051602001612c319061412b565b6040516020818303038152906040528051906020012082604051602001612c589190613b83565b604051602081830303815290604052805190602001201415612c7d5760019050612c82565b600090505b919050565b828054612c9390613b15565b90600052602060002090601f016020900481019282612cb55760008555612cfc565b82601f10612cce57805160ff1916838001178555612cfc565b82800160010185558215612cfc579182015b82811115612cfb578251825591602001919060010190612ce0565b5b509050612d099190612e99565b5090565b828054612d1990613b15565b90600052602060002090601f016020900481019282612d3b5760008555612d82565b82601f10612d5457805160ff1916838001178555612d82565b82800160010185558215612d82579182015b82811115612d81578251825591602001919060010190612d66565b5b509050612d8f9190612e99565b5090565b6040518060800160405280612da6612dc3565b815260200160608152602001606081526020016000151581525090565b6040518060400160405280612dd6612df9565b8152602001600073ffffffffffffffffffffffffffffffffffffffff1681525090565b604051806040016040528060608152602001600081525090565b828054612e1f90613b15565b90600052602060002090601f016020900481019282612e415760008555612e88565b82601f10612e5a57805160ff1916838001178555612e88565b82800160010185558215612e88579182015b82811115612e87578251825591602001919060010190612e6c565b5b509050612e959190612e99565b5090565b5b80821115612eb2576000816000905550600101612e9a565b5090565b6000604051905090565b600080fd5b600080fd5b6000819050919050565b612edd81612eca565b8114612ee857600080fd5b50565b600081359050612efa81612ed4565b92915050565b6000819050919050565b612f1381612f00565b8114612f1e57600080fd5b50565b600081359050612f3081612f0a565b92915050565b60008060408385031215612f4d57612f4c612ec0565b5b6000612f5b85828601612eeb565b9250506020612f6c85828601612f21565b9150509250929050565b600081519050919050565b600082825260208201905092915050565b60005b83811015612fb0578082015181840152602081019050612f95565b83811115612fbf576000848401525b50505050565b6000601f19601f8301169050919050565b6000612fe182612f76565b612feb8185612f81565b9350612ffb818560208601612f92565b61300481612fc5565b840191505092915050565b600060208201905081810360008301526130298184612fd6565b905092915050565b600080fd5b7f4e487b7100000000000000000000000000000000000000000000000000000000600052604160045260246000fd5b61306e82612fc5565b810181811067ffffffffffffffff8211171561308d5761308c613036565b5b80604052505050565b60006130a0612eb6565b90506130ac8282613065565b919050565b600080fd5b600080fd5b600080fd5b600067ffffffffffffffff8211156130db576130da613036565b5b6130e482612fc5565b9050602081019050919050565b82818337600083830152505050565b600061311361310e846130c0565b613096565b90508281526020810184848401111561312f5761312e6130bb565b5b61313a8482856130f1565b509392505050565b600082601f830112613157576131566130b6565b5b8135613167848260208601613100565b91505092915050565b60006040828403121561318657613185613031565b5b6131906040613096565b9050600082013567ffffffffffffffff8111156131b0576131af6130b1565b5b6131bc84828501613142565b60008301525060206131d084828501612f21565b60208301525092915050565b600073ffffffffffffffffffffffffffffffffffffffff82169050919050565b6000613207826131dc565b9050919050565b613217816131fc565b811461322257600080fd5b50565b6000813590506132348161320e565b92915050565b6000604082840312156132505761324f613031565b5b61325a6040613096565b9050600082013567ffffffffffffffff81111561327a576132796130b1565b5b61328684828501613170565b600083015250602061329a84828501613225565b60208301525092915050565b600067ffffffffffffffff8211156132c1576132c0613036565b5b6132ca82612fc5565b9050602081019050919050565b60006132ea6132e5846132a6565b613096565b905082815260208101848484011115613306576133056130bb565b5b6133118482856130f1565b509392505050565b600082601f83011261332e5761332d6130b6565b5b813561333e8482602086016132d7565b91505092915050565b60008115159050919050565b61335c81613347565b811461336757600080fd5b50565b60008135905061337981613353565b92915050565b60006080828403121561339557613394613031565b5b61339f6080613096565b9050600082013567ffffffffffffffff8111156133bf576133be6130b1565b5b6133cb8482850161323a565b600083015250602082013567ffffffffffffffff8111156133ef576133ee6130b1565b5b6133fb84828501613319565b602083015250604082013567ffffffffffffffff81111561341f5761341e6130b1565b5b61342b84828501613319565b604083015250606061343f8482850161336a565b60608301525092915050565b6000806040838503121561346257613461612ec0565b5b600061347085828601612eeb565b925050602083013567ffffffffffffffff81111561349157613490612ec5565b5b61349d8582860161337f565b9150509250929050565b60008060008060008060c087890312156134c4576134c3612ec0565b5b600087013567ffffffffffffffff8111156134e2576134e1612ec5565b5b6134ee89828a01613142565b965050602087013567ffffffffffffffff81111561350f5761350e612ec5565b5b61351b89828a01613319565b955050604061352c89828a01612f21565b945050606061353d89828a0161336a565b935050608061354e89828a01612f21565b92505060a061355f89828a01612f21565b9150509295509295509295565b60006020828403121561358257613581612ec0565b5b600082013567ffffffffffffffff8111156135a05761359f612ec5565b5b6135ac84828501613142565b91505092915050565b60008060008060008060008060006101208a8c0312156135d8576135d7612ec0565b5b60008a013567ffffffffffffffff8111156135f6576135f5612ec5565b5b6136028c828d01613142565b99505060208a013567ffffffffffffffff81111561362357613622612ec5565b5b61362f8c828d01613319565b98505060408a013567ffffffffffffffff8111156136505761364f612ec5565b5b61365c8c828d01613142565b975050606061366d8c828d01612f21565b965050608061367e8c828d01613225565b95505060a061368f8c828d01612f21565b94505060c06136a08c828d0161336a565b93505060e06136b18c828d01612f21565b9250506101006136c38c828d01612f21565b9150509295985092959850929598565b6000602082840312156136e9576136e8612ec0565b5b60006136f784828501612eeb565b91505092915050565b61370981612f00565b82525050565b60006020820190506137246000830184613700565b92915050565b6000806040838503121561374157613740612ec0565b5b600061374f85828601612eeb565b925050602083013567ffffffffffffffff8111156137705761376f612ec5565b5b61377c85828601613142565b9150509250929050565b600082825260208201905092915050565b60006137a282612f76565b6137ac8185613786565b93506137bc818560208601612f92565b6137c581612fc5565b840191505092915050565b6137d981612f00565b82525050565b600060408301600083015184820360008601526137fc8282613797565b915050602083015161381160208601826137d0565b508091505092915050565b613825816131fc565b82525050565b6000604083016000830151848203600086015261384882826137df565b915050602083015161385d602086018261381c565b508091505092915050565b600081519050919050565b600082825260208201905092915050565b600061388f82613868565b6138998185613873565b93506138a9818560208601612f92565b6138b281612fc5565b840191505092915050565b6138c681613347565b82525050565b600060808201905081810360008301526138e6818761382b565b905081810360208301526138fa8186613884565b9050818103604083015261390e8185613884565b905061391d60608301846138bd565b95945050505050565b600080600080600060a0868803121561394257613941612ec0565b5b600086013567ffffffffffffffff8111156139605761395f612ec5565b5b61396c88828901613142565b955050602061397d88828901612f21565b945050604061398e8882890161336a565b935050606061399f88828901612f21565b92505060806139b088828901612f21565b9150509295509295909350565b600060408301600083015184820360008601526139da82826137df565b91505060208301516139ef602086018261381c565b508091505092915050565b600082825260208201905092915050565b6000613a1682613868565b613a2081856139fa565b9350613a30818560208601612f92565b613a3981612fc5565b840191505092915050565b613a4d81613347565b82525050565b60006080830160008301518482036000860152613a7082826139bd565b91505060208301518482036020860152613a8a8282613a0b565b91505060408301518482036040860152613aa48282613a0b565b9150506060830151613ab96060860182613a44565b508091505092915050565b60006020820190508181036000830152613ade8184613a53565b905092915050565b7f4e487b7100000000000000000000000000000000000000000000000000000000600052602260045260246000fd5b60006002820490506001821680613b2d57607f821691505b60208210811415613b4157613b40613ae6565b5b50919050565b600081905092915050565b6000613b5d82612f76565b613b678185613b47565b9350613b77818560208601612f92565b80840191505092915050565b6000613b8f8284613b52565b915081905092915050565b6000819050919050565b613bb5613bb082612f00565b613b9a565b82525050565b60008160601b9050919050565b6000613bd382613bbb565b9050919050565b6000613be582613bc8565b9050919050565b613bfd613bf8826131fc565b613bda565b82525050565b6000613c0f8287613b52565b9150613c1b8286613b52565b9150613c278285613ba4565b602082019150613c378284613bec565b60148201915081905095945050505050565b7f4e487b7100000000000000000000000000000000000000000000000000000000600052602160045260246000fd5b7f4e487b7100000000000000000000000000000000000000000000000000000000600052603260045260246000fd5b60007fff0000000000000000000000000000000000000000000000000000000000000082169050919050565b6000819050919050565b613cee613ce982613ca7565b613cd3565b82525050565b6000613d008284613cdd565b60018201915081905092915050565b7f4e487b7100000000000000000000000000000000000000000000000000000000600052601160045260246000fd5b6000613d4982612f00565b91507fffffffffffffffffffffffffffffffffffffffffffffffffffffffffffffffff821415613d7c57613d7b613d0f565b5b600182019050919050565b6000613d9282612f00565b91506000821415613da657613da5613d0f565b5b600182039050919050565b6000613dbc82612f00565b9150613dc783612f00565b925082821015613dda57613dd9613d0f565b5b828203905092915050565b6000613df082612f00565b9150613dfb83612f00565b9250817fffffffffffffffffffffffffffffffffffffffffffffffffffffffffffffffff0483118215151615613e3457613e33613d0f565b5b828202905092915050565b6000613e4a82612f00565b9150613e5583612f00565b9250827fffffffffffffffffffffffffffffffffffffffffffffffffffffffffffffffff03821115613e8a57613e89613d0f565b5b828201905092915050565b60008160011c9050919050565b6000808291508390505b6001851115613eec57808604811115613ec857613ec7613d0f565b5b6001851615613ed75780820291505b8081029050613ee585613e95565b9450613eac565b94509492505050565b600082613f055760019050613fc1565b81613f135760009050613fc1565b8160018114613f295760028114613f3357613f62565b6001915050613fc1565b60ff841115613f4557613f44613d0f565b5b8360020a915084821115613f5c57613f5b613d0f565b5b50613fc1565b5060208310610133831016604e8410600b8410161715613f975782820a905083811115613f9257613f91613d0f565b5b613fc1565b613fa48484846001613ea2565b92509050818404811115613fbb57613fba613d0f565b5b81810290505b9392505050565b6000613fd382612f00565b9150613fde83612f00565b925061400b7fffffffffffffffffffffffffffffffffffffffffffffffffffffffffffffffff8484613ef5565b905092915050565b600061401e826131dc565b9150614029836131dc565b92508173ffffffffffffffffffffffffffffffffffffffff048311821515161561405657614055613d0f565b5b828202905092915050565b600061406c826131dc565b9150614077836131dc565b92508282101561408a57614089613d0f565b5b828203905092915050565b60006140a0826131dc565b91506140ab836131dc565b92508273ffffffffffffffffffffffffffffffffffffffff038211156140d4576140d3613d0f565b5b828201905092915050565b7f7472756500000000000000000000000000000000000000000000000000000000600082015250565b6000614115600483613b47565b9150614120826140df565b600482019050919050565b600061413682614108565b915081905091905056fe4e6f7420666f756e64207072696d617279207072657061726520747820737461747573496e76616c6964207478207374617475732069742073686f756c64206e6f742068617665206c6f636ba2646970667358221220fc94ccc0ba1e8219b1003ed7657b39f3b73829c38f9aa802ee06dc51c162ec2564736f6c63430008090033",
  "immutableReferences": {},
  "source": "// SPDX-License-Identifier: GPL-3.0\npragma solidity >=0.7.0 <0.9.0;\n\nimport \"../sidemesh/Sidemesh.sol\";\n\ncontract LockManager is Sidemesh {\n\n    mapping(bytes32 => Lock)public locks;\n    mapping(bytes32 => string[])public writeKeySet;\n    mapping(bytes32 => string[])public wSet;\n\n    function checkTimeoutLock(Lock memory lock, uint cur, bool isValid, uint status, uint ttlTime)internal view returns(bool){\n        string memory network = getNetwork();\n        \n        require(Lib.equals(lock.primaryPrepareTxId.uri.network, network), ERROR_SECONDARY_LOCK);\n        require(lock.primaryPrepareTxId.uri.chain == block.chainid, ERROR_WRONG_CHAIN);\n\n        require(isValid, ERROR_NO_PRIMARY_TX);\n\n        require(\n            status != uint(GlobalTransactionStatusType.PRIMARY_TRANSACTION_COMMITTED) &&\n            status != uint(GlobalTransactionStatusType.PRIMARY_TRANSACTION_CANCELED),\n            ERROR_INVALID_TX_STATUS);\n        \n        require(ttlTime < cur, ERROR_INVALID_TIME);\n\n        return true;\n    }\n    \n    function putWriteKey(string memory key)internal{\n        string memory network = getNetwork();\n        bytes32 xidKey = Lib.hash(abi.encodePacked(PREFIX, network, block.chainid, msg.sender));\n\n        writeKeySet[xidKey].push(key);\n    }\n\n    function putLock(bytes32 hash, Lock memory lock)external{\n        locks[hash] = lock;\n    }\n\n    function getWriteKeySetLength(bytes32 hash)external view returns(uint){\n        return writeKeySet[hash].length;\n    }\n\n    function getWSetLength(bytes32 hash)external view returns(uint){\n        return wSet[hash].length;\n    }\n\n    function putWSet(bytes32 hash, string memory value)external{\n        wSet[hash].push(value);\n    }\n\n    function getStateMaybeLocked(\n        string memory key,\n        uint cur,\n        bool isValid,\n        uint status,\n        uint ttlTime)\n        external view returns(Lock memory){\n            bytes32 keyHash = Lib.hash(abi.encodePacked(key));\n\n            require(checkTimeoutLock(locks[keyHash], cur, isValid, status, ttlTime), ERROR_EXPIRED_LOCK);\n\n            return locks[keyHash];\n        }\n\n    function putStateMaybeLocked(\n        string memory key,\n        bytes memory value,\n        uint cur,\n        bool isValid,\n        uint status,\n        uint ttlTime)\n        external{\n            bytes32 keyHash = Lib.hash(abi.encodePacked(key));\n\n            if(!locks[keyHash].isValid){\n                locks[keyHash] = lockDeserializer(value);\n                return;\n            }\n\n            require(checkTimeoutLock(locks[keyHash], cur, isValid, status, ttlTime), ERROR_EXPIRED_LOCK);\n        }\n\n    function putLockedStateWithPrimaryLock(\n        string memory key,\n        bytes memory value,\n        uint cur,\n        bool isValid,\n        uint status,\n        uint ttlTime)\n        external{\n            string memory network = getNetwork();\n            bytes32 keyHash = Lib.hash(abi.encodePacked(key));\n            \n            TransactionID memory primaryPrepareTxId = TransactionID(URI(network, block.chainid), msg.sender);\n            \n            if(!locks[keyHash].isValid){\n                Lock memory lock;\n                lock.updatingState = value;\n                lock.primaryPrepareTxId = primaryPrepareTxId;\n                lock.isValid = true;\n                locks[keyHash] = lock;\n                putWriteKey(key);\n                return;\n            }\n\n            require(checkTimeoutLock(locks[keyHash], cur, isValid, status, ttlTime), ERROR_EXPIRED_LOCK);\n        }\n\n    function putLockedStateWithNetworkLock(\n        string memory key,\n        bytes memory value,\n        string memory primaryNetwork,\n        uint primaryChain,\n        address primaryTxSender,\n        uint cur,\n        bool isValid,\n        uint status,\n        uint ttlTime)\n        external{\n            bytes32 keyHash = Lib.hash(abi.encodePacked(key));\n            TransactionID memory primaryPrepareTxId = TransactionID(URI(primaryNetwork, primaryChain), primaryTxSender);\n            \n            if(!locks[keyHash].isValid){\n                Lock memory lock;\n                lock.updatingState = value;\n                lock.primaryPrepareTxId = primaryPrepareTxId;\n                lock.isValid = true;\n                locks[keyHash] = lock;\n                putWriteKey(key);\n                return;\n            }\n\n            require(checkTimeoutLock(locks[keyHash], cur, isValid, status, ttlTime), ERROR_EXPIRED_LOCK);\n        }\n}",
  "sourcePath": "/Users/shri99/WebProjects/sidemesh-solidity/contracts/lock/LockManager.sol",
  "compiler": {
    "name": "solc",
    "version": "0.8.9+commit.e5eed63a.Emscripten.clang"
  },
  "schemaVersion": "3.3.3",
  "updatedAt": "2021-11-06T19:47:30.736Z",
  "networkType": "ethereum",
  "devdoc": {
    "kind": "dev",
    "methods": {},
    "version": 1
  },
  "userdoc": {
    "kind": "user",
    "methods": {},
    "version": 1
  }
}