{
  "contractName": "LockManager",
  "abi": [
    {
      "inputs": [
        {
          "internalType": "address",
          "name": "_sidemesh",
          "type": "address"
        }
      ],
      "stateMutability": "nonpayable",
      "type": "constructor"
    },
    {
      "inputs": [
        {
          "internalType": "bytes",
          "name": "data",
          "type": "bytes"
        }
      ],
      "name": "lockDeserializer",
      "outputs": [
        {
          "components": [
            {
              "components": [
                {
                  "components": [
                    {
                      "internalType": "string",
                      "name": "network",
                      "type": "string"
                    },
                    {
                      "internalType": "uint256",
                      "name": "chain",
                      "type": "uint256"
                    }
                  ],
                  "internalType": "struct Structs.URI",
                  "name": "uri",
                  "type": "tuple"
                },
                {
                  "internalType": "address",
                  "name": "sender",
                  "type": "address"
                }
              ],
              "internalType": "struct Structs.TransactionID",
              "name": "primaryPrepareTxId",
              "type": "tuple"
            },
            {
              "internalType": "bytes",
              "name": "prevState",
              "type": "bytes"
            },
            {
              "internalType": "bytes",
              "name": "updatingState",
              "type": "bytes"
            },
            {
              "internalType": "bool",
              "name": "isValid",
              "type": "bool"
            }
          ],
          "internalType": "struct Structs.Lock",
          "name": "",
          "type": "tuple"
        }
      ],
      "stateMutability": "nonpayable",
      "type": "function"
    },
    {
      "inputs": [
        {
          "internalType": "bytes32",
          "name": "hash",
          "type": "bytes32"
        }
      ],
      "name": "getLock",
      "outputs": [
        {
          "components": [
            {
              "components": [
                {
                  "components": [
                    {
                      "internalType": "string",
                      "name": "network",
                      "type": "string"
                    },
                    {
                      "internalType": "uint256",
                      "name": "chain",
                      "type": "uint256"
                    }
                  ],
                  "internalType": "struct Structs.URI",
                  "name": "uri",
                  "type": "tuple"
                },
                {
                  "internalType": "address",
                  "name": "sender",
                  "type": "address"
                }
              ],
              "internalType": "struct Structs.TransactionID",
              "name": "primaryPrepareTxId",
              "type": "tuple"
            },
            {
              "internalType": "bytes",
              "name": "prevState",
              "type": "bytes"
            },
            {
              "internalType": "bytes",
              "name": "updatingState",
              "type": "bytes"
            },
            {
              "internalType": "bool",
              "name": "isValid",
              "type": "bool"
            }
          ],
          "internalType": "struct Structs.Lock",
          "name": "",
          "type": "tuple"
        }
      ],
      "stateMutability": "view",
      "type": "function"
    },
    {
      "inputs": [
        {
          "internalType": "bytes32",
          "name": "hash",
          "type": "bytes32"
        },
        {
          "components": [
            {
              "components": [
                {
                  "components": [
                    {
                      "internalType": "string",
                      "name": "network",
                      "type": "string"
                    },
                    {
                      "internalType": "uint256",
                      "name": "chain",
                      "type": "uint256"
                    }
                  ],
                  "internalType": "struct Structs.URI",
                  "name": "uri",
                  "type": "tuple"
                },
                {
                  "internalType": "address",
                  "name": "sender",
                  "type": "address"
                }
              ],
              "internalType": "struct Structs.TransactionID",
              "name": "primaryPrepareTxId",
              "type": "tuple"
            },
            {
              "internalType": "bytes",
              "name": "prevState",
              "type": "bytes"
            },
            {
              "internalType": "bytes",
              "name": "updatingState",
              "type": "bytes"
            },
            {
              "internalType": "bool",
              "name": "isValid",
              "type": "bool"
            }
          ],
          "internalType": "struct Structs.Lock",
          "name": "lock",
          "type": "tuple"
        }
      ],
      "name": "putLock",
      "outputs": [],
      "stateMutability": "nonpayable",
      "type": "function"
    },
    {
      "inputs": [
        {
          "internalType": "bytes32",
          "name": "xidKey",
          "type": "bytes32"
        },
        {
          "internalType": "uint256",
          "name": "i",
          "type": "uint256"
        }
      ],
      "name": "getWriteKeySet",
      "outputs": [
        {
          "internalType": "string",
          "name": "",
          "type": "string"
        }
      ],
      "stateMutability": "view",
      "type": "function"
    },
    {
      "inputs": [
        {
          "internalType": "bytes32",
          "name": "hash",
          "type": "bytes32"
        }
      ],
      "name": "getWriteKeySetLength",
      "outputs": [
        {
          "internalType": "uint256",
          "name": "",
          "type": "uint256"
        }
      ],
      "stateMutability": "view",
      "type": "function"
    },
    {
      "inputs": [
        {
          "internalType": "bytes32",
          "name": "xidKey",
          "type": "bytes32"
        },
        {
          "internalType": "uint256",
          "name": "i",
          "type": "uint256"
        }
      ],
      "name": "getWSet",
      "outputs": [
        {
          "internalType": "string",
          "name": "",
          "type": "string"
        }
      ],
      "stateMutability": "view",
      "type": "function"
    },
    {
      "inputs": [
        {
          "internalType": "bytes32",
          "name": "hash",
          "type": "bytes32"
        }
      ],
      "name": "getWSetLength",
      "outputs": [
        {
          "internalType": "uint256",
          "name": "",
          "type": "uint256"
        }
      ],
      "stateMutability": "view",
      "type": "function"
    },
    {
      "inputs": [
        {
          "internalType": "bytes32",
          "name": "hash",
          "type": "bytes32"
        },
        {
          "internalType": "string",
          "name": "value",
          "type": "string"
        }
      ],
      "name": "putWSet",
      "outputs": [],
      "stateMutability": "nonpayable",
      "type": "function"
    },
    {
      "inputs": [
        {
          "internalType": "string",
          "name": "key",
          "type": "string"
        },
        {
          "internalType": "uint256",
          "name": "cur",
          "type": "uint256"
        },
        {
          "internalType": "bool",
          "name": "isValid",
          "type": "bool"
        },
        {
          "internalType": "uint256",
          "name": "status",
          "type": "uint256"
        },
        {
          "internalType": "uint256",
          "name": "ttlTime",
          "type": "uint256"
        }
      ],
      "name": "getStateMaybeLocked",
      "outputs": [
        {
          "components": [
            {
              "components": [
                {
                  "components": [
                    {
                      "internalType": "string",
                      "name": "network",
                      "type": "string"
                    },
                    {
                      "internalType": "uint256",
                      "name": "chain",
                      "type": "uint256"
                    }
                  ],
                  "internalType": "struct Structs.URI",
                  "name": "uri",
                  "type": "tuple"
                },
                {
                  "internalType": "address",
                  "name": "sender",
                  "type": "address"
                }
              ],
              "internalType": "struct Structs.TransactionID",
              "name": "primaryPrepareTxId",
              "type": "tuple"
            },
            {
              "internalType": "bytes",
              "name": "prevState",
              "type": "bytes"
            },
            {
              "internalType": "bytes",
              "name": "updatingState",
              "type": "bytes"
            },
            {
              "internalType": "bool",
              "name": "isValid",
              "type": "bool"
            }
          ],
          "internalType": "struct Structs.Lock",
          "name": "",
          "type": "tuple"
        }
      ],
      "stateMutability": "view",
      "type": "function"
    },
    {
      "inputs": [
        {
          "internalType": "string",
          "name": "key",
          "type": "string"
        },
        {
          "internalType": "bytes",
          "name": "value",
          "type": "bytes"
        },
        {
          "internalType": "uint256",
          "name": "cur",
          "type": "uint256"
        },
        {
          "internalType": "bool",
          "name": "isValid",
          "type": "bool"
        },
        {
          "internalType": "uint256",
          "name": "status",
          "type": "uint256"
        },
        {
          "internalType": "uint256",
          "name": "ttlTime",
          "type": "uint256"
        }
      ],
      "name": "putStateMaybeLocked",
      "outputs": [],
      "stateMutability": "nonpayable",
      "type": "function"
    },
    {
      "inputs": [
        {
          "internalType": "string",
          "name": "key",
          "type": "string"
        },
        {
          "internalType": "bytes",
          "name": "value",
          "type": "bytes"
        },
        {
          "internalType": "uint256",
          "name": "cur",
          "type": "uint256"
        },
        {
          "internalType": "bool",
          "name": "isValid",
          "type": "bool"
        },
        {
          "internalType": "uint256",
          "name": "status",
          "type": "uint256"
        },
        {
          "internalType": "uint256",
          "name": "ttlTime",
          "type": "uint256"
        }
      ],
      "name": "putLockedStateWithPrimaryLock",
      "outputs": [],
      "stateMutability": "nonpayable",
      "type": "function"
    },
    {
      "inputs": [
        {
          "internalType": "string",
          "name": "key",
          "type": "string"
        },
        {
          "internalType": "bytes",
          "name": "value",
          "type": "bytes"
        },
        {
          "internalType": "string",
          "name": "primaryNetwork",
          "type": "string"
        },
        {
          "internalType": "uint256",
          "name": "primaryChain",
          "type": "uint256"
        },
        {
          "internalType": "address",
          "name": "primaryTxSender",
          "type": "address"
        },
        {
          "internalType": "uint256",
          "name": "cur",
          "type": "uint256"
        },
        {
          "internalType": "bool",
          "name": "isValid",
          "type": "bool"
        },
        {
          "internalType": "uint256",
          "name": "status",
          "type": "uint256"
        },
        {
          "internalType": "uint256",
          "name": "ttlTime",
          "type": "uint256"
        }
      ],
      "name": "putLockedStateWithNetworkLock",
      "outputs": [],
      "stateMutability": "nonpayable",
      "type": "function"
    }
  ],
  "bytecode": "0x60806040523480156200001157600080fd5b5060405162002c3538038062002c3583398101604081905262000034916200005a565b600380546001600160a01b0319166001600160a01b03929092169190911790556200008c565b6000602082840312156200006d57600080fd5b81516001600160a01b03811681146200008557600080fd5b9392505050565b612b99806200009c6000396000f3fe608060405234801561001057600080fd5b50600436106100d45760003560e01c8063b5081f2d11610081578063e817aaa51161005b578063e817aaa5146101c4578063f0059128146101e4578063fb24f56c146101f757600080fd5b8063b5081f2d14610163578063ba70311e14610191578063d6f27b58146101a457600080fd5b8063929c2161116100b2578063929c21611461012a578063962ba62e1461013d5780639e1d82341461015057600080fd5b80635732a361146100d957806361877d6a146100ee57806365832b8d14610117575b600080fd5b6100ec6100e73660046122fe565b61020a565b005b6101016100fc36600461243f565b6102c9565b60405161010e91906124b9565b60405180910390f35b6100ec6101253660046124d3565b610389565b61010161013836600461243f565b6107f3565b6100ec61014b366004612563565b610817565b6100ec61015e3660046124d3565b610be7565b610183610171366004612634565b60009081526002602052604090205490565b60405190815260200161010e565b6100ec61019f36600461264d565b610f70565b6101b76101b2366004612634565b610fa7565b60405161010e9190612694565b6101836101d2366004612634565b60009081526001602052604090205490565b6101b76101f2366004612739565b6111d1565b6101b76102053660046127a2565b6114ad565b60008281526020818152604090912082518051805180518695859392849261023592849201906120cb565b5060209182015160019091015591820151600290910180546001600160a01b0390921673ffffffffffffffffffffffffffffffffffffffff1990921691909117905582810151805161028d92600385019201906120cb565b50604082015180516102a99160048401916020909101906120cb565b50606091909101516005909101805460ff19169115159190911790555050565b6000828152600260205260409020805460609190839081106102ed576102ed6127df565b906000526020600020018054610302906127f5565b80601f016020809104026020016040519081016040528092919081815260200182805461032e906127f5565b801561037b5780601f106103505761010080835404028352916020019161037b565b820191906000526020600020905b81548152906001019060200180831161035e57829003601f168201915b505050505090505b92915050565b600354604080516307e4b7e960e01b815290516000926001600160a01b0316916307e4b7e99160048083019286929190829003018186803b1580156103cd57600080fd5b505afa1580156103e1573d6000803e3d6000fd5b505050506040513d6000823e601f3d908101601f191682016040526104099190810190612830565b9050600061043b8860405160200161042191906128a7565b604051602081830303815290604052805160209091012090565b6040805160808101825280820185815246606083015281523360208083019190915260008481529081905291909120600501549192509060ff1661055e5761048161214f565b60408082018a905282825260016060830152600084815260208181529190208251805180518051869585939284926104bc92849201906120cb565b5060209182015160019091015591820151600290910180546001600160a01b0390921673ffffffffffffffffffffffffffffffffffffffff1990921691909117905582810151805161051492600385019201906120cb565b50604082015180516105309160048401916020909101906120cb565b50606091909101516005909101805460ff19169115159190911790556105558a6118e8565b505050506107eb565b60008281526020819052604090819020815161010081019092528054610789929190829060808201908390829060c085019083908290829061059f906127f5565b80601f01602080910402602001604051908101604052809291908181526020018280546105cb906127f5565b80156106185780601f106105ed57610100808354040283529160200191610618565b820191906000526020600020905b8154815290600101906020018083116105fb57829003601f168201915b505050918352505060019190910154602091820152908252600292909201546001600160a01b031690820152908252600383018054929091019161065b906127f5565b80601f0160208091040260200160405190810160405280929190818152602001828054610687906127f5565b80156106d45780601f106106a9576101008083540402835291602001916106d4565b820191906000526020600020905b8154815290600101906020018083116106b757829003601f168201915b505050505081526020016004820180546106ed906127f5565b80601f0160208091040260200160405190810160405280929190818152602001828054610719906127f5565b80156107665780601f1061073b57610100808354040283529160200191610766565b820191906000526020600020905b81548152906001019060200180831161074957829003601f168201915b50505091835250506005919091015460ff161515602090910152888888886119f2565b6040518060400160405280601f81526020017f4e6565642052656c656173652045787069726564204c6f636b204572726f7200815250906107e65760405162461bcd60e51b81526004016107dd91906124b9565b60405180910390fd5b505050505b505050505050565b6000828152600160205260409020805460609190839081106102ed576102ed6127df565b600061082d8a60405160200161042191906128a7565b604080516080810182528082018b8152606082018b905281526001600160a01b03891660208083019190915260008481529081905291909120600501549192509060ff166109595761087d61214f565b60408082018c905282825260016060830152600084815260208181529190208251805180518051869585939284926108b892849201906120cb565b5060209182015160019091015591820151600290910180546001600160a01b0390921673ffffffffffffffffffffffffffffffffffffffff1990921691909117905582810151805161091092600385019201906120cb565b506040820151805161092c9160048401916020909101906120cb565b50606091909101516005909101805460ff19169115159190911790556109518c6118e8565b505050610bdc565b60008281526020819052604090819020815161010081019092528054610b84929190829060808201908390829060c085019083908290829061099a906127f5565b80601f01602080910402602001604051908101604052809291908181526020018280546109c6906127f5565b8015610a135780601f106109e857610100808354040283529160200191610a13565b820191906000526020600020905b8154815290600101906020018083116109f657829003601f168201915b505050918352505060019190910154602091820152908252600292909201546001600160a01b0316908201529082526003830180549290910191610a56906127f5565b80601f0160208091040260200160405190810160405280929190818152602001828054610a82906127f5565b8015610acf5780601f10610aa457610100808354040283529160200191610acf565b820191906000526020600020905b815481529060010190602001808311610ab257829003601f168201915b50505050508152602001600482018054610ae8906127f5565b80601f0160208091040260200160405190810160405280929190818152602001828054610b14906127f5565b8015610b615780601f10610b3657610100808354040283529160200191610b61565b820191906000526020600020905b815481529060010190602001808311610b4457829003601f168201915b50505091835250506005919091015460ff161515602090910152878787876119f2565b6040518060400160405280601f81526020017f4e6565642052656c656173652045787069726564204c6f636b204572726f720081525090610bd85760405162461bcd60e51b81526004016107dd91906124b9565b5050505b505050505050505050565b6000610bfd8760405160200161042191906128a7565b60008181526020819052604090206005015490915060ff16610ce757610c22866114ad565b60008281526020818152604090912082518051805180519394929385938492610c5192849291909101906120cb565b5060209182015160019091015591820151600290910180546001600160a01b0390921673ffffffffffffffffffffffffffffffffffffffff19909216919091179055828101518051610ca992600385019201906120cb565b5060408201518051610cc59160048401916020909101906120cb565b50606091909101516005909101805460ff1916911515919091179055506107eb565b60008181526020819052604090819020815161010081019092528054610f12929190829060808201908390829060c0850190839082908290610d28906127f5565b80601f0160208091040260200160405190810160405280929190818152602001828054610d54906127f5565b8015610da15780601f10610d7657610100808354040283529160200191610da1565b820191906000526020600020905b815481529060010190602001808311610d8457829003601f168201915b505050918352505060019190910154602091820152908252600292909201546001600160a01b0316908201529082526003830180549290910191610de4906127f5565b80601f0160208091040260200160405190810160405280929190818152602001828054610e10906127f5565b8015610e5d5780601f10610e3257610100808354040283529160200191610e5d565b820191906000526020600020905b815481529060010190602001808311610e4057829003601f168201915b50505050508152602001600482018054610e76906127f5565b80601f0160208091040260200160405190810160405280929190818152602001828054610ea2906127f5565b8015610eef5780601f10610ec457610100808354040283529160200191610eef565b820191906000526020600020905b815481529060010190602001808311610ed257829003601f168201915b50505091835250506005919091015460ff161515602090910152868686866119f2565b6040518060400160405280601f81526020017f4e6565642052656c656173652045787069726564204c6f636b204572726f720081525090610f665760405162461bcd60e51b81526004016107dd91906124b9565b5050505050505050565b600082815260026020908152604082208054600181018255908352918190208351610fa29391909101918401906120cb565b505050565b610faf61214f565b60008281526020819052604090819020815161010081019092528054829060808201908390829060c0850190839082908290610fea906127f5565b80601f0160208091040260200160405190810160405280929190818152602001828054611016906127f5565b80156110635780601f1061103857610100808354040283529160200191611063565b820191906000526020600020905b81548152906001019060200180831161104657829003601f168201915b505050918352505060019190910154602091820152908252600292909201546001600160a01b03169082015290825260038301805492909101916110a6906127f5565b80601f01602080910402602001604051908101604052809291908181526020018280546110d2906127f5565b801561111f5780601f106110f45761010080835404028352916020019161111f565b820191906000526020600020905b81548152906001019060200180831161110257829003601f168201915b50505050508152602001600482018054611138906127f5565b80601f0160208091040260200160405190810160405280929190818152602001828054611164906127f5565b80156111b15780601f10611186576101008083540402835291602001916111b1565b820191906000526020600020905b81548152906001019060200180831161119457829003601f168201915b50505091835250506005919091015460ff16151560209091015292915050565b6111d961214f565b60006111ef8760405160200161042191906128a7565b6000818152602081905260409081902081516101008101909252805492935061123192829060808201908390829060c085019083908290829061099a906127f5565b6040518060400160405280601f81526020017f4e6565642052656c656173652045787069726564204c6f636b204572726f7200815250906112855760405162461bcd60e51b81526004016107dd91906124b9565b5060008181526020819052604090819020815161010081019092528054829060808201908390829060c08501908390829082906112c1906127f5565b80601f01602080910402602001604051908101604052809291908181526020018280546112ed906127f5565b801561133a5780601f1061130f5761010080835404028352916020019161133a565b820191906000526020600020905b81548152906001019060200180831161131d57829003601f168201915b505050918352505060019190910154602091820152908252600292909201546001600160a01b031690820152908252600383018054929091019161137d906127f5565b80601f01602080910402602001604051908101604052809291908181526020018280546113a9906127f5565b80156113f65780601f106113cb576101008083540402835291602001916113f6565b820191906000526020600020905b8154815290600101906020018083116113d957829003601f168201915b5050505050815260200160048201805461140f906127f5565b80601f016020809104026020016040519081016040528092919081815260200182805461143b906127f5565b80156114885780601f1061145d57610100808354040283529160200191611488565b820191906000526020600020905b81548152906001019060200180831161146b57829003601f168201915b50505091835250506005919091015460ff161515602090910152979650505050505050565b6114b561214f565b6114bd61214f565b6114c561217c565b6040805180820190915260608152600060208201526000805b86518110156118dd576115306040518060400160405280600181526020017f3a0000000000000000000000000000000000000000000000000000000000000081525060405160200161042191906128a7565b611582888381518110611545576115456127df565b016020908101516040517fff0000000000000000000000000000000000000000000000000000000000000090911691810191909152602101610421565b141561181257816116215761161e6004805461159d906127f5565b80601f01602080910402602001604051908101604052809291908181526020018280546115c9906127f5565b80156116165780601f106115eb57610100808354040283529160200191611616565b820191906000526020600020905b8154815290600101906020018083116115f957829003601f168201915b505050505090565b83525b816001141561164b5761164261163d6004805461159d906127f5565b611c25565b60208401528284525b816002141561167e5761166c6116676004805461159d906127f5565b611de8565b6001600160a01b031660208501528385525b816003141561171b5760048054611694906127f5565b80601f01602080910402602001604051908101604052809291908181526020018280546116c0906127f5565b801561170d5780601f106116e25761010080835404028352916020019161170d565b820191906000526020600020905b8154815290600101906020018083116116f057829003601f168201915b505050505085602001819052505b81600414156117b85760048054611731906127f5565b80601f016020809104026020016040519081016040528092919081815260200182805461175d906127f5565b80156117aa5780601f1061177f576101008083540402835291602001916117aa565b820191906000526020600020905b81548152906001019060200180831161178d57829003601f168201915b505050505085604001819052505b81600514156117e1576117d96117d46004805461159d906127f5565b611fd5565b151560608601525b6040805160208101918290526000908190526117ff916004916120cb565b508161180a816128d9565b9250506118cb565b6004878281518110611826576118266127df565b602001015160f81c60f81b908080548061183f906127f5565b80601f811461184d57611863565b83600052602060002060ff1984168155603f9350505b5060029190910190915581546001161561188c5790600052602060002090602091828204019190065b909190919091601f036101000a81548160ff021916907f0100000000000000000000000000000000000000000000000000000000000000840402179055505b806118d5816128d9565b9150506114de565b509295945050505050565b600354604080516307e4b7e960e01b815290516000926001600160a01b0316916307e4b7e99160048083019286929190829003018186803b15801561192c57600080fd5b505afa158015611940573d6000803e3d6000fd5b505050506040513d6000823e601f3d908101601f191682016040526119689190810190612830565b905060006119bb6040518060400160405280600a81526020017f534944455f4d4553485f0000000000000000000000000000000000000000000081525083463360405160200161042194939291906128f4565b600081815260016020818152604083208054928301815583529182902086519394506119ec939101918601906120cb565b50505050565b600080600360009054906101000a90046001600160a01b03166001600160a01b03166307e4b7e96040518163ffffffff1660e01b815260040160006040518083038186803b158015611a4357600080fd5b505afa158015611a57573d6000803e3d6000fd5b505050506040513d6000823e601f3d908101601f19168201604052611a7f9190810190612830565b87515151909150611a90908261205c565b6040518060400160405280601881526020017f546869732069732061207365636f6e64617279206c6f636b000000000000000081525090611ae45760405162461bcd60e51b81526004016107dd91906124b9565b504687600001516000015160200151146040518060400160405280600b81526020017f57726f6e6720636861696e00000000000000000000000000000000000000000081525090611b485760405162461bcd60e51b81526004016107dd91906124b9565b5084604051806060016040528060238152602001612b186023913990611b815760405162461bcd60e51b81526004016107dd91906124b9565b50611b8b846120b5565b604051806060016040528060298152602001612b3b6029913990611bc25760405162461bcd60e51b81526004016107dd91906124b9565b5060408051808201909152600c81527f496e76616c69642054696d6500000000000000000000000000000000000000006020820152868410611c175760405162461bcd60e51b81526004016107dd91906124b9565b506001979650505050505050565b80516000908290829081908190819080611c3e81612940565b91505060008095505b8651861015611ce9576000878781518110611c6457611c646127df565b016020015160f81c905060308110801590611c80575060398111155b15611cc357611c90603082612957565b611c9b85600a61296e565b611ca5919061298d565b935085611cb1816128d9565b9650508280611cbf90612940565b9350505b80602e1415611cd6576001915050611ce9565b5085611ce1816128d9565b965050611c47565b8015611d9b576000611cfc86600161298d565b90505b6012811015611d99576000888281518110611d1c57611d1c6127df565b016020015160f81c905060308110801590611d38575060398111155b15611d7b57611d48603082612957565b611d5386600a61296e565b611d5d919061298d565b945085611d69816128d9565b9650508380611d7790612940565b9450505b83611d865750611d99565b5080611d91816128d9565b915050611cff565b505b6012841015611ddb576000611db1856012612957565b90506000611dc082600a612a89565b9050611dcc818661296e565b9b9a5050505050505050505050565b5090979650505050505050565b60008181808060025b602a811015611fca57611e0661010085612a95565b9350848181518110611e1a57611e1a6127df565b016020015160f81c925084611e3082600161298d565b81518110611e4057611e406127df565b016020015160f81c915060616001600160a01b03841610801590611e6e57506066836001600160a01b031611155b15611e8557611e7e605784612ac4565b9250611ef0565b6041836001600160a01b031610158015611ea957506046836001600160a01b031611155b15611eb957611e7e603784612ac4565b6030836001600160a01b031610158015611edd57506039836001600160a01b031611155b15611ef057611eed603084612ac4565b92505b6061826001600160a01b031610158015611f1457506066826001600160a01b031611155b15611f2b57611f24605783612ac4565b9150611f96565b6041826001600160a01b031610158015611f4f57506046826001600160a01b031611155b15611f5f57611f24603783612ac4565b6030826001600160a01b031610158015611f8357506039826001600160a01b031611155b15611f9657611f93603083612ac4565b91505b81611fa2846010612a95565b611fac9190612aec565b611fb69085612aec565b9350611fc360028261298d565b9050611df1565b509195945050505050565b6040517f74727565000000000000000000000000000000000000000000000000000000006020820152600090602401604051602081830303815290604052805190602001208260405160200161202b91906128a7565b60405160208183030381529060405280519060200120141561204f57506001919050565b506000919050565b919050565b60008160405160200161206f91906128a7565b604051602081830303815290604052805190602001208360405160200161209691906128a7565b6040516020818303038152906040528051906020012014905092915050565b6000600182141580156103835750506002141590565b8280546120d7906127f5565b90600052602060002090601f0160209004810192826120f9576000855561213f565b82601f1061211257805160ff191683800117855561213f565b8280016001018555821561213f579182015b8281111561213f578251825591602001919060010190612124565b5061214b9291506121b1565b5090565b604051806080016040528061216261217c565b815260606020820181905260408201819052600091015290565b60405180604001604052806121a4604051806040016040528060608152602001600081525090565b8152600060209091015290565b5b8082111561214b57600081556001016121b2565b634e487b7160e01b600052604160045260246000fd5b6040516080810167ffffffffffffffff811182821017156121ff576121ff6121c6565b60405290565b6040805190810167ffffffffffffffff811182821017156121ff576121ff6121c6565b604051601f8201601f1916810167ffffffffffffffff81118282101715612251576122516121c6565b604052919050565b600067ffffffffffffffff821115612273576122736121c6565b50601f01601f191660200190565b600082601f83011261229257600080fd5b81356122a56122a082612259565b612228565b8181528460208386010111156122ba57600080fd5b816020850160208301376000918101602001919091529392505050565b80356001600160a01b038116811461205757600080fd5b8035801515811461205757600080fd5b6000806040838503121561231157600080fd5b8235915060208084013567ffffffffffffffff8082111561233157600080fd5b908501906080828803121561234557600080fd5b61234d6121dc565b82358281111561235c57600080fd5b83016040818a03121561236e57600080fd5b612376612205565b81358481111561238557600080fd5b82016040818c03121561239757600080fd5b61239f612205565b8135868111156123ae57600080fd5b6123ba8d828501612281565b825250908701358782015281526123d28287016122d7565b8187015282525082840135828111156123ea57600080fd5b6123f689828601612281565b8583015250604083013593508184111561240f57600080fd5b61241b88858501612281565b604082015261242c606084016122ee565b6060820152809450505050509250929050565b6000806040838503121561245257600080fd5b50508035926020909101359150565b60005b8381101561247c578181015183820152602001612464565b838111156119ec5750506000910152565b600081518084526124a5816020860160208601612461565b601f01601f19169290920160200192915050565b6020815260006124cc602083018461248d565b9392505050565b60008060008060008060c087890312156124ec57600080fd5b863567ffffffffffffffff8082111561250457600080fd5b6125108a838b01612281565b9750602089013591508082111561252657600080fd5b5061253389828a01612281565b95505060408701359350612549606088016122ee565b92506080870135915060a087013590509295509295509295565b60008060008060008060008060006101208a8c03121561258257600080fd5b893567ffffffffffffffff8082111561259a57600080fd5b6125a68d838e01612281565b9a5060208c01359150808211156125bc57600080fd5b6125c88d838e01612281565b995060408c01359150808211156125de57600080fd5b506125eb8c828d01612281565b97505060608a0135955061260160808b016122d7565b945060a08a0135935061261660c08b016122ee565b925060e08a013591506101008a013590509295985092959850929598565b60006020828403121561264657600080fd5b5035919050565b6000806040838503121561266057600080fd5b82359150602083013567ffffffffffffffff81111561267e57600080fd5b61268a85828601612281565b9150509250929050565b6020815260008251608060208401528051604060a08501528051604060e08601526126c361012086018261248d565b602092830151610100870152928201516001600160a01b031660c086015250840151601f198483038101604086015290916126fe818461248d565b92505060408501518185840301606086015261271a838261248d565b925050506060840151612731608085018215159052565b509392505050565b600080600080600060a0868803121561275157600080fd5b853567ffffffffffffffff81111561276857600080fd5b61277488828901612281565b9550506020860135935061278a604087016122ee565b94979396509394606081013594506080013592915050565b6000602082840312156127b457600080fd5b813567ffffffffffffffff8111156127cb57600080fd5b6127d784828501612281565b949350505050565b634e487b7160e01b600052603260045260246000fd5b600181811c9082168061280957607f821691505b6020821081141561282a57634e487b7160e01b600052602260045260246000fd5b50919050565b60006020828403121561284257600080fd5b815167ffffffffffffffff81111561285957600080fd5b8201601f8101841361286a57600080fd5b80516128786122a082612259565b81815285602083850101111561288d57600080fd5b61289e826020830160208601612461565b95945050505050565b600082516128b9818460208701612461565b9190910192915050565b634e487b7160e01b600052601160045260246000fd5b60006000198214156128ed576128ed6128c3565b5060010190565b60008551612906818460208a01612461565b85519083019061291a818360208a01612461565b01938452505060601b6bffffffffffffffffffffffff1916602082015260340192915050565b60008161294f5761294f6128c3565b506000190190565b600082821015612969576129696128c3565b500390565b6000816000190483118215151615612988576129886128c3565b500290565b600082198211156129a0576129a06128c3565b500190565b600181815b808511156129e05781600019048211156129c6576129c66128c3565b808516156129d357918102915b93841c93908002906129aa565b509250929050565b6000826129f757506001610383565b81612a0457506000610383565b8160018114612a1a5760028114612a2457612a40565b6001915050610383565b60ff841115612a3557612a356128c3565b50506001821b610383565b5060208310610133831016604e8410600b8410161715612a63575081810a610383565b612a6d83836129a5565b8060001904821115612a8157612a816128c3565b029392505050565b60006124cc83836129e8565b60006001600160a01b0380831681851681830481118215151615612abb57612abb6128c3565b02949350505050565b60006001600160a01b0383811690831681811015612ae457612ae46128c3565b039392505050565b60006001600160a01b03808316818516808303821115612b0e57612b0e6128c3565b0194935050505056fe4e6f7420666f756e64207072696d617279207072657061726520747820737461747573496e76616c6964207478207374617475732069742073686f756c64206e6f742068617665206c6f636ba2646970667358221220b5a27c4379410f1d6be23ea1053cc1cc717b8d7d7c648b109b944332b58ca8ab64736f6c63430008090033",
  "immutableReferences": {},
  "source": "// SPDX-License-Identifier: GPL-3.0\npragma solidity >=0.7.0 <0.9.0;\n\nimport \"../lib/Utils.sol\";\nimport \"../lib/Constants.sol\";\nimport \"../lib/Enums.sol\";\nimport \"../lib/Structs.sol\";\n\nimport \"../sidemesh/Sidemesh.sol\";\n\ninterface ILockManager{\n    \n    function getStateMaybeLocked(\n        string memory key,\n        uint cur,\n        bool isValid,\n        uint status,\n        uint ttlTime)\n        external view returns(Structs.Lock memory);\n    \n    function putStateMaybeLocked(\n        string memory key,\n        bytes memory value,\n        uint cur,\n        bool isValid,\n        uint status,\n        uint ttlTime)\n        external;\n\n    function putLockedStateWithPrimaryLock(\n        string memory key,\n        bytes memory value,\n        uint cur,\n        bool isValid,\n        uint status,\n        uint ttlTime)\n        external;\n\n    function putLockedStateWithNetworkLock(\n        string memory key,\n        bytes memory value,\n        string memory primaryNetwork,\n        uint primaryChain,\n        address primaryTxSender,\n        uint cur,\n        bool isValid,\n        uint status,\n        uint ttlTime)\n        external;\n}\n\ninterface ILockManagerGlobalTransaction{\n    function getWSet(bytes32 xidKey, uint i)external view returns(string memory);\n    function getWSetLength(bytes32 hash)external view returns(uint);\n    function getWriteKeySet(bytes32 xidKey, uint i)external view returns(string memory);\n    function getWriteKeySetLength(bytes32 hash)external view returns(uint);\n    function getLock(bytes32 hash)external view returns(Structs.Lock memory);\n\n    function putLock(bytes32 hash, Structs.Lock memory lock)external;\n    function putWSet(bytes32 hash, string memory value)external;\n\n    function lockDeserializer(bytes memory data)external returns(Structs.Lock memory);\n}\n\ncontract LockManager is ILockManager, ILockManagerGlobalTransaction{\n\n    mapping(bytes32 => Structs.Lock)locks;\n    mapping(bytes32 => string[])writeKeySet;\n    mapping(bytes32 => string[])wSet;\n\n    ISidemesh sidemesh;\n\n    constructor(address _sidemesh){\n        sidemesh = ISidemesh(_sidemesh);\n    }\n\n    function checkTimeoutLock(Structs.Lock memory lock, uint cur, bool isValid, uint status, uint ttlTime)internal view returns(bool){\n        string memory network = sidemesh.getNetwork();\n        \n        require(Utils.equals(lock.primaryPrepareTxId.uri.network, network), Constants.ERROR_SECONDARY_LOCK);\n        require(lock.primaryPrepareTxId.uri.chain == block.chainid, Constants.ERROR_WRONG_CHAIN);\n\n        require(isValid, Constants.ERROR_NO_PRIMARY_TX);\n\n        require(\n            Enums.checkCanceledOrCommiteded(status),\n            Constants.ERROR_INVALID_TX_STATUS);\n        \n        require(ttlTime < cur, Constants.ERROR_INVALID_TIME);\n\n        return true;\n    }\n\n    function putWriteKey(string memory key)internal{\n        string memory network = sidemesh.getNetwork();\n        bytes32 xidKey = Utils.hash(abi.encodePacked(Constants.PREFIX, network, block.chainid, msg.sender));\n\n        writeKeySet[xidKey].push(key);\n    }\n\n    function lockSerializer(Structs.Lock memory lock)internal pure returns(bytes memory){\n        return abi.encodePacked(\n            lock.primaryPrepareTxId.uri.network, Constants.COLON,\n            lock.primaryPrepareTxId.uri.chain, Constants.COLON,\n            lock.primaryPrepareTxId.sender, Constants.COLON,\n            lock.prevState, Constants.COLON,\n            lock.updatingState, Constants.COLON,\n            Utils.toString(lock.isValid)\n            );\n    }\n    \n    bytes temp;\n    \n    function lockDeserializer(bytes memory data)public returns(Structs.Lock memory){\n        Structs.Lock memory lock;\n        Structs.TransactionID memory txID;\n        Structs.URI memory uri;\n        uint x = 0;\n        for(uint i=0; i<data.length; i++){\n            if(Utils.hash(abi.encodePacked(data[i])) == Utils.hash(abi.encodePacked(Constants.COLON))){\n                if(x == 0){\n                    uri.network = Utils.toString(temp);\n                }\n                if(x == 1){\n                    uri.chain = Utils.toUint(Utils.toString(temp));\n                    txID.uri = uri;\n                }\n                if(x == 2){\n                    txID.sender = Utils.toAddress(Utils.toString(temp)); \n                    lock.primaryPrepareTxId = txID;           \n                }\n                if(x == 3){\n                    lock.prevState = temp;\n                }\n                if(x == 4){\n                    lock.updatingState = temp;\n                }\n                if(x == 5){\n                    lock.isValid = Utils.stringToBool(Utils.toString(temp));\n                }\n                temp = \"\";\n                x++;\n            }else{\n                temp.push(data[i]);\n            } \n        }\n        return lock;\n    }\n\n    function getLock(bytes32 hash)external view returns(Structs.Lock memory){\n        return locks[hash];\n    }\n\n    function putLock(bytes32 hash, Structs.Lock memory lock)external{\n        locks[hash] = lock;\n    }\n\n    function getWriteKeySet(bytes32 xidKey, uint i)external view returns(string memory){\n        return writeKeySet[xidKey][i];\n    }\n\n    function getWriteKeySetLength(bytes32 hash)external view returns(uint){\n        return writeKeySet[hash].length;\n    }\n\n    function getWSet(bytes32 xidKey, uint i)external view returns(string memory){\n        return wSet[xidKey][i];\n    }\n\n    function getWSetLength(bytes32 hash)external view returns(uint){\n        return wSet[hash].length;\n    }\n\n    function putWSet(bytes32 hash, string memory value)external{\n        wSet[hash].push(value);\n    }\n\n    function getStateMaybeLocked(\n        string memory key,\n        uint cur,\n        bool isValid,\n        uint status,\n        uint ttlTime)\n        external view returns(Structs.Lock memory){\n            bytes32 keyHash = Utils.hash(abi.encodePacked(key));\n\n            require(checkTimeoutLock(locks[keyHash], cur, isValid, status, ttlTime), Constants.ERROR_EXPIRED_LOCK);\n\n            return locks[keyHash];\n        }\n\n    function putStateMaybeLocked(\n        string memory key,\n        bytes memory value,\n        uint cur,\n        bool isValid,\n        uint status,\n        uint ttlTime)\n        external{\n            bytes32 keyHash = Utils.hash(abi.encodePacked(key));\n\n            if(!locks[keyHash].isValid){\n                locks[keyHash] = lockDeserializer(value);\n                return;\n            }\n\n            require(checkTimeoutLock(locks[keyHash], cur, isValid, status, ttlTime), Constants.ERROR_EXPIRED_LOCK);\n        }\n\n    function putLockedStateWithPrimaryLock(\n        string memory key,\n        bytes memory value,\n        uint cur,\n        bool isValid,\n        uint status,\n        uint ttlTime)\n        external{\n            string memory network = sidemesh.getNetwork();\n            bytes32 keyHash = Utils.hash(abi.encodePacked(key));\n            \n            Structs.TransactionID memory primaryPrepareTxId = Structs.TransactionID(Structs.URI(network, block.chainid), msg.sender);\n            \n            if(!locks[keyHash].isValid){\n                Structs.Lock memory lock;\n                lock.updatingState = value;\n                lock.primaryPrepareTxId = primaryPrepareTxId;\n                lock.isValid = true;\n                locks[keyHash] = lock;\n                putWriteKey(key);\n                return;\n            }\n\n            require(checkTimeoutLock(locks[keyHash], cur, isValid, status, ttlTime), Constants.ERROR_EXPIRED_LOCK);\n        }\n\n    function putLockedStateWithNetworkLock(\n        string memory key,\n        bytes memory value,\n        string memory primaryNetwork,\n        uint primaryChain,\n        address primaryTxSender,\n        uint cur,\n        bool isValid,\n        uint status,\n        uint ttlTime)\n        external{\n            bytes32 keyHash = Utils.hash(abi.encodePacked(key));\n            Structs.TransactionID memory primaryPrepareTxId = Structs.TransactionID(Structs.URI(primaryNetwork, primaryChain), primaryTxSender);\n            \n            if(!locks[keyHash].isValid){\n                Structs.Lock memory lock;\n                lock.updatingState = value;\n                lock.primaryPrepareTxId = primaryPrepareTxId;\n                lock.isValid = true;\n                locks[keyHash] = lock;\n                putWriteKey(key);\n                return;\n            }\n\n            require(checkTimeoutLock(locks[keyHash], cur, isValid, status, ttlTime), Constants.ERROR_EXPIRED_LOCK);\n        }\n}",
  "sourcePath": "/Users/shri99/WebProjects/sidemesh-solidity/contracts/lock/LockManager.sol",
  "compiler": {
    "name": "solc",
    "version": "0.8.9+commit.e5eed63a.Emscripten.clang"
  },
  "schemaVersion": "3.3.3",
  "updatedAt": "2021-11-10T22:37:53.535Z",
  "devdoc": {
    "kind": "dev",
    "methods": {},
    "version": 1
  },
  "userdoc": {
    "kind": "user",
    "methods": {},
    "version": 1
  }
}