{
  "contractName": "Register",
  "abi": [
    {
      "inputs": [
        {
          "internalType": "string",
          "name": "network",
          "type": "string"
        },
        {
          "internalType": "uint256",
          "name": "chain",
          "type": "uint256"
        },
        {
          "internalType": "string",
          "name": "connection",
          "type": "string"
        }
      ],
      "name": "register",
      "outputs": [],
      "stateMutability": "nonpayable",
      "type": "function"
    },
    {
      "inputs": [
        {
          "internalType": "string",
          "name": "network",
          "type": "string"
        },
        {
          "internalType": "uint256",
          "name": "chain",
          "type": "uint256"
        }
      ],
      "name": "resolve",
      "outputs": [
        {
          "internalType": "string",
          "name": "",
          "type": "string"
        }
      ],
      "stateMutability": "view",
      "type": "function"
    }
  ],
  "bytecode": "0x608060405234801561001057600080fd5b506106ec806100206000396000f3fe608060405234801561001057600080fd5b50600436106100365760003560e01c8063637a08321461003b578063f9c2af8614610050575b600080fd5b61004e6100493660046104e9565b610079565b005b61006361005e366004610556565b610139565b60405161007091906105f7565b60405180910390f35b60006040518060400160405280600a815260200169534944455f4d4553485f60b01b81525084846040516020016100b293929190610611565b6040516020818303038152906040529050816000806100d684805160209091012090565b815260200190815260200160002090805190602001906100f79291906103ad565b507fe82313a9abbe58ecaf267e19342a20f1bfe32d28a1345d1deec9982ff5e95de984848460405161012b93929190610646565b60405180910390a150505050565b60606040518060400160405280600a815260200169534944455f4d4553485f60b01b815250838360405160200161017293929190610611565b60408051601f198184030181529190528051602082012061019290610305565b6040518060400160405280601d81526020017f5b52656769737465725d2043616e742061626c652066696e642075726900000081525090610209576040517f08c379a000000000000000000000000000000000000000000000000000000000815260040161020091906105f7565b60405180910390fd5b5060006102606040518060400160405280600a815260200169534944455f4d4553485f60b01b815250868660405160200161024693929190610611565b604051602081830303815290604052805160209091012090565b600081815260208190526040902080549192509061027d9061067b565b80601f01602080910402602001604051908101604052809291908181526020018280546102a99061067b565b80156102f65780601f106102cb576101008083540402835291602001916102f6565b820191906000526020600020905b8154815290600101906020018083116102d957829003601f168201915b50505050509250505092915050565b600081815260208190526040812080546103a791906103239061067b565b80601f016020809104026020016040519081016040528092919081815260200182805461034f9061067b565b801561039c5780601f106103715761010080835404028352916020019161039c565b820191906000526020600020905b81548152906001019060200180831161037f57829003601f168201915b505050505051151590565b92915050565b8280546103b99061067b565b90600052602060002090601f0160209004810192826103db5760008555610421565b82601f106103f457805160ff1916838001178555610421565b82800160010185558215610421579182015b82811115610421578251825591602001919060010190610406565b5061042d929150610431565b5090565b5b8082111561042d5760008155600101610432565b634e487b7160e01b600052604160045260246000fd5b600082601f83011261046d57600080fd5b813567ffffffffffffffff8082111561048857610488610446565b604051601f8301601f19908116603f011681019082821181831017156104b0576104b0610446565b816040528381528660208588010111156104c957600080fd5b836020870160208301376000602085830101528094505050505092915050565b6000806000606084860312156104fe57600080fd5b833567ffffffffffffffff8082111561051657600080fd5b6105228783880161045c565b945060208601359350604086013591508082111561053f57600080fd5b5061054c8682870161045c565b9150509250925092565b6000806040838503121561056957600080fd5b823567ffffffffffffffff81111561058057600080fd5b61058c8582860161045c565b95602094909401359450505050565b60005b838110156105b657818101518382015260200161059e565b838111156105c5576000848401525b50505050565b600081518084526105e381602086016020860161059b565b601f01601f19169290920160200192915050565b60208152600061060a60208301846105cb565b9392505050565b6000845161062381846020890161059b565b84519083019061063781836020890161059b565b01928352505060200192915050565b60608152600061065960608301866105cb565b846020840152828103604084015261067181856105cb565b9695505050505050565b600181811c9082168061068f57607f821691505b602082108114156106b057634e487b7160e01b600052602260045260246000fd5b5091905056fea26469706673582212204611f37aa8495196aca0c65389bcb366525234409951cce137c9d2f63186e63064736f6c63430008090033",
  "immutableReferences": {},
  "source": "// SPDX-License-Identifier: GPL-3.0\npragma solidity >=0.7.0 <0.9.0;\n\nimport \"../lib/Utils.sol\";\nimport \"../lib/Constants.sol\";\nimport \"../lib/Structs.sol\";\n\ninterface IRegister{\n    function register(\n        string memory network,\n        uint chain,\n        string memory connection) \n        external;\n\n    function resolve(\n        string memory network, \n        uint chain) \n        external view\n        returns(string memory);\n}\n\ncontract Register is IRegister{\n\n    mapping(bytes32 => string) registeredNetworks;\n\n    modifier checkUri(bytes memory network){\n        require(checkUriExist(Utils.hash(network)), Constants.ERROR_REG_URI_NOT_FOUND);\n        _;\n    }\n    function checkUriExist(bytes32 hash)internal view returns(bool){\n        return Utils.checkBytes(registeredNetworks[hash]);\n    }\n    \n    function register(\n        string memory network,\n        uint chain,\n        string memory connection) \n        external {\n            bytes memory uri = abi.encodePacked(Constants.PREFIX, network, chain);\n            registeredNetworks[Utils.hash(uri)] = connection;\n\n            emit Structs.SIDE_MESH_RESOURCE_REGISTERED_EVENT(network, chain, Utils.toBytes(connection));\n    }\n    \n    function resolve(\n        string memory network, \n        uint chain) \n        external view\n        checkUri(abi.encodePacked(Constants.PREFIX, network, chain))\n        returns(string memory){\n            bytes32 hash = Utils.hash(abi.encodePacked(Constants.PREFIX, network, chain));\n            return registeredNetworks[hash];    \n    }\n}",
  "sourcePath": "/Users/shri99/WebProjects/sidemesh-solidity/contracts/resource/Register.sol",
  "compiler": {
    "name": "solc",
    "version": "0.8.9+commit.e5eed63a.Emscripten.clang"
  },
  "schemaVersion": "3.3.3",
  "updatedAt": "2021-11-10T21:57:50.118Z",
  "devdoc": {
    "kind": "dev",
    "methods": {},
    "version": 1
  },
  "userdoc": {
    "kind": "user",
    "methods": {},
    "version": 1
  }
}