{
  "contractName": "Register",
  "abi": [
    {
      "anonymous": false,
      "inputs": [
        {
          "components": [
            {
              "components": [
                {
                  "internalType": "string",
                  "name": "network",
                  "type": "string"
                },
                {
                  "internalType": "uint256",
                  "name": "chain",
                  "type": "uint256"
                }
              ],
              "internalType": "struct Structs.URI",
              "name": "uri",
              "type": "tuple"
            },
            {
              "internalType": "address",
              "name": "sender",
              "type": "address"
            }
          ],
          "indexed": false,
          "internalType": "struct Structs.TransactionID",
          "name": "PrimaryPrepareTxId",
          "type": "tuple"
        },
        {
          "components": [
            {
              "internalType": "address",
              "name": "contractC",
              "type": "address"
            },
            {
              "internalType": "string",
              "name": "functionC",
              "type": "string"
            },
            {
              "internalType": "string[]",
              "name": "args",
              "type": "string[]"
            }
          ],
          "indexed": false,
          "internalType": "struct Structs.Invocation",
          "name": "GlobalTxStatusQuery",
          "type": "tuple"
        },
        {
          "components": [
            {
              "components": [
                {
                  "components": [
                    {
                      "internalType": "string",
                      "name": "network",
                      "type": "string"
                    },
                    {
                      "internalType": "uint256",
                      "name": "chain",
                      "type": "uint256"
                    }
                  ],
                  "internalType": "struct Structs.URI",
                  "name": "uri",
                  "type": "tuple"
                },
                {
                  "internalType": "address",
                  "name": "sender",
                  "type": "address"
                }
              ],
              "internalType": "struct Structs.TransactionID",
              "name": "txId",
              "type": "tuple"
            },
            {
              "components": [
                {
                  "internalType": "address",
                  "name": "contractC",
                  "type": "address"
                },
                {
                  "internalType": "string",
                  "name": "functionC",
                  "type": "string"
                },
                {
                  "internalType": "string[]",
                  "name": "args",
                  "type": "string[]"
                }
              ],
              "internalType": "struct Structs.Invocation",
              "name": "invocation",
              "type": "tuple"
            },
            {
              "internalType": "string",
              "name": "proof",
              "type": "string"
            }
          ],
          "indexed": false,
          "internalType": "struct Structs.NetworkTransaction",
          "name": "ConfirmTx",
          "type": "tuple"
        }
      ],
      "name": "NetworkTransactionPreparedEvent",
      "type": "event"
    },
    {
      "anonymous": false,
      "inputs": [
        {
          "components": [
            {
              "components": [
                {
                  "internalType": "string",
                  "name": "network",
                  "type": "string"
                },
                {
                  "internalType": "uint256",
                  "name": "chain",
                  "type": "uint256"
                }
              ],
              "internalType": "struct Structs.URI",
              "name": "uri",
              "type": "tuple"
            },
            {
              "internalType": "address",
              "name": "sender",
              "type": "address"
            }
          ],
          "indexed": false,
          "internalType": "struct Structs.TransactionID",
          "name": "PrimaryConfirmedTxId",
          "type": "tuple"
        },
        {
          "components": [
            {
              "components": [
                {
                  "components": [
                    {
                      "internalType": "string",
                      "name": "network",
                      "type": "string"
                    },
                    {
                      "internalType": "uint256",
                      "name": "chain",
                      "type": "uint256"
                    }
                  ],
                  "internalType": "struct Structs.URI",
                  "name": "uri",
                  "type": "tuple"
                },
                {
                  "internalType": "address",
                  "name": "sender",
                  "type": "address"
                }
              ],
              "internalType": "struct Structs.TransactionID",
              "name": "txId",
              "type": "tuple"
            },
            {
              "components": [
                {
                  "internalType": "address",
                  "name": "contractC",
                  "type": "address"
                },
                {
                  "internalType": "string",
                  "name": "functionC",
                  "type": "string"
                },
                {
                  "internalType": "string[]",
                  "name": "args",
                  "type": "string[]"
                }
              ],
              "internalType": "struct Structs.Invocation",
              "name": "invocation",
              "type": "tuple"
            },
            {
              "internalType": "string",
              "name": "proof",
              "type": "string"
            }
          ],
          "indexed": false,
          "internalType": "struct Structs.NetworkTransaction[]",
          "name": "NetworkConfirmTxs",
          "type": "tuple[]"
        }
      ],
      "name": "PrimaryTransactionConfirmedEvent",
      "type": "event"
    },
    {
      "anonymous": false,
      "inputs": [
        {
          "components": [
            {
              "components": [
                {
                  "internalType": "string",
                  "name": "network",
                  "type": "string"
                },
                {
                  "internalType": "uint256",
                  "name": "chain",
                  "type": "uint256"
                }
              ],
              "internalType": "struct Structs.URI",
              "name": "uri",
              "type": "tuple"
            },
            {
              "internalType": "address",
              "name": "sender",
              "type": "address"
            }
          ],
          "indexed": false,
          "internalType": "struct Structs.TransactionID",
          "name": "PrimaryPrepareTxId",
          "type": "tuple"
        },
        {
          "components": [
            {
              "components": [
                {
                  "components": [
                    {
                      "internalType": "string",
                      "name": "network",
                      "type": "string"
                    },
                    {
                      "internalType": "uint256",
                      "name": "chain",
                      "type": "uint256"
                    }
                  ],
                  "internalType": "struct Structs.URI",
                  "name": "uri",
                  "type": "tuple"
                },
                {
                  "internalType": "address",
                  "name": "sender",
                  "type": "address"
                }
              ],
              "internalType": "struct Structs.TransactionID",
              "name": "txId",
              "type": "tuple"
            },
            {
              "components": [
                {
                  "internalType": "address",
                  "name": "contractC",
                  "type": "address"
                },
                {
                  "internalType": "string",
                  "name": "functionC",
                  "type": "string"
                },
                {
                  "internalType": "string[]",
                  "name": "args",
                  "type": "string[]"
                }
              ],
              "internalType": "struct Structs.Invocation",
              "name": "invocation",
              "type": "tuple"
            },
            {
              "internalType": "string",
              "name": "proof",
              "type": "string"
            }
          ],
          "indexed": false,
          "internalType": "struct Structs.NetworkTransaction",
          "name": "PrimaryConfirmTx",
          "type": "tuple"
        },
        {
          "components": [
            {
              "internalType": "address",
              "name": "contractC",
              "type": "address"
            },
            {
              "internalType": "string",
              "name": "functionC",
              "type": "string"
            },
            {
              "internalType": "string[]",
              "name": "args",
              "type": "string[]"
            }
          ],
          "indexed": false,
          "internalType": "struct Structs.Invocation",
          "name": "GlobalTxStatusQuery",
          "type": "tuple"
        },
        {
          "components": [
            {
              "components": [
                {
                  "components": [
                    {
                      "internalType": "string",
                      "name": "network",
                      "type": "string"
                    },
                    {
                      "internalType": "uint256",
                      "name": "chain",
                      "type": "uint256"
                    }
                  ],
                  "internalType": "struct Structs.URI",
                  "name": "uri",
                  "type": "tuple"
                },
                {
                  "internalType": "address",
                  "name": "sender",
                  "type": "address"
                }
              ],
              "internalType": "struct Structs.TransactionID",
              "name": "txId",
              "type": "tuple"
            },
            {
              "components": [
                {
                  "internalType": "address",
                  "name": "contractC",
                  "type": "address"
                },
                {
                  "internalType": "string",
                  "name": "functionC",
                  "type": "string"
                },
                {
                  "internalType": "string[]",
                  "name": "args",
                  "type": "string[]"
                }
              ],
              "internalType": "struct Structs.Invocation",
              "name": "invocation",
              "type": "tuple"
            },
            {
              "internalType": "string",
              "name": "proof",
              "type": "string"
            }
          ],
          "indexed": false,
          "internalType": "struct Structs.NetworkTransaction[]",
          "name": "NetworkPrepareTxs",
          "type": "tuple[]"
        },
        {
          "components": [
            {
              "components": [
                {
                  "components": [
                    {
                      "internalType": "string",
                      "name": "network",
                      "type": "string"
                    },
                    {
                      "internalType": "uint256",
                      "name": "chain",
                      "type": "uint256"
                    }
                  ],
                  "internalType": "struct Structs.URI",
                  "name": "uri",
                  "type": "tuple"
                },
                {
                  "internalType": "address",
                  "name": "sender",
                  "type": "address"
                }
              ],
              "internalType": "struct Structs.TransactionID",
              "name": "txId",
              "type": "tuple"
            },
            {
              "components": [
                {
                  "internalType": "address",
                  "name": "contractC",
                  "type": "address"
                },
                {
                  "internalType": "string",
                  "name": "functionC",
                  "type": "string"
                },
                {
                  "internalType": "string[]",
                  "name": "args",
                  "type": "string[]"
                }
              ],
              "internalType": "struct Structs.Invocation",
              "name": "invocation",
              "type": "tuple"
            },
            {
              "internalType": "string",
              "name": "proof",
              "type": "string"
            }
          ],
          "indexed": false,
          "internalType": "struct Structs.NetworkTransaction[]",
          "name": "NetworkConfirmTxs",
          "type": "tuple[]"
        }
      ],
      "name": "PrimaryTransactionPreparedEvent",
      "type": "event"
    },
    {
      "anonymous": false,
      "inputs": [
        {
          "indexed": false,
          "internalType": "string",
          "name": "network",
          "type": "string"
        },
        {
          "indexed": false,
          "internalType": "uint256",
          "name": "chain",
          "type": "uint256"
        },
        {
          "indexed": false,
          "internalType": "bytes",
          "name": "connection",
          "type": "bytes"
        }
      ],
      "name": "SIDE_MESH_RESOURCE_REGISTERED_EVENT",
      "type": "event"
    },
    {
      "inputs": [
        {
          "internalType": "string",
          "name": "network",
          "type": "string"
        },
        {
          "internalType": "uint256",
          "name": "chain",
          "type": "uint256"
        },
        {
          "internalType": "string",
          "name": "connection",
          "type": "string"
        }
      ],
      "name": "register",
      "outputs": [],
      "stateMutability": "nonpayable",
      "type": "function"
    },
    {
      "inputs": [
        {
          "internalType": "string",
          "name": "network",
          "type": "string"
        },
        {
          "internalType": "uint256",
          "name": "chain",
          "type": "uint256"
        }
      ],
      "name": "resolve",
      "outputs": [
        {
          "internalType": "string",
          "name": "",
          "type": "string"
        }
      ],
      "stateMutability": "view",
      "type": "function"
    }
  ],
  "bytecode": "0x608060405234801561001057600080fd5b506109b8806100206000396000f3fe608060405234801561001057600080fd5b50600436106100365760003560e01c8063637a08321461003b578063f9c2af8614610057575b600080fd5b61005560048036038101906100509190610655565b610087565b005b610071600480360381019061006c91906106e0565b61015d565b60405161007e91906107c4565b60405180910390f35b60006040518060400160405280600a81526020017f534944455f4d4553485f0000000000000000000000000000000000000000000081525084846040516020016100d393929190610843565b604051602081830303815290604052905081600160006100f28461034c565b81526020019081526020016000209080519060200190610113929190610422565b507fe82313a9abbe58ecaf267e19342a20f1bfe32d28a1345d1deec9982ff5e95de984846101408561035d565b60405161014f939291906108dc565b60405180910390a150505050565b60606040518060400160405280600a81526020017f534944455f4d4553485f0000000000000000000000000000000000000000000081525083836040516020016101a993929190610843565b6040516020818303038152906040526101c96101c48261034c565b610367565b6040518060400160405280601d81526020017f5b52656769737465725d2043616e742061626c652066696e642075726900000081525090610240576040517f08c379a000000000000000000000000000000000000000000000000000000000815260040161023791906107c4565b60405180910390fd5b5060006102a46040518060400160405280600a81526020017f534944455f4d4553485f00000000000000000000000000000000000000000000815250868660405160200161029093929190610843565b60405160208183030381529060405261034c565b90506001600082815260200190815260200160002080546102c490610950565b80601f01602080910402602001604051908101604052809291908181526020018280546102f090610950565b801561033d5780601f106103125761010080835404028352916020019161033d565b820191906000526020600020905b81548152906001019060200180831161032057829003601f168201915b50505050509250505092915050565b600081805190602001209050919050565b6060819050919050565b600061040d60016000848152602001908152602001600020805461038a90610950565b80601f01602080910402602001604051908101604052809291908181526020018280546103b690610950565b80156104035780601f106103d857610100808354040283529160200191610403565b820191906000526020600020905b8154815290600101906020018083116103e657829003601f168201915b5050505050610414565b9050919050565b600080825114159050919050565b82805461042e90610950565b90600052602060002090601f0160209004810192826104505760008555610497565b82601f1061046957805160ff1916838001178555610497565b82800160010185558215610497579182015b8281111561049657825182559160200191906001019061047b565b5b5090506104a491906104a8565b5090565b5b808211156104c15760008160009055506001016104a9565b5090565b6000604051905090565b600080fd5b600080fd5b600080fd5b600080fd5b6000601f19601f8301169050919050565b7f4e487b7100000000000000000000000000000000000000000000000000000000600052604160045260246000fd5b61052c826104e3565b810181811067ffffffffffffffff8211171561054b5761054a6104f4565b5b80604052505050565b600061055e6104c5565b905061056a8282610523565b919050565b600067ffffffffffffffff82111561058a576105896104f4565b5b610593826104e3565b9050602081019050919050565b82818337600083830152505050565b60006105c26105bd8461056f565b610554565b9050828152602081018484840111156105de576105dd6104de565b5b6105e98482856105a0565b509392505050565b600082601f830112610606576106056104d9565b5b81356106168482602086016105af565b91505092915050565b6000819050919050565b6106328161061f565b811461063d57600080fd5b50565b60008135905061064f81610629565b92915050565b60008060006060848603121561066e5761066d6104cf565b5b600084013567ffffffffffffffff81111561068c5761068b6104d4565b5b610698868287016105f1565b93505060206106a986828701610640565b925050604084013567ffffffffffffffff8111156106ca576106c96104d4565b5b6106d6868287016105f1565b9150509250925092565b600080604083850312156106f7576106f66104cf565b5b600083013567ffffffffffffffff811115610715576107146104d4565b5b610721858286016105f1565b925050602061073285828601610640565b9150509250929050565b600081519050919050565b600082825260208201905092915050565b60005b8381101561077657808201518184015260208101905061075b565b83811115610785576000848401525b50505050565b60006107968261073c565b6107a08185610747565b93506107b0818560208601610758565b6107b9816104e3565b840191505092915050565b600060208201905081810360008301526107de818461078b565b905092915050565b600081905092915050565b60006107fc8261073c565b61080681856107e6565b9350610816818560208601610758565b80840191505092915050565b6000819050919050565b61083d6108388261061f565b610822565b82525050565b600061084f82866107f1565b915061085b82856107f1565b9150610867828461082c565b602082019150819050949350505050565b6108818161061f565b82525050565b600081519050919050565b600082825260208201905092915050565b60006108ae82610887565b6108b88185610892565b93506108c8818560208601610758565b6108d1816104e3565b840191505092915050565b600060608201905081810360008301526108f6818661078b565b90506109056020830185610878565b818103604083015261091781846108a3565b9050949350505050565b7f4e487b7100000000000000000000000000000000000000000000000000000000600052602260045260246000fd5b6000600282049050600182168061096857607f821691505b6020821081141561097c5761097b610921565b5b5091905056fea26469706673582212207c0650347f2bcf5f849ddea2dfa84c942740c20304f179e299e35522084b7f2264736f6c63430008090033",
  "immutableReferences": {},
  "source": "// SPDX-License-Identifier: GPL-3.0\npragma solidity >=0.7.0 <0.9.0;\n\nimport \"../lib/Lib.sol\";\n\nimport \"../util/Structs.sol\";\nimport \"../util/Constants.sol\";\n\ncontract Register is Structs, Constants{\n\n    mapping(bytes32 => string) registeredNetworks;\n\n    modifier checkUri(bytes memory network){\n        require(checkUriExist(Lib.hash(network)), REG_URI_NOT_FOUND);\n        _;\n    }\n    function checkUriExist(bytes32 hash)internal view returns(bool){\n        return Lib.checkBytes(registeredNetworks[hash]);\n    }\n    \n    function register(\n        string memory network,\n        uint chain,\n        string memory connection) \n        external {\n            bytes memory uri = abi.encodePacked(PREFIX, network, chain);\n            registeredNetworks[Lib.hash(uri)] = connection;\n\n            emit SIDE_MESH_RESOURCE_REGISTERED_EVENT(network, chain, Lib.toBytes(connection));\n    }\n    \n    function resolve(\n        string memory network, \n        uint chain) \n        external view\n        checkUri(abi.encodePacked(PREFIX, network, chain))\n        returns(string memory){\n            bytes32 hash = Lib.hash(abi.encodePacked(PREFIX, network, chain));\n            return registeredNetworks[hash];    \n    }\n}",
  "sourcePath": "/Users/shri99/WebProjects/sidemesh-solidity/contracts/resource/Register.sol",
  "compiler": {
    "name": "solc",
    "version": "0.8.9+commit.e5eed63a.Emscripten.clang"
  },
  "schemaVersion": "3.3.3",
  "updatedAt": "2021-11-06T19:47:30.721Z",
  "networkType": "ethereum",
  "devdoc": {
    "kind": "dev",
    "methods": {},
    "version": 1
  },
  "userdoc": {
    "kind": "user",
    "methods": {},
    "version": 1
  }
}