{
  "contractName": "Sidemesh",
  "abi": [
    {
      "anonymous": false,
      "inputs": [
        {
          "components": [
            {
              "components": [
                {
                  "internalType": "string",
                  "name": "network",
                  "type": "string"
                },
                {
                  "internalType": "uint256",
                  "name": "chain",
                  "type": "uint256"
                }
              ],
              "internalType": "struct Structs.URI",
              "name": "uri",
              "type": "tuple"
            },
            {
              "internalType": "address",
              "name": "sender",
              "type": "address"
            }
          ],
          "indexed": false,
          "internalType": "struct Structs.TransactionID",
          "name": "PrimaryPrepareTxId",
          "type": "tuple"
        },
        {
          "components": [
            {
              "internalType": "address",
              "name": "contractC",
              "type": "address"
            },
            {
              "internalType": "string",
              "name": "functionC",
              "type": "string"
            },
            {
              "internalType": "string[]",
              "name": "args",
              "type": "string[]"
            }
          ],
          "indexed": false,
          "internalType": "struct Structs.Invocation",
          "name": "GlobalTxStatusQuery",
          "type": "tuple"
        },
        {
          "components": [
            {
              "components": [
                {
                  "components": [
                    {
                      "internalType": "string",
                      "name": "network",
                      "type": "string"
                    },
                    {
                      "internalType": "uint256",
                      "name": "chain",
                      "type": "uint256"
                    }
                  ],
                  "internalType": "struct Structs.URI",
                  "name": "uri",
                  "type": "tuple"
                },
                {
                  "internalType": "address",
                  "name": "sender",
                  "type": "address"
                }
              ],
              "internalType": "struct Structs.TransactionID",
              "name": "txId",
              "type": "tuple"
            },
            {
              "components": [
                {
                  "internalType": "address",
                  "name": "contractC",
                  "type": "address"
                },
                {
                  "internalType": "string",
                  "name": "functionC",
                  "type": "string"
                },
                {
                  "internalType": "string[]",
                  "name": "args",
                  "type": "string[]"
                }
              ],
              "internalType": "struct Structs.Invocation",
              "name": "invocation",
              "type": "tuple"
            },
            {
              "internalType": "string",
              "name": "proof",
              "type": "string"
            }
          ],
          "indexed": false,
          "internalType": "struct Structs.NetworkTransaction",
          "name": "ConfirmTx",
          "type": "tuple"
        }
      ],
      "name": "NetworkTransactionPreparedEvent",
      "type": "event"
    },
    {
      "anonymous": false,
      "inputs": [
        {
          "components": [
            {
              "components": [
                {
                  "internalType": "string",
                  "name": "network",
                  "type": "string"
                },
                {
                  "internalType": "uint256",
                  "name": "chain",
                  "type": "uint256"
                }
              ],
              "internalType": "struct Structs.URI",
              "name": "uri",
              "type": "tuple"
            },
            {
              "internalType": "address",
              "name": "sender",
              "type": "address"
            }
          ],
          "indexed": false,
          "internalType": "struct Structs.TransactionID",
          "name": "PrimaryConfirmedTxId",
          "type": "tuple"
        },
        {
          "components": [
            {
              "components": [
                {
                  "components": [
                    {
                      "internalType": "string",
                      "name": "network",
                      "type": "string"
                    },
                    {
                      "internalType": "uint256",
                      "name": "chain",
                      "type": "uint256"
                    }
                  ],
                  "internalType": "struct Structs.URI",
                  "name": "uri",
                  "type": "tuple"
                },
                {
                  "internalType": "address",
                  "name": "sender",
                  "type": "address"
                }
              ],
              "internalType": "struct Structs.TransactionID",
              "name": "txId",
              "type": "tuple"
            },
            {
              "components": [
                {
                  "internalType": "address",
                  "name": "contractC",
                  "type": "address"
                },
                {
                  "internalType": "string",
                  "name": "functionC",
                  "type": "string"
                },
                {
                  "internalType": "string[]",
                  "name": "args",
                  "type": "string[]"
                }
              ],
              "internalType": "struct Structs.Invocation",
              "name": "invocation",
              "type": "tuple"
            },
            {
              "internalType": "string",
              "name": "proof",
              "type": "string"
            }
          ],
          "indexed": false,
          "internalType": "struct Structs.NetworkTransaction[]",
          "name": "NetworkConfirmTxs",
          "type": "tuple[]"
        }
      ],
      "name": "PrimaryTransactionConfirmedEvent",
      "type": "event"
    },
    {
      "anonymous": false,
      "inputs": [
        {
          "components": [
            {
              "components": [
                {
                  "internalType": "string",
                  "name": "network",
                  "type": "string"
                },
                {
                  "internalType": "uint256",
                  "name": "chain",
                  "type": "uint256"
                }
              ],
              "internalType": "struct Structs.URI",
              "name": "uri",
              "type": "tuple"
            },
            {
              "internalType": "address",
              "name": "sender",
              "type": "address"
            }
          ],
          "indexed": false,
          "internalType": "struct Structs.TransactionID",
          "name": "PrimaryPrepareTxId",
          "type": "tuple"
        },
        {
          "components": [
            {
              "components": [
                {
                  "components": [
                    {
                      "internalType": "string",
                      "name": "network",
                      "type": "string"
                    },
                    {
                      "internalType": "uint256",
                      "name": "chain",
                      "type": "uint256"
                    }
                  ],
                  "internalType": "struct Structs.URI",
                  "name": "uri",
                  "type": "tuple"
                },
                {
                  "internalType": "address",
                  "name": "sender",
                  "type": "address"
                }
              ],
              "internalType": "struct Structs.TransactionID",
              "name": "txId",
              "type": "tuple"
            },
            {
              "components": [
                {
                  "internalType": "address",
                  "name": "contractC",
                  "type": "address"
                },
                {
                  "internalType": "string",
                  "name": "functionC",
                  "type": "string"
                },
                {
                  "internalType": "string[]",
                  "name": "args",
                  "type": "string[]"
                }
              ],
              "internalType": "struct Structs.Invocation",
              "name": "invocation",
              "type": "tuple"
            },
            {
              "internalType": "string",
              "name": "proof",
              "type": "string"
            }
          ],
          "indexed": false,
          "internalType": "struct Structs.NetworkTransaction",
          "name": "PrimaryConfirmTx",
          "type": "tuple"
        },
        {
          "components": [
            {
              "internalType": "address",
              "name": "contractC",
              "type": "address"
            },
            {
              "internalType": "string",
              "name": "functionC",
              "type": "string"
            },
            {
              "internalType": "string[]",
              "name": "args",
              "type": "string[]"
            }
          ],
          "indexed": false,
          "internalType": "struct Structs.Invocation",
          "name": "GlobalTxStatusQuery",
          "type": "tuple"
        },
        {
          "components": [
            {
              "components": [
                {
                  "components": [
                    {
                      "internalType": "string",
                      "name": "network",
                      "type": "string"
                    },
                    {
                      "internalType": "uint256",
                      "name": "chain",
                      "type": "uint256"
                    }
                  ],
                  "internalType": "struct Structs.URI",
                  "name": "uri",
                  "type": "tuple"
                },
                {
                  "internalType": "address",
                  "name": "sender",
                  "type": "address"
                }
              ],
              "internalType": "struct Structs.TransactionID",
              "name": "txId",
              "type": "tuple"
            },
            {
              "components": [
                {
                  "internalType": "address",
                  "name": "contractC",
                  "type": "address"
                },
                {
                  "internalType": "string",
                  "name": "functionC",
                  "type": "string"
                },
                {
                  "internalType": "string[]",
                  "name": "args",
                  "type": "string[]"
                }
              ],
              "internalType": "struct Structs.Invocation",
              "name": "invocation",
              "type": "tuple"
            },
            {
              "internalType": "string",
              "name": "proof",
              "type": "string"
            }
          ],
          "indexed": false,
          "internalType": "struct Structs.NetworkTransaction[]",
          "name": "NetworkPrepareTxs",
          "type": "tuple[]"
        },
        {
          "components": [
            {
              "components": [
                {
                  "components": [
                    {
                      "internalType": "string",
                      "name": "network",
                      "type": "string"
                    },
                    {
                      "internalType": "uint256",
                      "name": "chain",
                      "type": "uint256"
                    }
                  ],
                  "internalType": "struct Structs.URI",
                  "name": "uri",
                  "type": "tuple"
                },
                {
                  "internalType": "address",
                  "name": "sender",
                  "type": "address"
                }
              ],
              "internalType": "struct Structs.TransactionID",
              "name": "txId",
              "type": "tuple"
            },
            {
              "components": [
                {
                  "internalType": "address",
                  "name": "contractC",
                  "type": "address"
                },
                {
                  "internalType": "string",
                  "name": "functionC",
                  "type": "string"
                },
                {
                  "internalType": "string[]",
                  "name": "args",
                  "type": "string[]"
                }
              ],
              "internalType": "struct Structs.Invocation",
              "name": "invocation",
              "type": "tuple"
            },
            {
              "internalType": "string",
              "name": "proof",
              "type": "string"
            }
          ],
          "indexed": false,
          "internalType": "struct Structs.NetworkTransaction[]",
          "name": "NetworkConfirmTxs",
          "type": "tuple[]"
        }
      ],
      "name": "PrimaryTransactionPreparedEvent",
      "type": "event"
    },
    {
      "anonymous": false,
      "inputs": [
        {
          "indexed": false,
          "internalType": "string",
          "name": "network",
          "type": "string"
        },
        {
          "indexed": false,
          "internalType": "uint256",
          "name": "chain",
          "type": "uint256"
        },
        {
          "indexed": false,
          "internalType": "bytes",
          "name": "connection",
          "type": "bytes"
        }
      ],
      "name": "SIDE_MESH_RESOURCE_REGISTERED_EVENT",
      "type": "event"
    },
    {
      "inputs": [
        {
          "internalType": "string",
          "name": "networkC",
          "type": "string"
        }
      ],
      "name": "setNetwork",
      "outputs": [],
      "stateMutability": "nonpayable",
      "type": "function"
    }
  ],
  "bytecode": "0x608060405234801561001057600080fd5b50610343806100206000396000f3fe608060405234801561001057600080fd5b506004361061002b5760003560e01c8063818edaec14610030575b600080fd5b61004a60048036038101906100459190610263565b61004c565b005b8060019080519060200190610062929190610066565b5050565b828054610072906102db565b90600052602060002090601f01602090048101928261009457600085556100db565b82601f106100ad57805160ff19168380011785556100db565b828001600101855582156100db579182015b828111156100da5782518255916020019190600101906100bf565b5b5090506100e891906100ec565b5090565b5b808211156101055760008160009055506001016100ed565b5090565b6000604051905090565b600080fd5b600080fd5b600080fd5b600080fd5b6000601f19601f8301169050919050565b7f4e487b7100000000000000000000000000000000000000000000000000000000600052604160045260246000fd5b61017082610127565b810181811067ffffffffffffffff8211171561018f5761018e610138565b5b80604052505050565b60006101a2610109565b90506101ae8282610167565b919050565b600067ffffffffffffffff8211156101ce576101cd610138565b5b6101d782610127565b9050602081019050919050565b82818337600083830152505050565b6000610206610201846101b3565b610198565b90508281526020810184848401111561022257610221610122565b5b61022d8482856101e4565b509392505050565b600082601f83011261024a5761024961011d565b5b813561025a8482602086016101f3565b91505092915050565b60006020828403121561027957610278610113565b5b600082013567ffffffffffffffff81111561029757610296610118565b5b6102a384828501610235565b91505092915050565b7f4e487b7100000000000000000000000000000000000000000000000000000000600052602260045260246000fd5b600060028204905060018216806102f357607f821691505b60208210811415610307576103066102ac565b5b5091905056fea2646970667358221220fcc328579d1d0e8c3c766ae6209fceafa42bc7f10ba8fcbac509d0ea5f54328964736f6c63430008090033",
  "immutableReferences": {},
  "source": "// SPDX-License-Identifier: GPL-3.0\npragma solidity >=0.7.0 <0.9.0;\n\nimport \"../lib/Lib.sol\";\n\nimport \"../util/Structs.sol\";\nimport \"../util/Modifiers.sol\";\nimport \"../util/Constants.sol\";\n\ncontract Sidemesh is Modifiers, Structs, Constants {\n\n    string network;\n\n    function getNetwork()\n        internal view\n        checkEmpty(network, ERROR_NETWORK) returns(string memory){\n            return network;\n    }\n\n    function setNetwork(string memory networkC)public{\n        network = networkC;\n    }\n\n\n}",
  "sourcePath": "/Users/shri99/WebProjects/sidemesh-solidity/contracts/sidemesh/Sidemesh.sol",
  "compiler": {
    "name": "solc",
    "version": "0.8.9+commit.e5eed63a.Emscripten.clang"
  },
  "schemaVersion": "3.3.3",
  "updatedAt": "2021-11-06T19:42:59.295Z",
  "devdoc": {
    "kind": "dev",
    "methods": {},
    "version": 1
  },
  "userdoc": {
    "kind": "user",
    "methods": {},
    "version": 1
  }
}