{
  "contractName": "Sidemesh",
  "abi": [
    {
      "inputs": [
        {
          "internalType": "string",
          "name": "_network",
          "type": "string"
        }
      ],
      "stateMutability": "nonpayable",
      "type": "constructor"
    },
    {
      "inputs": [],
      "name": "getNetwork",
      "outputs": [
        {
          "internalType": "string",
          "name": "",
          "type": "string"
        }
      ],
      "stateMutability": "view",
      "type": "function",
      "constant": true
    },
    {
      "inputs": [
        {
          "internalType": "string",
          "name": "networkC",
          "type": "string"
        }
      ],
      "name": "setNetwork",
      "outputs": [],
      "stateMutability": "nonpayable",
      "type": "function"
    }
  ],
  "bytecode": "0x60806040523480156200001157600080fd5b5060405162000a0138038062000a018339818101604052810190620000379190620002a4565b80600090805190602001906200004f92919062000057565b50506200035a565b828054620000659062000324565b90600052602060002090601f016020900481019282620000895760008555620000d5565b82601f10620000a457805160ff1916838001178555620000d5565b82800160010185558215620000d5579182015b82811115620000d4578251825591602001919060010190620000b7565b5b509050620000e49190620000e8565b5090565b5b8082111562000103576000816000905550600101620000e9565b5090565b6000604051905090565b600080fd5b600080fd5b600080fd5b600080fd5b6000601f19601f8301169050919050565b7f4e487b7100000000000000000000000000000000000000000000000000000000600052604160045260246000fd5b620001708262000125565b810181811067ffffffffffffffff8211171562000192576200019162000136565b5b80604052505050565b6000620001a762000107565b9050620001b5828262000165565b919050565b600067ffffffffffffffff821115620001d857620001d762000136565b5b620001e38262000125565b9050602081019050919050565b60005b8381101562000210578082015181840152602081019050620001f3565b8381111562000220576000848401525b50505050565b60006200023d6200023784620001ba565b6200019b565b9050828152602081018484840111156200025c576200025b62000120565b5b62000269848285620001f0565b509392505050565b600082601f8301126200028957620002886200011b565b5b81516200029b84826020860162000226565b91505092915050565b600060208284031215620002bd57620002bc62000111565b5b600082015167ffffffffffffffff811115620002de57620002dd62000116565b5b620002ec8482850162000271565b91505092915050565b7f4e487b7100000000000000000000000000000000000000000000000000000000600052602260045260246000fd5b600060028204905060018216806200033d57607f821691505b60208210811415620003545762000353620002f5565b5b50919050565b610697806200036a6000396000f3fe608060405234801561001057600080fd5b50600436106100365760003560e01c806307e4b7e91461003b578063818edaec14610059575b600080fd5b610043610075565b60405161005091906103be565b60405180910390f35b610073600480360381019061006e9190610529565b610212565b005b606061010a60008054610087906105a1565b80601f01602080910402602001604051908101604052809291908181526020018280546100b3906105a1565b80156101005780601f106100d557610100808354040283529160200191610100565b820191906000526020600020905b8154815290600101906020018083116100e357829003601f168201915b505050505061022c565b6040518060400160405280601081526020017f4e6574776f726b20697320656d7074790000000000000000000000000000000081525090610181576040517f08c379a000000000000000000000000000000000000000000000000000000000815260040161017891906103be565b60405180910390fd5b506000805461018f906105a1565b80601f01602080910402602001604051908101604052809291908181526020018280546101bb906105a1565b80156102085780601f106101dd57610100808354040283529160200191610208565b820191906000526020600020905b8154815290600101906020018083116101eb57829003601f168201915b5050505050905090565b8060009080519060200190610228929190610282565b5050565b600060405160200161023d90610604565b6040516020818303038152906040528051906020012082604051602001610264919061064a565b60405160208183030381529060405280519060200120149050919050565b82805461028e906105a1565b90600052602060002090601f0160209004810192826102b057600085556102f7565b82601f106102c957805160ff19168380011785556102f7565b828001600101855582156102f7579182015b828111156102f65782518255916020019190600101906102db565b5b5090506103049190610308565b5090565b5b80821115610321576000816000905550600101610309565b5090565b600081519050919050565b600082825260208201905092915050565b60005b8381101561035f578082015181840152602081019050610344565b8381111561036e576000848401525b50505050565b6000601f19601f8301169050919050565b600061039082610325565b61039a8185610330565b93506103aa818560208601610341565b6103b381610374565b840191505092915050565b600060208201905081810360008301526103d88184610385565b905092915050565b6000604051905090565b600080fd5b600080fd5b600080fd5b600080fd5b7f4e487b7100000000000000000000000000000000000000000000000000000000600052604160045260246000fd5b61043682610374565b810181811067ffffffffffffffff82111715610455576104546103fe565b5b80604052505050565b60006104686103e0565b9050610474828261042d565b919050565b600067ffffffffffffffff821115610494576104936103fe565b5b61049d82610374565b9050602081019050919050565b82818337600083830152505050565b60006104cc6104c784610479565b61045e565b9050828152602081018484840111156104e8576104e76103f9565b5b6104f38482856104aa565b509392505050565b600082601f8301126105105761050f6103f4565b5b81356105208482602086016104b9565b91505092915050565b60006020828403121561053f5761053e6103ea565b5b600082013567ffffffffffffffff81111561055d5761055c6103ef565b5b610569848285016104fb565b91505092915050565b7f4e487b7100000000000000000000000000000000000000000000000000000000600052602260045260246000fd5b600060028204905060018216806105b957607f821691505b602082108114156105cd576105cc610572565b5b50919050565b600081905092915050565b50565b60006105ee6000836105d3565b91506105f9826105de565b600082019050919050565b600061060f826105e1565b9150819050919050565b600061062482610325565b61062e81856105d3565b935061063e818560208601610341565b80840191505092915050565b60006106568284610619565b91508190509291505056fea26469706673582212202333890f53f855a57d6973e153c94355a9cc546ee18ac2f9d90e8bb04c5c45dc64736f6c63430008090033",
  "immutableReferences": {},
  "source": "// SPDX-License-Identifier: GPL-3.0\npragma solidity >=0.7.0 <0.9.0;\n\nimport \"../lib/Utils.sol\";\nimport \"../lib/Constants.sol\";\n\ninterface ISidemesh{\n    function getNetwork()external view returns(string memory);\n}\n\ncontract Sidemesh is ISidemesh {\n\n    string network;\n\n    constructor(string memory _network){\n        network = _network;\n    }\n\n    function getNetwork()external view returns(string memory){\n            require(Utils.isEmpty(network), Constants.ERROR_NETWORK);\n            return network;\n    }\n\n    function setNetwork(string memory networkC)public{\n        network = networkC;\n    }\n\n\n}",
  "sourcePath": "/home/rxshri99/WebProjects/sidemesh-solidity/contracts/sidemesh/Sidemesh.sol",
  "compiler": {
    "name": "solc",
    "version": "0.8.9+commit.e5eed63a.Emscripten.clang"
  },
  "schemaVersion": "3.4.1",
  "updatedAt": "2021-11-08T20:50:20.866Z",
  "networkType": "ethereum",
  "devdoc": {
    "kind": "dev",
    "methods": {},
    "version": 1
  },
  "userdoc": {
    "kind": "user",
    "methods": {},
    "version": 1
  }
}