{
  "contractName": "Verifier",
  "abi": [
    {
      "inputs": [
        {
          "internalType": "string",
          "name": "network",
          "type": "string"
        },
        {
          "internalType": "uint256",
          "name": "chain",
          "type": "uint256"
        },
        {
          "internalType": "address",
          "name": "contractC",
          "type": "address"
        },
        {
          "internalType": "string",
          "name": "functionC",
          "type": "string"
        }
      ],
      "name": "register",
      "outputs": [],
      "stateMutability": "nonpayable",
      "type": "function"
    },
    {
      "inputs": [
        {
          "internalType": "string",
          "name": "network",
          "type": "string"
        },
        {
          "internalType": "uint256",
          "name": "chain",
          "type": "uint256"
        }
      ],
      "name": "resolve",
      "outputs": [
        {
          "internalType": "address",
          "name": "",
          "type": "address"
        },
        {
          "internalType": "string",
          "name": "",
          "type": "string"
        }
      ],
      "stateMutability": "view",
      "type": "function"
    }
  ],
  "bytecode": "0x608060405234801561001057600080fd5b5061074f806100206000396000f3fe608060405234801561001057600080fd5b50600436106100365760003560e01c8063a17185491461003b578063f9c2af8614610050575b600080fd5b61004e61004936600461051c565b61007a565b005b61006361005e3660046105b7565b61015b565b604051610071929190610658565b60405180910390f35b60006100d06040518060400160405280600a815260200169534944455f4d4553485f60b01b81525086866040516020016100b69392919061068f565b604051602081830303815290604052805160209091012090565b60408051808201825273ffffffffffffffffffffffffffffffffffffffff86811682526020808301878152600086815280835294909420835181547fffffffffffffffffffffffff000000000000000000000000000000000000000016931692909217825592518051949550919390926101519260018501929101906103e0565b5050505050505050565b600060606040518060400160405280600a815260200169534944455f4d4553485f60b01b81525084846040516020016101969392919061068f565b60408051601f19818403018152919052805160208201206101b690610335565b6040518060400160405280601d81526020017f5b56657269666965725d2043616e742061626c652066696e64207572690000008152509061022d576040517f08c379a000000000000000000000000000000000000000000000000000000000815260040161022491906106c4565b60405180910390fd5b50600061026a6040518060400160405280600a815260200169534944455f4d4553485f60b01b81525087876040516020016100b69392919061068f565b600081815260208190526040902080546001909101805492935073ffffffffffffffffffffffffffffffffffffffff9091169181906102a8906106de565b80601f01602080910402602001604051908101604052809291908181526020018280546102d4906106de565b80156103215780601f106102f657610100808354040283529160200191610321565b820191906000526020600020905b81548152906001019060200180831161030457829003601f168201915b505050505090509350935050509250929050565b600081815260208190526040812060010180546103da9190610356906106de565b80601f0160208091040260200160405190810160405280929190818152602001828054610382906106de565b80156103cf5780601f106103a4576101008083540402835291602001916103cf565b820191906000526020600020905b8154815290600101906020018083116103b257829003601f168201915b505050505051151590565b92915050565b8280546103ec906106de565b90600052602060002090601f01602090048101928261040e5760008555610454565b82601f1061042757805160ff1916838001178555610454565b82800160010185558215610454579182015b82811115610454578251825591602001919060010190610439565b50610460929150610464565b5090565b5b808211156104605760008155600101610465565b634e487b7160e01b600052604160045260246000fd5b600082601f8301126104a057600080fd5b813567ffffffffffffffff808211156104bb576104bb610479565b604051601f8301601f19908116603f011681019082821181831017156104e3576104e3610479565b816040528381528660208588010111156104fc57600080fd5b836020870160208301376000602085830101528094505050505092915050565b6000806000806080858703121561053257600080fd5b843567ffffffffffffffff8082111561054a57600080fd5b6105568883890161048f565b9550602087013594506040870135915073ffffffffffffffffffffffffffffffffffffffff8216821461058857600080fd5b9092506060860135908082111561059e57600080fd5b506105ab8782880161048f565b91505092959194509250565b600080604083850312156105ca57600080fd5b823567ffffffffffffffff8111156105e157600080fd5b6105ed8582860161048f565b95602094909401359450505050565b60005b838110156106175781810151838201526020016105ff565b83811115610626576000848401525b50505050565b600081518084526106448160208601602086016105fc565b601f01601f19169290920160200192915050565b73ffffffffffffffffffffffffffffffffffffffff83168152604060208201526000610687604083018461062c565b949350505050565b600084516106a18184602089016105fc565b8451908301906106b58183602089016105fc565b01928352505060200192915050565b6020815260006106d7602083018461062c565b9392505050565b600181811c908216806106f257607f821691505b6020821081141561071357634e487b7160e01b600052602260045260246000fd5b5091905056fea26469706673582212206394fe4ba13ed89ff7de8f879a7bf0ad268955d5eefad4f8f3c091fc72a9aec864736f6c63430008090033",
  "immutableReferences": {},
  "source": "// SPDX-License-Identifier: GPL-3.0\npragma solidity >=0.7.0 <0.9.0;\n\nimport \"../lib/Utils.sol\";\nimport \"../lib/Constants.sol\";\nimport \"../lib/Structs.sol\";\n\ninterface IVerifier{\n    function register(\n        string memory network,\n        uint chain,\n        address contractC, \n        string memory functionC) \n        external;\n\n    function resolve(\n        string memory network, \n        uint chain) \n        external view \n        returns(address, string memory);\n}\n\ncontract Verifier is IVerifier{\n    \n    mapping(bytes32 => Structs.VerifyInfo) verifiedNetworks;\n    \n    modifier checkUri(bytes memory network){\n        require(checkUriExist(Utils.hash(network)), Constants.ERROR_VER_URI_NOT_FOUND);\n        _;\n    }\n    function checkUriExist(bytes32 hash)internal view returns(bool){\n        return Utils.checkAddress(verifiedNetworks[hash].contractC) \n                && Utils.checkBytes(verifiedNetworks[hash].functionC) ;\n    }\n\n    function register(\n        string memory network,\n        uint chain,\n        address contractC, \n        string memory functionC)\n        external {\n            bytes32 hash = Utils.hash(abi.encodePacked(Constants.PREFIX,  network, chain));\n            verifiedNetworks[hash] = Structs.VerifyInfo(contractC, functionC);\n    }\n    \n    function resolve(\n        string memory network, \n        uint chain) \n        external view \n        checkUri(abi.encodePacked(Constants.PREFIX, network, chain))\n        returns(address, string memory){\n            bytes32 hash = Utils.hash(abi.encodePacked(Constants.PREFIX, network, chain));\n            return (verifiedNetworks[hash].contractC, verifiedNetworks[hash].functionC);    \n    }\n}",
  "sourcePath": "/Users/shri99/WebProjects/sidemesh-solidity/contracts/resource/Verifier.sol",
  "compiler": {
    "name": "solc",
    "version": "0.8.9+commit.e5eed63a.Emscripten.clang"
  },
  "schemaVersion": "3.3.3",
  "updatedAt": "2021-11-10T21:57:50.166Z",
  "devdoc": {
    "kind": "dev",
    "methods": {},
    "version": 1
  },
  "userdoc": {
    "kind": "user",
    "methods": {},
    "version": 1
  }
}