{
  "contractName": "Verifier",
  "abi": [
    {
      "anonymous": false,
      "inputs": [
        {
          "components": [
            {
              "components": [
                {
                  "internalType": "string",
                  "name": "network",
                  "type": "string"
                },
                {
                  "internalType": "uint256",
                  "name": "chain",
                  "type": "uint256"
                }
              ],
              "internalType": "struct Structs.URI",
              "name": "uri",
              "type": "tuple"
            },
            {
              "internalType": "address",
              "name": "sender",
              "type": "address"
            }
          ],
          "indexed": false,
          "internalType": "struct Structs.TransactionID",
          "name": "PrimaryPrepareTxId",
          "type": "tuple"
        },
        {
          "components": [
            {
              "internalType": "address",
              "name": "contractC",
              "type": "address"
            },
            {
              "internalType": "string",
              "name": "functionC",
              "type": "string"
            },
            {
              "internalType": "string[]",
              "name": "args",
              "type": "string[]"
            }
          ],
          "indexed": false,
          "internalType": "struct Structs.Invocation",
          "name": "GlobalTxStatusQuery",
          "type": "tuple"
        },
        {
          "components": [
            {
              "components": [
                {
                  "components": [
                    {
                      "internalType": "string",
                      "name": "network",
                      "type": "string"
                    },
                    {
                      "internalType": "uint256",
                      "name": "chain",
                      "type": "uint256"
                    }
                  ],
                  "internalType": "struct Structs.URI",
                  "name": "uri",
                  "type": "tuple"
                },
                {
                  "internalType": "address",
                  "name": "sender",
                  "type": "address"
                }
              ],
              "internalType": "struct Structs.TransactionID",
              "name": "txId",
              "type": "tuple"
            },
            {
              "components": [
                {
                  "internalType": "address",
                  "name": "contractC",
                  "type": "address"
                },
                {
                  "internalType": "string",
                  "name": "functionC",
                  "type": "string"
                },
                {
                  "internalType": "string[]",
                  "name": "args",
                  "type": "string[]"
                }
              ],
              "internalType": "struct Structs.Invocation",
              "name": "invocation",
              "type": "tuple"
            },
            {
              "internalType": "string",
              "name": "proof",
              "type": "string"
            }
          ],
          "indexed": false,
          "internalType": "struct Structs.NetworkTransaction",
          "name": "ConfirmTx",
          "type": "tuple"
        }
      ],
      "name": "NetworkTransactionPreparedEvent",
      "type": "event"
    },
    {
      "anonymous": false,
      "inputs": [
        {
          "components": [
            {
              "components": [
                {
                  "internalType": "string",
                  "name": "network",
                  "type": "string"
                },
                {
                  "internalType": "uint256",
                  "name": "chain",
                  "type": "uint256"
                }
              ],
              "internalType": "struct Structs.URI",
              "name": "uri",
              "type": "tuple"
            },
            {
              "internalType": "address",
              "name": "sender",
              "type": "address"
            }
          ],
          "indexed": false,
          "internalType": "struct Structs.TransactionID",
          "name": "PrimaryConfirmedTxId",
          "type": "tuple"
        },
        {
          "components": [
            {
              "components": [
                {
                  "components": [
                    {
                      "internalType": "string",
                      "name": "network",
                      "type": "string"
                    },
                    {
                      "internalType": "uint256",
                      "name": "chain",
                      "type": "uint256"
                    }
                  ],
                  "internalType": "struct Structs.URI",
                  "name": "uri",
                  "type": "tuple"
                },
                {
                  "internalType": "address",
                  "name": "sender",
                  "type": "address"
                }
              ],
              "internalType": "struct Structs.TransactionID",
              "name": "txId",
              "type": "tuple"
            },
            {
              "components": [
                {
                  "internalType": "address",
                  "name": "contractC",
                  "type": "address"
                },
                {
                  "internalType": "string",
                  "name": "functionC",
                  "type": "string"
                },
                {
                  "internalType": "string[]",
                  "name": "args",
                  "type": "string[]"
                }
              ],
              "internalType": "struct Structs.Invocation",
              "name": "invocation",
              "type": "tuple"
            },
            {
              "internalType": "string",
              "name": "proof",
              "type": "string"
            }
          ],
          "indexed": false,
          "internalType": "struct Structs.NetworkTransaction[]",
          "name": "NetworkConfirmTxs",
          "type": "tuple[]"
        }
      ],
      "name": "PrimaryTransactionConfirmedEvent",
      "type": "event"
    },
    {
      "anonymous": false,
      "inputs": [
        {
          "components": [
            {
              "components": [
                {
                  "internalType": "string",
                  "name": "network",
                  "type": "string"
                },
                {
                  "internalType": "uint256",
                  "name": "chain",
                  "type": "uint256"
                }
              ],
              "internalType": "struct Structs.URI",
              "name": "uri",
              "type": "tuple"
            },
            {
              "internalType": "address",
              "name": "sender",
              "type": "address"
            }
          ],
          "indexed": false,
          "internalType": "struct Structs.TransactionID",
          "name": "PrimaryPrepareTxId",
          "type": "tuple"
        },
        {
          "components": [
            {
              "components": [
                {
                  "components": [
                    {
                      "internalType": "string",
                      "name": "network",
                      "type": "string"
                    },
                    {
                      "internalType": "uint256",
                      "name": "chain",
                      "type": "uint256"
                    }
                  ],
                  "internalType": "struct Structs.URI",
                  "name": "uri",
                  "type": "tuple"
                },
                {
                  "internalType": "address",
                  "name": "sender",
                  "type": "address"
                }
              ],
              "internalType": "struct Structs.TransactionID",
              "name": "txId",
              "type": "tuple"
            },
            {
              "components": [
                {
                  "internalType": "address",
                  "name": "contractC",
                  "type": "address"
                },
                {
                  "internalType": "string",
                  "name": "functionC",
                  "type": "string"
                },
                {
                  "internalType": "string[]",
                  "name": "args",
                  "type": "string[]"
                }
              ],
              "internalType": "struct Structs.Invocation",
              "name": "invocation",
              "type": "tuple"
            },
            {
              "internalType": "string",
              "name": "proof",
              "type": "string"
            }
          ],
          "indexed": false,
          "internalType": "struct Structs.NetworkTransaction",
          "name": "PrimaryConfirmTx",
          "type": "tuple"
        },
        {
          "components": [
            {
              "internalType": "address",
              "name": "contractC",
              "type": "address"
            },
            {
              "internalType": "string",
              "name": "functionC",
              "type": "string"
            },
            {
              "internalType": "string[]",
              "name": "args",
              "type": "string[]"
            }
          ],
          "indexed": false,
          "internalType": "struct Structs.Invocation",
          "name": "GlobalTxStatusQuery",
          "type": "tuple"
        },
        {
          "components": [
            {
              "components": [
                {
                  "components": [
                    {
                      "internalType": "string",
                      "name": "network",
                      "type": "string"
                    },
                    {
                      "internalType": "uint256",
                      "name": "chain",
                      "type": "uint256"
                    }
                  ],
                  "internalType": "struct Structs.URI",
                  "name": "uri",
                  "type": "tuple"
                },
                {
                  "internalType": "address",
                  "name": "sender",
                  "type": "address"
                }
              ],
              "internalType": "struct Structs.TransactionID",
              "name": "txId",
              "type": "tuple"
            },
            {
              "components": [
                {
                  "internalType": "address",
                  "name": "contractC",
                  "type": "address"
                },
                {
                  "internalType": "string",
                  "name": "functionC",
                  "type": "string"
                },
                {
                  "internalType": "string[]",
                  "name": "args",
                  "type": "string[]"
                }
              ],
              "internalType": "struct Structs.Invocation",
              "name": "invocation",
              "type": "tuple"
            },
            {
              "internalType": "string",
              "name": "proof",
              "type": "string"
            }
          ],
          "indexed": false,
          "internalType": "struct Structs.NetworkTransaction[]",
          "name": "NetworkPrepareTxs",
          "type": "tuple[]"
        },
        {
          "components": [
            {
              "components": [
                {
                  "components": [
                    {
                      "internalType": "string",
                      "name": "network",
                      "type": "string"
                    },
                    {
                      "internalType": "uint256",
                      "name": "chain",
                      "type": "uint256"
                    }
                  ],
                  "internalType": "struct Structs.URI",
                  "name": "uri",
                  "type": "tuple"
                },
                {
                  "internalType": "address",
                  "name": "sender",
                  "type": "address"
                }
              ],
              "internalType": "struct Structs.TransactionID",
              "name": "txId",
              "type": "tuple"
            },
            {
              "components": [
                {
                  "internalType": "address",
                  "name": "contractC",
                  "type": "address"
                },
                {
                  "internalType": "string",
                  "name": "functionC",
                  "type": "string"
                },
                {
                  "internalType": "string[]",
                  "name": "args",
                  "type": "string[]"
                }
              ],
              "internalType": "struct Structs.Invocation",
              "name": "invocation",
              "type": "tuple"
            },
            {
              "internalType": "string",
              "name": "proof",
              "type": "string"
            }
          ],
          "indexed": false,
          "internalType": "struct Structs.NetworkTransaction[]",
          "name": "NetworkConfirmTxs",
          "type": "tuple[]"
        }
      ],
      "name": "PrimaryTransactionPreparedEvent",
      "type": "event"
    },
    {
      "anonymous": false,
      "inputs": [
        {
          "indexed": false,
          "internalType": "string",
          "name": "network",
          "type": "string"
        },
        {
          "indexed": false,
          "internalType": "uint256",
          "name": "chain",
          "type": "uint256"
        },
        {
          "indexed": false,
          "internalType": "bytes",
          "name": "connection",
          "type": "bytes"
        }
      ],
      "name": "SIDE_MESH_RESOURCE_REGISTERED_EVENT",
      "type": "event"
    },
    {
      "inputs": [
        {
          "internalType": "string",
          "name": "network",
          "type": "string"
        },
        {
          "internalType": "uint256",
          "name": "chain",
          "type": "uint256"
        },
        {
          "internalType": "address",
          "name": "contractC",
          "type": "address"
        },
        {
          "internalType": "string",
          "name": "functionC",
          "type": "string"
        }
      ],
      "name": "register",
      "outputs": [],
      "stateMutability": "nonpayable",
      "type": "function"
    },
    {
      "inputs": [
        {
          "internalType": "string",
          "name": "network",
          "type": "string"
        },
        {
          "internalType": "uint256",
          "name": "chain",
          "type": "uint256"
        }
      ],
      "name": "resolve",
      "outputs": [
        {
          "internalType": "address",
          "name": "",
          "type": "address"
        },
        {
          "internalType": "string",
          "name": "",
          "type": "string"
        }
      ],
      "stateMutability": "view",
      "type": "function",
      "constant": true
    }
  ],
  "bytecode": "0x608060405234801561001057600080fd5b50610ab6806100206000396000f3fe608060405234801561001057600080fd5b50600436106100365760003560e01c8063a17185491461003b578063f9c2af8614610057575b600080fd5b610055600480360381019061005091906107a9565b610088565b005b610071600480360381019061006c9190610848565b610199565b60405161007f92919061093b565b60405180910390f35b60006100eb6040518060400160405280600a81526020017f534944455f4d4553485f0000000000000000000000000000000000000000000081525086866040516020016100d7939291906109c8565b6040516020818303038152906040526103ca565b905060405180604001604052808473ffffffffffffffffffffffffffffffffffffffff168152602001838152506001600083815260200190815260200160002060008201518160000160006101000a81548173ffffffffffffffffffffffffffffffffffffffff021916908373ffffffffffffffffffffffffffffffffffffffff160217905550602082015181600101908051906020019061018e929190610518565b509050505050505050565b600060606040518060400160405280600a81526020017f534944455f4d4553485f0000000000000000000000000000000000000000000081525084846040516020016101e7939291906109c8565b604051602081830303815290604052610207610202826103ca565b6103db565b6040518060400160405280601d81526020017f5b56657269666965725d2043616e742061626c652066696e64207572690000008152509061027e576040517f08c379a000000000000000000000000000000000000000000000000000000000815260040161027591906109fd565b60405180910390fd5b5060006102e26040518060400160405280600a81526020017f534944455f4d4553485f0000000000000000000000000000000000000000000081525087876040516020016102ce939291906109c8565b6040516020818303038152906040526103ca565b90506001600082815260200190815260200160002060000160009054906101000a900473ffffffffffffffffffffffffffffffffffffffff166001600083815260200190815260200160002060010180805461033d90610a4e565b80601f016020809104026020016040519081016040528092919081815260200182805461036990610a4e565b80156103b65780601f1061038b576101008083540402835291602001916103b6565b820191906000526020600020905b81548152906001019060200180831161039957829003601f168201915b505050505090509350935050509250929050565b600081805190602001209050919050565b600061041c6001600084815260200190815260200160002060000160009054906101000a900473ffffffffffffffffffffffffffffffffffffffff166104d2565b80156104cb57506104ca60016000848152602001908152602001600020600101805461044790610a4e565b80601f016020809104026020016040519081016040528092919081815260200182805461047390610a4e565b80156104c05780601f10610495576101008083540402835291602001916104c0565b820191906000526020600020905b8154815290600101906020018083116104a357829003601f168201915b505050505061050a565b5b9050919050565b60008173ffffffffffffffffffffffffffffffffffffffff168273ffffffffffffffffffffffffffffffffffffffff16149050919050565b600080825114159050919050565b82805461052490610a4e565b90600052602060002090601f016020900481019282610546576000855561058d565b82601f1061055f57805160ff191683800117855561058d565b8280016001018555821561058d579182015b8281111561058c578251825591602001919060010190610571565b5b50905061059a919061059e565b5090565b5b808211156105b757600081600090555060010161059f565b5090565b6000604051905090565b600080fd5b600080fd5b600080fd5b600080fd5b6000601f19601f8301169050919050565b7f4e487b7100000000000000000000000000000000000000000000000000000000600052604160045260246000fd5b610622826105d9565b810181811067ffffffffffffffff82111715610641576106406105ea565b5b80604052505050565b60006106546105bb565b90506106608282610619565b919050565b600067ffffffffffffffff8211156106805761067f6105ea565b5b610689826105d9565b9050602081019050919050565b82818337600083830152505050565b60006106b86106b384610665565b61064a565b9050828152602081018484840111156106d4576106d36105d4565b5b6106df848285610696565b509392505050565b600082601f8301126106fc576106fb6105cf565b5b813561070c8482602086016106a5565b91505092915050565b6000819050919050565b61072881610715565b811461073357600080fd5b50565b6000813590506107458161071f565b92915050565b600073ffffffffffffffffffffffffffffffffffffffff82169050919050565b60006107768261074b565b9050919050565b6107868161076b565b811461079157600080fd5b50565b6000813590506107a38161077d565b92915050565b600080600080608085870312156107c3576107c26105c5565b5b600085013567ffffffffffffffff8111156107e1576107e06105ca565b5b6107ed878288016106e7565b94505060206107fe87828801610736565b935050604061080f87828801610794565b925050606085013567ffffffffffffffff8111156108305761082f6105ca565b5b61083c878288016106e7565b91505092959194509250565b6000806040838503121561085f5761085e6105c5565b5b600083013567ffffffffffffffff81111561087d5761087c6105ca565b5b610889858286016106e7565b925050602061089a85828601610736565b9150509250929050565b6108ad8161076b565b82525050565b600081519050919050565b600082825260208201905092915050565b60005b838110156108ed5780820151818401526020810190506108d2565b838111156108fc576000848401525b50505050565b600061090d826108b3565b61091781856108be565b93506109278185602086016108cf565b610930816105d9565b840191505092915050565b600060408201905061095060008301856108a4565b81810360208301526109628184610902565b90509392505050565b600081905092915050565b6000610981826108b3565b61098b818561096b565b935061099b8185602086016108cf565b80840191505092915050565b6000819050919050565b6109c26109bd82610715565b6109a7565b82525050565b60006109d48286610976565b91506109e08285610976565b91506109ec82846109b1565b602082019150819050949350505050565b60006020820190508181036000830152610a178184610902565b905092915050565b7f4e487b7100000000000000000000000000000000000000000000000000000000600052602260045260246000fd5b60006002820490506001821680610a6657607f821691505b60208210811415610a7a57610a79610a1f565b5b5091905056fea2646970667358221220a08af5ad9793bc56a02eb4a5970dc47039fa2ee02b0ea95be99468a7ac9ad11164736f6c63430008090033",
  "immutableReferences": {},
  "source": "// SPDX-License-Identifier: GPL-3.0\npragma solidity >=0.7.0 <0.9.0;\n\nimport \"../lib/Lib.sol\";\n\nimport \"../util/Structs.sol\";\nimport \"../util/Constants.sol\";\n\ncontract Verifier is Structs, Constants{\n    \n    mapping(bytes32 => VerifyInfo) verifiedNetworks;\n    \n    modifier checkUri(bytes memory network){\n        require(checkUriExist(Lib.hash(network)), VER_URI_NOT_FOUND);\n        _;\n    }\n    function checkUriExist(bytes32 hash)internal view returns(bool){\n        return Lib.checkAddress(verifiedNetworks[hash].contractC) \n                && Lib.checkBytes(verifiedNetworks[hash].functionC) ;\n    }\n\n    function register(\n        string memory network,\n        uint chain,\n        address contractC, \n        string memory functionC) \n        external {\n            bytes32 hash = Lib.hash(abi.encodePacked(PREFIX,  network, chain));\n            verifiedNetworks[hash] = VerifyInfo(contractC, functionC);\n    }\n    \n    function resolve(\n        string memory network, \n        uint chain) \n        external view \n        checkUri(abi.encodePacked(PREFIX, network, chain))\n        returns(address, string memory){\n            bytes32 hash = Lib.hash(abi.encodePacked(PREFIX, network, chain));\n            return (verifiedNetworks[hash].contractC, verifiedNetworks[hash].functionC);    \n    }\n}",
  "sourcePath": "/Users/shri99/WebProjects/sidemesh-solidity/contracts/resource/Verifier.sol",
  "compiler": {
    "name": "solc",
    "version": "0.8.9+commit.e5eed63a.Emscripten.clang"
  },
  "schemaVersion": "3.3.3",
  "updatedAt": "2021-11-06T19:47:30.700Z",
  "networkType": "ethereum",
  "devdoc": {
    "kind": "dev",
    "methods": {},
    "version": 1
  },
  "userdoc": {
    "kind": "user",
    "methods": {},
    "version": 1
  }
}